:100000000C94EF010C9417020C9417020C94061038
:100010000C9406100C9406100C9417020C94170202
:100020000C9417020C9417020C9417020C941702EC
:100030000C9417020C9417020C9417020C941702DC
:100040000C94640F0C9417020C94D40F0C94AE0F04
:100050000C9417020C9417020C9417020C941702BC
:100060000C9417020C94170252657475726E696EC7
:100070006720746F2050726576696F7573204D6FBD
:100080006465204661696C7572652E2E2E0053657D
:100090007474696E6720426175647261746520537F
:1000A00075636365737366756C2100456E74657264
:1000B000696E6720436F6E66696775726174696FF8
:1000C0006E204D6F64652053756363657373667549
:1000D0006C2100456E746572696E6720436F6E66B1
:1000E000696775726174696F6E204D6F6465204633
:1000F00061696C7572652E2E2E004D43503235317C
:1001000035204F4B2028384D487A2C203130306B29
:1001100062707329004D43503235313520696E6964
:1001200074204641494C005374617274696E6720B3
:10013000446576696365202846696C746572202B76
:1001400020506C6179657229005B524144494F5DD2
:10015000204E6F20766F6C7461676520796574201E
:100160002D3E206B656570204F4646002056005B93
:10017000524144494F5D20426174746572793D007B
:100180005B504C41595D2057656C636F6D65205421
:1001900031005B434C495D20766F6C756D65207353
:1001A000657420005B434C495D20766F6C756D650E
:1001B0003D005B434C495D20766F6C756D653D007D
:1001C0005B4B45595D204C4F434B202D3E207261C7
:1001D00064696F204F4646005B4B45595D20554E84
:1001E0004C4F434B202D3E20726164696F20534B6E
:1001F000495050454420286C6F77206261747465C3
:10020000727929005B4B45595D20554E4C4F434B4D
:10021000202D3E20726164696F204F4E202862615C
:100220007474657279204F4B29000000000024008F
:1002300027002A005B504C41595D20536561746270
:10024000656C74205432206C6F6F70005B504C41B1
:10025000595D2054004C4F570048494748005B52B5
:100260004144494F5D2000000000080002010000E9
:100270000304070000000000000000536574746967
:100280006E67204D61736B2053756363657373668E
:10029000756C210053657474696E67204D61736BD2
:1002A000204661696C7572652E2E2E00456E746550
:1002B00072696E672050726576696F7573204D6F35
:1002C0006465204661696C7572652E2E2E00456E40
:1002D000746572696E6720436F6E666967757261D7
:1002E00074696F6E204D6F6465204661696C75722C
:1002F000652E2E2E005374617274696E6720746FC0
:1003000020536574204D61736B21005365747469CB
:100310006E672046696C74657220537563636573FC
:100320007366756C210053657474696E6720466945
:100330006C746572204661696C7572652E2E2E0094
:10034000456E746572696E672050726576696F7567
:1003500073204D6F6465204661696C7572652E2E41
:100360002E00456E74657220436F6E666967757204
:100370006174696F6E204D6F6465204661696C75AC
:1003800072652E2E2E005374617274696E6720742C
:100390006F205365742046696C74657221000000FB
:1003A000000023002600290000000000250028008E
:1003B0002B000404040404040404020202020202E6
:1003C0000303030303030102040810204080010219
:1003D000040810200102040810207E10E9201124D6
:1003E0001FBECFEFD8E0DEBFCDBF11E0A0E0B1E08F
:1003F000E6E1FDE402C005900D92A234B107D9F701
:1004000026E0A2E4B1E001C01D92AC3AB207E1F7E8
:1004100011E0CEEED1E004C02197FE010E94D1236D
:10042000CD3ED107C9F70E9454120C947E260C943D
:1004300000008CBD9DBD0895CF93DF93EC01EDE0EE
:10044000DC018E2F1D928A95E9F790919A06809192
:100450009906891779F0E99FF0011124EF5CF94FB3
:100460008DE0DE0101900D928A95E1F79F5F977014
:1004700090939A06CE01DF91CF9108950F931F9329
:10048000CF93DF93CDB7DEB72D970FB6F894DEBFCD
:100490000FBECDBF8091220690912306892B09F4CF
:1004A0008BC01DE001E08091220690912306DC01C3
:1004B000ED91FC910084F185E02D0995892B09F4DB
:1004C0007BC08091220690912306DC01ED91FC9186
:1004D0000284F385E02D0995E0913006E11107C013
:1004E0008E3709F78093260600933006DCCF91E023
:1004F0009E0F90933006F0E0EE5DF94F84839A30C2
:1005000090F280912F068F3E09F053C0409129064A
:100510008091270690912806890F9927991F840FAB
:10052000911D20912A06280F392F311D80912B060D
:10053000280F311D80912C06820F932F911D9195CC
:100540008195910920912D06291333C090912E0693
:1005500098132FC020912B0630912C068AE0E6E2FA
:10056000F6E0DE01149601900D928A95E1F7A091D4
:10057000990681E08A0F877090919A06891305C0C9
:1005800091E0980F977090939A064983322723271A
:1005900032273B832A831A9FD0011124AF5CB94FC5
:1005A000FE013196912F01900D929A95E1F780937B
:1005B00099061092300677CF2D960FB6F894DEBFCD
:1005C0000FBECDBFDF91CF911F910F910895CF93B3
:1005D000DF93CDB7DEB72A970FB6F894DEBF0FBE14
:1005E000CDBF282F8091220690912306009751F1CC
:1005F0003EE739833FEF3A8336E03B832C831D820D
:10060000472F50E07E836F83640F752F711D6B5FE2
:100610007E4F260F372F311D3195219531093887AF
:1006200029872FEE2A87DC01ED91FC910280F3816E
:10063000E02D4AE050E0BE016F5F7F4F099521E059
:100640000A9709F020E0822F2A960FB6F894DEBFB1
:100650000FBECDBFDF91CF9108958F3108F08EE1AD
:10066000682F70E086E00C94E702209199013091A8
:100670009A018217930738F42091950130919601E1
:100680002115310529F410929B018BE991E0089521
:10069000820F931F0895833081F028F4813099F000
:1006A0008230A9F008958730A9F08830C9F08430ED
:1006B000B1F4809180008F7D03C0809180008F779E
:1006C00080938000089584B58F7784BD089584B5A4
:1006D0008F7DFBCF8091B0008F778093B00008951D
:1006E0008091B0008F7DF9CFCF93DF93ECE6F2E0FD
:1006F0008491EBECF3E0D491E7EBF3E0C491CC23ED
:10070000A1F081110E944B03EC2FF0E0EE0FFF1FD0
:10071000E256FC4FA591B491EC91ED2381E090E07D
:1007200009F480E0DF91CF91089580E090E0FACF66
:100730001F93CF93DF93282F30E0F901E959FD4F44
:100740008491F901EA53FC4FD491F901EE54FC4F26
:10075000C491CC23A9F0162F81110E944B03EC2FDA
:10076000F0E0EE0FFF1FE855FC4FA591B4918FB755
:10077000F894EC91111108C0D095DE23DC938FBF63
:10078000DF91CF911F910895DE2BF8CF80919D06C8
:1007900060E0811103C086E00C94980386E00E941B
:1007A000980310929D060895CF93DF9390E0FC018B
:1007B000EA53FC4F24918E549C4FFC018491882372
:1007C000C9F090E0880F991FFC01E65DFD4FA591EF
:1007D000B491FC01E855FC4FC591D49161110DC055
:1007E0009FB7F8948C91209582238C93888128233D
:1007F00028839FBFDF91CF910895623051F49FB756
:10080000F8943C91822F809583238C93E8812E2B42
:10081000EFCF8FB7F894EC912E2B2C938FBFEACFAC
:100820003FB7F8948091910190919201A09193012A
:10083000B091940126B5A89B05C02F3F19F00196F1
:10084000A11DB11D3FBFBA2FA92F982F8827BC012A
:10085000CD01620F711D811D911D42E0660F771F52
:10086000881F991F4A95D1F708958F929F92AF9252
:10087000BF92CF92DF92EF92FF924B015C010E94F8
:1008800010046B017C010E9410046C197D098E0913
:100890009F09683E734081059105A8F321E0821A03
:1008A0009108A108B10888EEC80E83E0D81EE11CAB
:1008B000F11C81149104A104B10429F7FF90EF9079
:1008C000DF90CF90BF90AF909F908F9008952FB7FB
:1008D000F89460918D0170918E0180918F019091BB
:1008E00090012FBF08958F929F92AF92BF92CF92A7
:1008F000DF92EF92FF92CF93DF93CDB7DEB72D97C4
:100900000FB6F894DEBF0FBECDBF6C010E94670426
:100910004B015C01F12CE12C0E94670468197909F4
:100920008A099B096C157D058E059F05A0F40E9420
:100930003E029091990680919A06981729F0CE016F
:1009400001960E941C02F5CF62E070E080E090E02A
:100950000E943504E1CF2D960FB6F894DEBF0FBE8E
:10096000CDBFDF91CF91FF90EF90DF90CF90BF9000
:10097000AF909F908F9008958F929F92AF92BF9269
:10098000CF92DF92EF92FF92CF93DF93EC016B0156
:100990000E9467044B015C01F12CE12C0E9467046A
:1009A000681979098A099B096C157D058E059F05D3
:1009B00050F40E9474038C179D07C1F082E090E010
:1009C0000E947304EBCF0E94740321E0C817D9077B
:1009D00009F020E0822FDF91CF91FF90EF90DF9020
:1009E000CF90BF90AF909F908F90089521E0F2CF6D
:1009F0008F3108F08EE18093A10690919C06992397
:100A000081F00E942D0382E390E00E9473040E9413
:100A100067046093A2067093A3068093A406909344
:100A2000A50608958F929F92AF92BF92DF92EF92A8
:100A3000FF920F931F93CF93DF93D82E162F7A0137
:100A4000E9010E9467044B015C01D11027C0E091CD
:100A5000010681E08E0F8F7190910206891791F047
:100A60009AE0E99FF0011124EF53FB4F1083F282CB
:100A7000E182D483C383058386829782A086B18670
:100A800080930106DF91CF911F910F91FF90EF901E
:100A9000DF90BF90AF909F908F900895E091BF043A
:100AA00081E08E0F68E10E949D238091C004981719
:100AB00049F38AE0E89FF0011124E153FC4F1083D1
:100AC000F282E182D483C383058386829782A086E3
:100AD000B1869093BF04D6CF0F93AB0100E030E016
:100AE00020E0682F80E00E9412050F910895AF92D8
:100AF000BF92CF92DF92EF92FF920F931F93CF930B
:100B0000DF936C017B018B01040F151FEB015E016C
:100B1000AE18BF08C017D10759F06991D601ED9101
:100B2000FC910190F081E02DC6010995892B79F7A0
:100B3000C501DF91CF911F910F91FF90EF90DF9052
:100B4000CF90BF90AF900895FC01538D448D252F19
:100B500030E0842F90E0821B930B541710F0CF9657
:100B6000089501970895FC01918D828D981761F089
:100B7000A28DAE0FBF2FB11D5D968C91928D9F5FA0
:100B80009F73928F90E008958FEF9FEF0895FC017F
:100B9000918D828D981731F0828DE80FF11D858D32
:100BA00090E008958FEF9FEF0895FC01918D228DC5
:100BB000892F90E0805C9F4F821B91098F7399274A
:100BC000089580EA91E00E94D50521E0892B09F47F
:100BD00020E0822F089580E090E0892B29F00E9488
:100BE000E10581110C9400000895FC01A48DA80F6B
:100BF000B92FB11DA35ABF4F2C91848D90E001965F
:100C00008F739927848FA689B7892C93A089B1897E
:100C10008C91837080648C93938D848D981306C01F
:100C20000288F389E02D80818F7D80830895EF9283
:100C3000FF920F931F93CF93DF93EC0181E0888F96
:100C40009B8D8C8D98131AC0E889F989808185FF66
:100C500015C09FB7F894EE89FF896083E889F98908
:100C600080818370806480839FBF81E090E0DF910A
:100C7000CF911F910F91FF90EF900895F62E0B8D5D
:100C800010E00F5F1F4F0F731127E02E8C8D8E1118
:100C90000CC00FB607FCFACFE889F989808185FF7F
:100CA000F5CFCE010E94F505F1CFEB8DEC0FFD2FB6
:100CB000F11DE35AFF4FF0829FB7F8940B8FEA893A
:100CC000FB8980818062CFCF0F931F93CF93DF93F7
:100CD0008C01D0E0C0E0F801EC0FFD1F64916623A9
:100CE00041F080EA91E00E941706892B11F02196CD
:100CF000F2CFCE01DF91CF911F910F910895CF9345
:100D0000DF93EC01888D8823B9F0AA89BB89E88933
:100D1000F9898C9185FD03C0808186FD0DC00FB6D9
:100D200007FCF7CF8C9185FFF2CF808185FFEDCF57
:100D3000CE010E94F505E9CFDF91CF910895209172
:100D40009E0130919F012817390771F490919C0101
:100D500080919D01981741F0E0919C01F0E0ED5BDE
:100D6000FE4F808190E008958FEF9FEF08950895E2
:100D7000EF92FF920F931F93CF93DF93DC015C966A
:100D8000ED90FC905D97E114F10479F481E090E03E
:100D900013969C938E93129790E080E0DF91CF9111
:100DA0001F910F91FF90EF9008955196ED91FC9156
:100DB000529750968C915097982F90950FB75E96BA
:100DC0002C915E97122F127021FD6095F89420816E
:100DD000112319F1282B2083E7012197F1F728E04F
:100DE000462F50E0308160FF1AC0382B3083E70176
:100DF0002197F1F7BA0175956795215089F711236D
:100E000081F08081892380830FBF5C968D919C91B6
:100E10000197F1F781E090E0C1CF2923DCCF39239E
:100E2000E5CF9081892BEFCF20919E0130919F01DA
:100E30002817390761F480919D0120919C0190E071
:100E4000805C9F4F821B91098F739927089590E0D2
:100E500080E0089520919E0130919F012817390765
:100E6000B9F490919C0180919D01981789F0E091CF
:100E70009C01F0E0ED5BFE4F808120919C0130E011
:100E80002F5F3F4F2F73332720939C0190E00895ED
:100E90008FEF9FEF0895E0919E01F0919F01E81779
:100EA000F90769F4A389B4899C9185898095892380
:100EB0008C9310929F0110929E0181E0089580E032
:100EC00008958F929F92AF92BF92EF92FF920F93ED
:100ED0001F93CF93DF93CDB7DEB72D970FB6F8945E
:100EE000DEBF0FBECDBF01E010E0009729F08C01FE
:100EF000CD9710F00CE310E00E94C60380919C0691
:100F0000F12C811119C061E087E00E94980381E013
:100F100080939C066EE571E080E090E00E943504CD
:100F20000E9467046093A2067093A3068093A406B0
:100F30009093A506FF24F39483E096E00E944B076C
:100F400010921E0610921D0610921C0610921B068F
:100F500010921A06109219068DE991E090932006DE
:100F600080931F0680910F06863108F047C02DEB55
:100F700030E030931A06209319062BE931E03093C4
:100F80001C0620931B062CE231E030931E062093B2
:100F90001D062091680094E0883048F031E08E30E2
:100FA00008F430E091E001C0990F3A95EAF7922BEE
:100FB000909368002DE630E0883050F02BE630E06A
:100FC0008E3030F02CE630E0863110F030E020E05A
:100FD0003093170620931606282F30E0883008F04B
:100FE00090C091E001C0990F8A95EAF79093180696
:100FF00080911F06909120060197F1F780911D06C0
:1010000090911E06892B21F180919E0190919F0164
:1010100026E083309207E1F0009711F00E944B0721
:10102000809121068E7F8093210610929D0110925F
:101030009C0183E096E090939F0180939E01E09154
:101040001606F0911706808190911806892B8083EF
:101050006AE070E080E090E00E94350483E096E072
:10106000909323068093220685E08093240681E0F6
:101070008093250660E085E00E94D403109230063C
:1010800010929A0610929906FF2009F4C2C070E0EF
:1010900060E08CE00E94E70280E991E00E94730426
:1010A00062E070E089E00E94E70282E390E00E9443
:1010B00073040E9467044B015C01E12C0E946704E9
:1010C000681979098A099B096C3D7540810591056C
:1010D00060F50E947403019709F43FC00E943E022C
:1010E0009091990680919A069817C1F0CE010196C9
:1010F0000E941C0289818F3311F08A3389F7EF2C0B
:10110000EFCF8E3040F42850310991E001C0990FA3
:101110002A95EAF76BCF2E503109F7CF62E070E0E5
:1011200080E090E00E943504C9CFE11012C080E059
:101130002D960FB6F894DEBF0FBECDBFDF91CF91D5
:101140001F910F91FF90EF90BF90AF909F908F9065
:1011500008950E947403019751F78091A1060E949F
:101160002D0380E590E00E9473048091A1060E9407
:101170002D0380E590E00E94730464EF71E081E04C
:1011800090E00E94BC048091A1060E942D0388E299
:1011900090E00E9473048091A1060E942D0388E2D2
:1011A00090E00E947304B80182E10E94E70288E0A7
:1011B00090E00E94730464E873E090E080E00E9495
:1011C000BC0481112DC070E060E086E10E94E7025E
:1011D0008CE390E00E94730464EF71E081E090E0A2
:1011E0000E94BC04B80182E10E94E70288E090E01E
:1011F0000E94730464E873E090E080E00E94BC0405
:1012000081110EC010929E061092A00610929F06A9
:101210008FCF64EF71E081E090E00E94BC049DCF2D
:101220006CE370E080E090E00E94350480919D06C0
:10123000811107C061E086E00E94980381E08093FD
:101240009D0681E080939E061093A00600939F0662
:101250000E9467046093A2067093A3068093A4067D
:101260009093A50681E064CF90E080E00895089512
:101270008EBD00000DB407FEFDCF8EB50895FF9220
:101280000F931F93CF93DF93C82FF62E172F042FA2
:1012900080E591E00E94190260E0809163020E9463
:1012A000980383E00E9438098C2F0E943809CF2DC3
:1012B000D12F0C0F1D2F111DC017D10729F080E071
:1012C0000E9438098993F8CF61E080916302DF9131
:1012D000CF911F910F91FF900C9498031F93CF9380
:1012E000DF9380E591E00E941902CEE3D2E060E056
:1012F0008DA10E94980380EA0E94380980E00E9434
:101300003809182F61E08DA10E949803812FDF9189
:10131000CF911F910895FF920F931F93CF93DF9367
:10132000EC01F62E042F122F80E591E00E941902A5
:1013300060E08A890E94980385E00E9438098F2D19
:101340000E943809802F0E943809812F0E94380995
:1013500061E08A89DF91CF911F910F91FF900C94EA
:101360009803DF92EF92FF920F931F93CF93DF9337
:101370007C01C62FD42E152F022F80E591E00E940C
:10138000190260E0F70182890E94980382E00E94BE
:1013900038098C2F0E943809CD2DD12F0C0F1D2F0D
:1013A000111DC017D10721F089910E943809F9CF8A
:1013B00061E0F7018289DF91CF911F910F91FF903A
:1013C000EF90DF900C949803CF93DF9300D000D080
:1013D000CDB7DEB7E32FFF272C83EB83613099F481
:1013E00098E09A83198224E0AE014F5F5F4F682F27
:1013F00081E592E00E94B1090F900F900F900F903D
:10140000DF91CF9108951A82EDCF0F931F93CF9361
:10141000DF93EC01062F142F80E591E00E94190262
:1014200060E08A890E94980382E00E943809802F38
:101430000E943809812F0E94380961E08A89DF9172
:10144000CF911F910F910C9498031F93CF93DF932B
:10145000EC01162F80E591E00E94190260E08A8974
:101460000E94980383E00E943809812F0E94380966
:1014700080E00E943809182F61E08A890E94980351
:10148000812FDF91CF911F910895CF93DF93C82FC4
:101490000E946704D62F2C2F40EE6FE081E592E08A
:1014A0000E948B096EE081E592E00E94250A807E11
:1014B000C81749F00E9467046D1B693C60F381E026
:1014C000DF91CF91089580E0FBCFCF93DF93C82FBA
:1014D0006EE081E592E00E94250A807E803239F537
:1014E000C03229F16BE281E592E00E94250AD82FF3
:1014F000D07486FD07C020E440E46BE281E592E011
:101500000E948B0920E440E46CE281E592E00E94B5
:101510008B0980E60E94450A811115C0D11107C0D0
:1015200020E040E46BE281E592E00E948B0920E03C
:1015300040E46CE281E592E00E948B098C2FDF9100
:10154000CF910C94450A81E0DF91CF9108950F93DC
:101550001F93CF93DF9300D000D0CDB7DEB7182F05
:1015600010925102109252021092530210925402A1
:101570001092550244E0BE016F5F7F4F0E943F0909
:101580002A81898138E0839FC0011124422F50E0D5
:1015900065E0559547956A95E1F7840F951F092EEB
:1015A000000CAA0BBB0B8093520290935302A093A2
:1015B0005402B093550223FF29C032E0880F991FCF
:1015C000AA1FBB1F3A95D1F72370820F911DA11D51
:1015D000B11DBA2FA92F982F88272B81820F911D1B
:1015E000A11DB11DBA2FA92F982F88272C81820FFA
:1015F000911DA11DB11D8093520290935302A0939F
:101600005402B093550281E0809351026FEF610F55
:1016100081E592E00E94250A082F64E0610F81E5D0
:1016200092E00E94250A03FF16C091E090935F02AA
:10163000482F4F704093560267E572E085E0810FB6
:101640000E943F090F900F900F900F90DF91CF9164
:101650001F910F91089510925F02EACFCF93CFB7F9
:10166000F89480914201811127C0ECEBF3E0849162
:10167000E0EDF3E09491E82FF0E0EE0FFF1FE65D60
:10168000FD4FA591B491EC91E92321F461E08AE04A
:101690000E94980361E08AE00E94D4038CB58061C7
:1016A0008CBD8CB580648CBD61E08DE00E94D4035C
:1016B00061E08BE00E94D403809142018F5F8093B0
:1016C0004201CFBFCF910895CF92DF92EF92FF9268
:1016D0000F934617B9F1DC0112966D917C91139727
:1016E000ED91FC91C080D180E280F3804111022F06
:1016F000FB01EC5EFE4F208130E0C901019687704E
:101700009927DB01AB5EBE4F4C91481306C0AC017C
:101710004F5F5F4F477055274C9395E0929FA00114
:10172000939F500D1124640F751FDB01A451BF4F0F
:101730000C9363517F4FDB01CD92DD92ED92FC92D1
:10174000139780830F91FF90EF90DF90CF900895D3
:101750002F923F924F925F926F927F928F929F92C1
:10176000AF92BF92CF92DF92EF92FF920F931F93AF
:10177000CF93DF93CDB7DEB768970FB6F894DEBF8F
:101780000FBECDBF8C01B62E7D8BE42E22E0288BC0
:101790001E0183E0280E311C6C8B92E0940F9B8B12
:1017A000D8011E96BA8BA98B80900A0190900B01EC
:1017B000A0900C01FE013C96FE87ED87D101E6E08A
:1017C0001D92EA95E9F7F0E6F983EA82D101EB2D63
:1017D000FD8981918D938E2F2C89821B8E15C8F3E4
:1017E00081EF96E0A0E0B0E0F80181839283A383CB
:1017F000B483168610822B892583DE0111963696D6
:10180000EF87FE8B8D91819389899A898E179F0727
:10181000C9F70E9410042B013C0189869A86AB8689
:101820006E0199E0C90ED11CCF8AD88ED601FD90E9
:101830006D016F2DC8010E94250A83FD37C0F39406
:10184000D12C0E941004DC01CB0184199509A60952
:10185000B709F2E0DF1234C0843C9940A105B1051C
:10186000E0F26EE170E080E090E00E9435042889AB
:101870002130C9F468960FB6F894DEBF0FBECDBF15
:10188000DF91CF911F910F91FF90EF90DF90CF905C
:10189000BF90AF909F908F907F906F905F904F9090
:1018A0003F902F900895F1E0F88B88CFED85FE856D
:1018B000EC15FD0509F0BACFF12C42E0D42EC1CFD2
:1018C000843C9940A105B10560F6D80115962C918C
:1018D0004F855E8965E06F0DC8010E94B109F8016E
:1018E0008685813019F4858180648583D8011596B9
:1018F0004C9164E06F0DC8010E94050AF8018181D6
:101900009281A381B48120812130D1F58C879B877E
:10191000CD01AA27BB27282F23702860382F330F2B
:10192000330F330F307E232B2A8735E0969587952A
:101930003A95E1F7898724E04F89588D6F2DC801CA
:101940000E94B109FA9428E048E06F2DC8010E9476
:101950008B090E9410042B013C016F2DC8010E94CD
:10196000250AD82E0E941004641975098609970962
:10197000D3FE77CF643C79408105910570F371CF38
:101980009C0193E0369527959A95E1F729878295F2
:10199000880F807E8A871C861B86CDCF0F931F936E
:1019A000CF93DF9300D000D01F92CDB7DEB78C016C
:1019B000FC01E952FF4F20813181AAE6B0E00E948C
:1019C0008E23625C7F4F8F4F9F4F2DE730E040E0CA
:1019D00050E00E946C2380E3898381E28A8386E061
:1019E0008B833C832D8345E0BE016F5F7F4FC80131
:1019F0000E94A80B0F900F900F900F900F90DF9107
:101A0000CF911F910F9108950F931F93CF93DF9361
:101A100000D000D01F92CDB7DEB78C01FC01EB5295
:101A2000FF4F20813181A1EFB6E00E948E236E5CD2
:101A30007F4F8F4F9F4F24E630E040E050E00E9400
:101A40006C2380E3898380E28A8386E08B833C83F6
:101A50002D8345E0BE016F5F7F4FC8010E94A80B38
:101A60000F900F900F900F900F90DF91CF911F91DB
:101A70000F910895FC0101900020E9F73197AF0123
:101A8000481B590BBC0180EA91E00C947705CF9379
:101A9000DF930E946406EC0187E391E00E943A0D17
:101AA0008C0F9D1FDF91CF910895CF92DF92EF921F
:101AB000FF92CF93DF93C82F6A017B0186E893E002
:101AC0000E94470D80E80E94650AD82F82E693E0C5
:101AD000D1111CC0C330B9F118F5C13051F1C23079
:101AE00069F1A701960160E080E00E94E40980911D
:101AF00064020E94650AD82F8BE093E0DD2331F069
:101B000080E493E00E94470D86E293E00E94470D37
:101B10008D2FDF91CF91FF90EF90DF90CF900895C0
:101B2000C430B1F0C530E9F6A701960160E088E164
:101B3000DCCFA701960160E084E0D7CFA701960132
:101B400060E088E0D2CFA701960160E080E1CDCFD0
:101B5000A701960160E084E1C8CFCF93DF93D82F2F
:101B600085EF92E00E94470D80E80E94650AC82F29
:101B70008EEC92E0C11119C02FEF37E040E050E049
:101B800060E080E2D11184E20E94E4098091640265
:101B90000E94650AC82F8BE792E0CC2331F08CEAD3
:101BA00092E00E94470D84E992E00E94470D8C2F3D
:101BB000DF91CF910895CF93C82F61E089E00E9413
:101BC000D4036C2F89E00E9498038EE592E00E9476
:101BD000640685E592E0CC2311F089E592E0CF918F
:101BE0000C94470D0C94470D8F929F92AF92BF9229
:101BF0000F931F93CF93DF93CDB7DEB7A1970FB6A7
:101C0000F894DEBF0FBECDBF19A2423008F44AE0FF
:101C10008E010F5D1F4F842E912CB12CA12CA5019C
:101C200094010E946C23E62FB901CA01EA30F4F452
:101C3000E05DD801EE938D01232B242B252B79F722
:101C400090E080E0109719F0CD010E943A0DA19626
:101C50000FB6F894DEBF0FBECDBFDF91CF911F91BD
:101C60000F91BF90AF909F908F900895E95CE1CF66
:101C700080919C06882379F070E060E086E10E9404
:101C8000E70284E190E00E94730464EF71E081E078
:101C900090E00E94BC0410929E061092A006109242
:101CA0009F060E9467046093A2067093A306809328
:101CB000A4069093A50660E570E080E090E00E94A5
:101CC00035040C94C6038091B8038823D9F0809121
:101CD00050028130B9F080919E06882341F08091B6
:101CE0009F069091A006029769F00E94380E82E04C
:101CF00090E00E94610782E08093500284E392E0CA
:101D00000C94F20D0895CF93DF93EC0180919E0621
:101D100081110E94380ECE010E94610782E08093FB
:101D200050028CE492E00E946406BE0190E080E0E4
:101D30004AE00E94F40D87E391E0DF91CF910C948B
:101D40003A0DCF93DF93682F70E090E080E04AE097
:101D50000E94F40DEC0187E391E00E943A0D8C0F94
:101D60009D1FDF91CF910895FC01808191810097A3
:101D700011F00C941925089585E991E00C94B40EA6
:101D80000F931F93CF93DF93EC0188819981009784
:101D900059F02A813B812617370730F081E0DF9127
:101DA000CF911F910F9108958B016F5F7F4F0E941C
:101DB000A225009759F0998388831B830A832C817D
:101DC0003D81232B59F7FC011082E8CF80E0E7CF5B
:101DD000CF93DF93EC01198218821B821A821D8235
:101DE0001C8270E060E00E94C00E28813981811160
:101DF0000FC02115310519F0C9010E94192519825A
:101E000018821D821C821B821A82DF91CF91089555
:101E10001D821C8269E371E0C901DF91CF910C94AE
:101E20006826CF93DF93EC0170E060E00E94C00E63
:101E30002881398181110FC02115310519F0C9019F
:101E40000E941925198218821D821C821B821A8207
:101E5000DF91CF9108951D821C8269E371E0C90171
:101E6000DF91CF910C946826EF92FF920F931F930E
:101E7000CF93DF9300D0CDB7DEB78C0169831A8290
:101E8000FC01E480F580FFEFEF1AFF0AB7010E9422
:101E9000C00E882381F0F8012081318184819581F1
:101EA000BE016F5F7F4F820F931F0E946826F8016B
:101EB000F582E48281E00F900F90DF91CF911F9126
:101EC0000F91FF90EF9008951F920F920FB60F920F
:101ED00011242F933F938F939F93AF93BF93809140
:101EE0008D0190918E01A0918F01B0919001309160
:101EF0008C0123E0230F2D3758F50196A11DB11D4C
:101F000020938C0180938D0190938E01A0938F017B
:101F1000B09390018091910190919201A0919301D1
:101F2000B09194010196A11DB11D809391019093F0
:101F30009201A0939301B0939401BF91AF919F91AF
:101F40008F913F912F910F900FBE0F901F9018957A
:101F500026E8230F0296A11DB11DD2CF1F920F922A
:101F60000FB60F9211242F933F934F935F936F936C
:101F70007F938F939F93AF93BF93EF93FF9380EAE9
:101F800091E00E94F505FF91EF91BF91AF919F9174
:101F90008F917F916F915F914F913F912F910F9012
:101FA0000FBE0F901F9018951F920F920FB60F92B1
:101FB00011242F938F939F93EF93FF93E091B001A0
:101FC000F091B1018081E091B601F091B70182FDFD
:101FD0001BC090818091B9018F5F8F732091BA01EE
:101FE000821741F0E091B901F0E0E056FE4F958F85
:101FF0008093B901FF91EF919F918F912F910F9055
:102000000FBE0F901F9018958081F4CF1F920F92F2
:102010000FB60F9211242F933F934F935F936F93BB
:102020007F938F939F93AF93BF93EF93FF93E09131
:102030009E01F0919F01309749F0A685B78585856F
:10204000968D91FF14C09C918923A1F4FF91EF918B
:10205000BF91AF919F918F917F916F915F914F91C0
:102060003F912F910F900FBE0F901F9018959C914C
:10207000892361F7A389B4899C91858980958923F7
:102080008C93868997890197F1F7608D718DA6856C
:10209000B785558538E020E0CB010197F1F7822F15
:1020A00090E095958795282F4C91452309F020685D
:1020B000315091F7868D81FD209580919D0190E0B2
:1020C00001968F73992730919C01381799F0A09150
:1020D0009D01B0E0AD5BBE4F2C9380939D01828D3E
:1020E000938D0197F1F7A389B4898C919589892BF8
:1020F0008C93ACCF868D8160868FF1CFCF93109279
:10210000A3011092A20188EE93E0A0E0B0E08093DA
:10211000A4019093A501A093A601B093A70187E124
:1021200091E09093A1018093A00185EC90E09093C1
:10213000AD018093AC0184EC90E09093AF0180936B
:10214000AE0180EC90E09093B1018093B00181ECFE
:1021500090E09093B3018093B20182EC90E0909371
:10216000B5018093B40186EC90E09093B701809321
:10217000B6011092B9011092BA011092BB011092EF
:10218000BC0110924E0210924F0210925002CAE00F
:10219000C093630261E08AE00E94980361E080914D
:1021A00063020E94D4038DE392E0909362028093D5
:1021B000610210921903C0931A038CE291E090938C
:1021C0001C0380931B0310921D038FEF80931E034B
:1021D00091E090931F03109220031092210310921C
:1021E000220310922303109224031092250324E06B
:1021F00031E030932703209326032CE735E1309319
:102200002903209328032CE130E030932B03209303
:102210002A0323E230E030932D0320932C0328EE91
:1022200033E030932F0320932E0320EA3FE03093D6
:102230003103209330031092320310923303109233
:1022400034031092350310923603E7E3F3E026E0FF
:10225000DF011D922A95E9F710926503109266033B
:102260009093670310927C0310927D0310929C035D
:1022700010929D032AEF30E030939F0320939E033A
:102280001092A0031092A1031092A2031092A30334
:102290008093A4038093A5031092A6031092A70332
:1022A0001092A8031092A9031092AA0380E090E074
:1022B000A0ECBFE78093AB039093AC03A093AD0376
:1022C000B093AE031092AF03EEE3F2E082EF92E040
:1022D00010AE72968E179F07D9F71092B003109226
:1022E000B10361E06093B20380E090E0A0ECBFE74F
:1022F0008093B3039093B403A093B503B093B60354
:102300001092B7031092B8031092B9031092BA0357
:102310001092BB031092BC038DEC9CECACE3B1E4D7
:102320008093BD039093BE03A093BF03B093C003FB
:102330001092C1031092C2031092C3031092C403FF
:102340001092C5031092C6031092C7031092C803DF
:102350001092C9031092CA031092CB031092CD03BE
:102360001092CC031092CE031092BF041092C004BE
:1023700010920106109202061092060610920506AF
:1023800088EE93E0A0E0B0E0809307069093080603
:10239000A0930906B0930A0689E291E0909304069F
:1023A0008093030610921A061092190610921C06CA
:1023B00010921B0610921E0610921D061092200607
:1023C00010921F06809121068E7F8D7F80932106BB
:1023D00086958170682783E00E94980361E083E01E
:1023E0000E94D403E9ECF3E0E491E0931306E5EBFB
:1023F000F3E0E491F0E0EE0FFF1FE855FC4F85910C
:102400009491909315068093140660E084E00E94F6
:10241000D4038091210681FD04C061E084E00E9424
:10242000980384E080930F06EAECF3E0E491E093F4
:102430001006E6EBF3E0E491F0E0EE0FFF1FE2564A
:10244000FC4F8591949190931206809311061092FF
:102450002306109222068FEF8093240681E080935A
:102460002506109230061092990610929A06109244
:102470009B0610929C0610929D0610929E0610924A
:10248000A00610929F068CE08093A1061092A206EF
:102490001092A3061092A4061092A5061092A6060A
:1024A0001092A706CF910895CF93DF93CDB7DEB7F3
:1024B000AA970FB6F894DEBF0FBECDBF789484B54F
:1024C000826084BD84B5816084BD85B5826085BD30
:1024D00085B5816085BD80916E00816080936E00BE
:1024E00010928100809181008260809381008091B0
:1024F0008100816080938100809180008160809361
:1025000080008091B10084608093B1008091B00020
:1025100081608093B00080917A00846080937A001B
:1025200080917A00826080937A0080917A00816045
:1025300080937A0080917A00806880937A0010926C
:10254000C100E091B001F091B10182E08083E0919F
:10255000AC01F091AD011082E091AE01F091AF01BC
:1025600080E180831092B801E091B401F091B5014F
:1025700086E08083E091B201F091B30180818061B7
:102580008083E091B201F091B30180818860808303
:10259000E091B201F091B301808180688083E09185
:1025A000B201F091B30180818F7D808364E670E099
:1025B00080E090E00E94350487E291E00E94F20DF5
:1025C00061E08AE00E94D40361E08AE00E949803FF
:1025D0000E942E0B0E942E0B80E591E00E941902B2
:1025E00060E0809163020E94980380EC0E943809A9
:1025F00061E0809163020E94980365E070E080E0F2
:1026000090E00E94350480E48093640280E80E9498
:10261000650A882379F083ED90E00E94470D85E1FB
:1026200091E00E94F20D68EE73E080E090E00E947D
:102630003504F9CF8BEA90E00E94470D41E86AE249
:1026400081E592E00E94050A46EF69E281E592E0A9
:102650000E94050A44E868E281E592E00E94050ACA
:102660008EE890E00E94470D20E030E0A90161E093
:1026700080E20E94E40920E030E0A90161E084E208
:102680000E94E40920E030E0A90161E080E00E94BE
:10269000E40920E030E0A90160E084E00E94E40960
:1026A00020E030E0A90161E088E00E94E40920E038
:1026B00030E0A90160E080E10E94E40920E030E020
:1026C000A90161E084E10E94E40920E030E0A90171
:1026D00060E088E10E94E40910E340E0612F81E5B9
:1026E00092E00E94050A60E1610F40E081E592E01E
:1026F0000E94050A60E2610F40E081E592E00E94DD
:10270000050A1F5F1E3349F740E060E681E592E06D
:102710000E94050A40E060E781E592E00E94050A18
:1027200043E06BE281E592E00E94050A4CE36CE035
:1027300081E592E00E94050A40E06DE081E592E0CB
:102740000E94050A24E644E660E681E592E00E94E4
:102750008B0920E640E660E781E592E00E948B0964
:10276000809164020E94650A882311F40C94641F0E
:1027700088E690E052CF8A3011F40C944620682FFE
:1027800085E991E00E94340F4091990150919A019E
:102790004932510510F40C942D20BA016852710988
:1027A0004617570708F4BA01809195019091960158
:1027B000461B570B50939A0140939901680F791F5C
:1027C0000E946F26E0919501F09196018091990108
:1027D00090919A01E80FF91F10820C942D20750139
:1027E00057012FEFA21AB20AD7018C91082E000CC4
:1027F000990B0E94D321892B91F7015011090C0DDF
:102800001D1DF8018081082E000C990B0E94D32118
:10281000892B31F00E151F0518F001501109F1CF69
:102820000F5F1F4FA8014E195F0950939A01409303
:102830009901CE14DF0420F4B701C6010E945F267F
:10284000E0919501F09196018091990190919A0102
:10285000E80FF91F10820C945720603211F40C9489
:102860008820CE0101960E94110F8D819E81CC247B
:10287000CA94DC2C7601892B59F089819A81C12C6C
:10288000D12C7601009721F00E9497216B017C01E9
:10289000D701C6010197A109B109CC97A105B105DE
:1028A00040F480919E0681110E94380EC6010E945C
:1028B0006107CE0101960E94B40E3DC08635D9F560
:1028C0008091990190919A01029729F18091990143
:1028D00090919A010297A9F1CE0101960E94E80E0B
:1028E00001E010E08091990190919A010817190771
:1028F00008F05FC0C8010E943503DC016C9180EDD7
:10290000860F8A3008F04EC0CE0101960E94340F27
:102910000F5F1F4FE7CF81E090E00E943503DC019D
:102920008C918F3399F682EB91E00E94640680913E
:10293000A1060E94A10E85E991E00E94110F0C945E
:102940002D2081E090E00E943503FC0180818B32D4
:10295000A9F48091A106082F10E081E090E00E9488
:102960003503DC018C918B3291F40F5F1F4FC8014E
:102970000F31110594F08EE190E00FC081E090E0FE
:102980000E943503FC0180818D3219F3A5CF0150DF
:10299000110980E00F3F100751F70E94F80484EA04
:1029A00091E0C3CF603209F4B3CFCE0101960E940B
:1029B000110F8D819E81892BC1F089819A810097A9
:1029C000C1F00E9497216F3171058105910508F0D2
:1029D00070CF862F0E94F80482E991E00E9464067D
:1029E0008091A1060E94A10E64CF6FEF7FEFCB0113
:1029F000EACF60E070E0CB01E6CF015009F0ACC354
:102A000005E011E030919C0380919D0383136BC618
:102A100045E0F42E01E080916603909165038917EB
:102A200009F485C68F9DF0011124E35CFC4F1081F1
:102A300090E001968770992780936603112309F42B
:102A4000D1C6123011F40C94E520812F8D7F843093
:102A500011F0883001F78091C403882309F4E6C699
:102A6000112309F4E5C60093C503D5CF81FFC8CF74
:102A700081E70E94A70A20E042E07CC3DC014D917F
:102A8000CD01DB014D93BD01B7C38091190392E1E4
:102A9000989FF0011124E25CFD4F47A250A661A669
:102AA00072A613A744AB55AB66AB77AB21E020AF62
:102AB000899FA001112430E020E0211788F42830FC
:102AC000310571F0E9A5FAA59191FAA7E9A7FA01F4
:102AD000E20FF31FE25CFD4F94A72F5F3F4FEDCF56
:102AE0008F5F8A3010F40C94E120109219030E9439
:102AF00067046B017C0100E3401601E050066104AD
:102B0000710409F0BAC0112321F19E8580911E0342
:102B1000981390931E03892F8C7039F480912003B1
:102B20008823A9F080E090FF12C080911D038111DD
:102B30000EC081E0809321030E946704609322030A
:102B400070932303809324039093250381E0809363
:102B50001D03F0901D03F092B003809167038093F2
:102B6000B20386E0E7E3F3E0DE01569601900D92B2
:102B70008A95E1F78E898093B1038091AF03882312
:102B800011F16091AB037091AC038091AD03909112
:102B9000AE036093B3037093B4038093B503909333
:102BA000B6032091BD033091BE034091BF03509105
:102BB000C0030E94DC21881F8827881F9091B703DB
:102BC00089138093B70308E3401603E050066104BD
:102BD000710409F01CC5183008F4BDC28B898E3F02
:102BE00009F0B9C28C898E3F09F0B5C28D898E3F3C
:102BF00009F0B1C22E853F858889823009F0EBC487
:102C00008091CC039091CD032817390709F098C122
:102C100081E09091CE03923009F480E03093CD03AF
:102C20002093CC0392E09093CE0391E09093BC0369
:102C3000882309F490C22E32310541F02B3531053D
:102C400029F0C90185589140029718F481E08093DA
:102C5000B803233111E0310729F02E3141E0340768
:102C600009F073C1F1106EC181E0203811E0310725
:102C700009F080E043E150E06AC2FCEF4F16F2E059
:102C80005F066104710409F068C0133008F461CF75
:102C9000CC8EDD8EEE8EFF8E8F85082F0170802EFC
:102CA00082FB992490F884FBCC24C0F886FBFF2497
:102CB000F0F88889282F2170D22E82FBEE24E0F8CC
:102CC0004CE150E04C0F5D1F5A83498381E592E04F
:102CD0009C838B8301E020E0482D609137038B2D8E
:102CE0009A2D0E94640B03E022E0492D6091380385
:102CF0008B2D9A2D0E94640B05E024E04C2D6091F1
:102D000039038B2D9A2D0E94640B07E026E04F2D8E
:102D100060913A038B2D9A2D0E94640B09E028E004
:102D20004D2D60913B038B2D9A2D0E94640B0BE07F
:102D30002AE04E2D60913C038B2D9A2D0E94640B4E
:102D40008092370390923803C0923903F0923A038D
:102D5000D0923B03E0923C03FCCE54EB451651E08D
:102D600055066104710409F03DC0163008F4F1CE37
:102D70009B8981E0292F227091FF80E09091670369
:102D8000891709F4E6CE8093670361E0211160E0C2
:102D900040917C0350E09A012F5F3F4F237033270F
:102DA00080917D03821306C0C90101968370992723
:102DB00080937D0335E0349FC001359F900D112431
:102DC000825C9D4FFC01E65DFE4F6083885E9E4FF6
:102DD000DC015396CD92DD92ED92FC9256972093B2
:102DE0007C03B7CEBAE34B16B2E05B066104710414
:102DF00009F07DC0133008F4ACCE28893091A403CB
:102E000023131AC08091A0039091A103A091A20363
:102E1000B091A303B701A601481B590B6A0B7B0BAA
:102E200080919E0390919F03B0E0A0E0481759075E
:102E30006A077B0708F48DCE213009F44DC0243099
:102E400009F44CC0203409F44BC0231709F481CE97
:102E500033E0E0919C03F0E0CF010196B1010E94C4
:102E6000A9235C0180919D038A1107C0C5010196C9
:102E7000B1010E94A92380939D0345E04E9FC001AC
:102E80004F9F900D1124825C9D4FFC01E05CFE4F32
:102E90003083825D9E4FFC01C38AD48AE58AF68A1C
:102EA000A0929C032093A403C092A003D092A103FC
:102EB000E092A203F092A303311114C082E0809348
:102EC000A6032093A503C092A703D092A803E09283
:102ED000A903F092AA033DCE30E0BBCF31E0B9CFD9
:102EE00032E0B7CF313069F73093A603EACFF4EB85
:102EF0004F16F3E05F066104710409F02ACE133027
:102F000008F427CE6F8570E0762F662766277F70DE
:102F10008E85682B90E080E00E94E12124E031EF73
:102F200040E75CE30E9442226093AB037093AC03E2
:102F30008093AD039093AE0381E08093AF0309CEFD
:102F400081E06CCE81E08093CB032E31310509F412
:102F50002FC32132310509F42BC32732310509F47F
:102F600027C3243D310509F423C32B3A51E035072B
:102F700009F41EC3213C83E0380709F419C3283340
:102F800092E0390709F414C32130320709F414C35D
:102F90002F36B1E03B0709F40FC32A34310509F499
:102FA0000DC32E32310509F414C32B35310509F454
:102FB00010C3C90185589140029708F40AC32E3006
:102FC000310509F4D3C22F30310509F4D3C22031C1
:102FD000310509F4BBC22131310509F4BBC22231EC
:102FE000310509F4BFC22331310509F4B7C2C90163
:102FF0008D7F8D31910509F4D7C22133310509F454
:10300000D3C2283D310509F4CFC2253D310509F46D
:10301000D1C22332310509F4D5C2A9014C5E510950
:103020004230510508F4CEC22E37E1E03E0709F4E4
:10303000C9C2263A310509F49FC28033914009F490
:103040009FC2253E310509F49BC22C3D310509F490
:1030500097C22F3901E0300709F492C22B383105AD
:1030600009F490C22F38310509F490C22C3831058B
:1030700009F48EC22D38310509F48EC2203612E0D3
:10308000310709F47FC2213642E0340709F47EC2D9
:10309000223652E0350709F47BC2233682E0380736
:1030A00009F47AC281E02E38310509F477C229305B
:1030B00091E0390709F475C22F33310509F4EDC1E8
:1030C0002038A1E03A0709F080E042E250E0263BD8
:1030D0003105E9F108F044C12133310509F465C235
:1030E00008F0D3C02D31310508F09EC04FE150E00B
:1030F0002B31310560F52031310509F428C2C0F4C7
:1031000045E150E02D30310511F140F447E150E048
:1031100021153105E1F04EE050E019C02E303105A7
:1031200009F425C22F303105B1F74CE050E00FC053
:103130002231310509F417C208F40DC223313105DB
:1031400009F40DC248E050E02931310521F7082F7C
:1031500060E00E94120506E00E946E09837009F487
:103160004FCC0E946E0980FF81CC81E60E94A70AA5
:1031700020E041E06CE281E592E00E948B098091C1
:103180005102882389F08091520290915302A091BC
:103190005402B0915502B06880935202909353024A
:1031A000A0935402B093550280915F02882389F066
:1031B0008091520290915302A0915402B091550215
:1031C000B0648093520290935302A0935402B09340
:1031D00055024090520250905302609054027090F9
:1031E00055021091560287E592E0FE013196BF012B
:1031F000BE2EAF2E212F30E0AB014E1B5F0B4217CE
:1032000053070CF43BCC9E01225F3F4F3AA729A7FE
:10321000D90180E0811709F47EC7883009F47BC7A3
:1032200091919D938F5FF6CF2132310509F442C110
:1032300088F42E31310509F43DC108F4B6C12F31AF
:10324000310509F4B2C147E050E02032310509F4FC
:103250007ECF61CF2632310509F4A7C058F423325E
:10326000310509F4B0C149E250E02432310509F4D6
:103270006ECF51CF2732310509F41CC12E323105F2
:1032800009F049CF42E050E062CF40E150E0213701
:10329000310509F45CCFA8F52A34310509F48FC152
:1032A000C8F42234310509F480C038F445E050E018
:1032B0002733310509F44BCF2ECF43E350E02334BD
:1032C000310509F444CF46E250E02734310509F4D2
:1032D0003ECF21CF2A35310550F42735310570F422
:1032E0002F34310509F017CF4BE250E030CF2B35AA
:1032F000310541F22F36310509F00DCF48E150E09C
:1033000026CF2E38310509F449C180F42B38310518
:1033100009F439C198F32C38310509F43AC12D3834
:10332000310509F0F8CE4CE150E011CF253A3105D6
:10333000D9F258F42F38310509F4D7C042E150E0F2
:10334000243A310509F403CFE6CE263A310509F4D3
:1033500014C144E150E0273A310509F4F8CEDBCE40
:103360002F36B1E03B0709F448C008F06DC02E3E8F
:103370003105A0F52C3E310508F025C1243D31056D
:1033800009F498C0A8F4263C310558F4243C3105D2
:1033900008F0B4CF48E250E0283B310509F4D7CE1D
:1033A000BACE2D3C310509F0B6CE46E050E0CFCE86
:1033B000283D310509F4F9C038F4253D310509F0FF
:1033C000AACE43E250E0C3CE2C3D310521F0253E8C
:1033D000310509F0A0CE46E150E0B9CE2C31F1E044
:1033E0003F07C1F0D0F4293011E0310709F4D9C00A
:1033F00038F42130320709F08ECE44E250E0A7CEF7
:10340000233191E0390709F435CC2931A1E03A079D
:1034100009F081CE4CE250E09ACE2233B1E03B0776
:10342000D1F250F42E31F1E03F0709F423CC2033E0
:1034300001E0300781F26FCEA90149555140423079
:10344000510508F45BCF67CE283312E0310791F1C4
:10345000A0F52E3751E0350709F4B5C080F42337C5
:10346000A1E03A0708F457CE2637B1E03B0708F44D
:1034700045CF2A37E1E03E0708F040CF4CCE273851
:10348000F1E03F0768F4253801E0300708F0FACE94
:10349000203811E0310709F03ECE45E250E057CE2A
:1034A0002F3941E0340709F496CF2B3A51E0350724
:1034B00009F031CE41E250E04ACE4DE250E0293EE3
:1034C00093E0390709F443CEE8F42236B2E03B0733
:1034D00009F45FC068F42036F2E03F0709F453C0F6
:1034E000213602E0300709F016CE4AE150E02FCE37
:1034F000233612E0310709F416CF213C43E03407AC
:10350000C9F209CE2C3E53E0350709F45FC078F4C8
:103510004EE250E02A3EA3E03A0709F418CE4FE20B
:1035200050E02B3EB3E03B0709F411CEF4CD41E36C
:1035300050E02D3EE3E03E0709F409CE42E350E0BF
:103540002E3EF3E03F0709F402CEE5CD82E043E0F2
:1035500050E0FDCD82E044E050E0F9CD82E049E06A
:1035600050E0F5CD82E04AE050E0F1CD82E04BE062
:1035700050E0EDCD82E0D9CD81E041E150E0E7CDF2
:1035800081E029CF81E049E150E0E1CD81E0ADCF9C
:1035900081E04BE150E0DBCD81E0C5CE4DE150E074
:1035A000D6CD4EE150E0D3CD81E040E250E0CFCD2A
:1035B00083E080CF81E005CF83E01FCF83E047E247
:1035C00050E0C5CD81E04AE250E0C1CD40E350E09B
:1035D000BECD82E057CE813009F0BDCD4091CC0305
:1035E0005091CD032417350711F48093CE032E326A
:1035F000310541F02B35310529F025583140223075
:10360000310510F41092B8031092BC03A4CD05E16B
:10361000401603E0500661047104B9F4123008F456
:103620009ACD8F85823F41F481E08093B90364E3B2
:1036300070E00E946C058FCD813F09F08CCD109217
:10364000B90365E370E082E0F4CF20E3421621E0A5
:1036500052066104710409F07ECD112309F47BCD7B
:10366000FF2089F08091C103811108C06DE070E0F6
:1036700083E00E946C0581E08093C1038091C203C6
:1036800080931F0305C01092C10381E08093C203A1
:103690008091C3038823F1F0F11019C08091CB030E
:1036A000882329F081E08093BB031092CB0381E053
:1036B0008093CA0380916703811109C002E030E062
:1036C00020E042E350E064E082E00E941205F092C4
:1036D000C30341CDFF20D9F31092BB031092CA035C
:1036E0001092BA03F4CF809FF0011124E258FC4FEE
:1036F000208190E00196B1010E94A92380939D034F
:10370000211182C91093C4031092C5030E9467045B
:1037100060547B428E4F9F4F6093C6037093C703E4
:103720008093C8039093C9031092BA036BC9809128
:10373000C4038111CAC080911F03882309F45EC1AC
:103740000E9467046B017C01809121038823F1F1C1
:1037500080911D038823D1F180912203909123034E
:10376000A0912403B0912503B701A601481B590B72
:103770006A0B7B0B8091300390913103B0E0A0E0A5
:10378000481759076A077B0708F11092210381E067
:103790008093320320912C0330912D0380912A03D2
:1037A00090912B032817390708F4C9019701860166
:1037B000080F191F211D311DD901C8018093330342
:1037C00090933403A0933503B09336038091320372
:1037D000882309F413C190911D0391118DC010929B
:1037E00032030CC18091C403882309F434C9809149
:1037F000C503882351F061E070E086E00E946C050B
:103800001092C4031092C50306C90E9467048090F9
:10381000C6039090C703A090C803B090C90368196D
:1038200079098A099B0997FDE6CF15C91111F3C8DB
:103830008091B00381110BC08091BB03882339F0C4
:103840006DE270E085E00E946C051092BB038091F0
:10385000B0038111E0C88091CA03882309F4DBC852
:103860008091BC038111D7C88091BB038111D3C85B
:103870008091BA038823A1F00E943F2122E030E02A
:1038800040E050E00E940323672B682B692BB9F4BA
:1038900060E370E087E00E946C051092CA03BBC829
:1038A0000E943F2122E030E040E050E00E940323EC
:1038B000672B682B692B31F46EE270E0EBCF61E38C
:1038C00070E0E8CF6FE270E0E5CF8091C503811131
:1038D00032CF0E9467040091C6031091C703209164
:1038E000C8033091C903601B710B820B930B97FDCA
:1038F00022CF1092C4031FCF409133035091340361
:10390000609135037091360397018601041B150BF6
:10391000260B370BB901A80177FD70C0833009F47D
:10392000ADC040F5813009F440C0823009F057CF76
:1039300020912A0330912B0380912C0390912D0329
:103940008217930708F495C081E592E00E94CE0C9F
:1039500080912E0390912F03C80ED91EE11CF11CFB
:10396000C0923303D0923403E0923503F0923603D1
:1039700083E042C0843009F49BC0853009F02FCF2A
:1039800020912A0330912B0380912C0390912D03D9
:1039900043E06DE071E08217930710F460E171E09D
:1039A00081E592E00E94A80B1ACF20912A03309162
:1039B0002B0380912C0390912D038217930708F419
:1039C0004BC081E592E00E94040D80912C03909100
:1039D0002D0320912A0330912B03821B930BC80ED9
:1039E000D91EE11CF11CC0923303D0923403E09243
:1039F0003503F092360382E0809332031091B003D6
:103A00008091A606882309F48CC0111106C081E0BC
:103A10000E94DB0D81E08093A7061093A60680919B
:103A2000C0049091BF04891709F481C01AE0819FF6
:103A3000F0011124E153FC4F018112818F5F68E195
:103A40000E949D239093C00480919E068111AFC077
:103A5000C8010E94830ED4C081E592E00E94CE0C82
:103A600080912A0390912B0320912C0330912D03F8
:103A7000B4CF81E592E00E94040D6ACF20912C031F
:103A800030912D0380912A0390912B032817390739
:103A900008F4C901C80ED91EE11CF11CC092330301
:103AA000D0923403E0923503F092360384E0A4CF41
:103AB00020912A0330912B0380912C0390912D03A8
:103AC00043E082179307F0F060E171E081E592E056
:103AD0000E94A80B80912C0390912D0320912A0322
:103AE00030912B03821B930BC80ED91EE11CF11CD5
:103AF000C0923303D0923403E0923503F092360340
:103B000085E07ACF6DE071E081E592E00E94A80B3C
:103B100080912A0390912B0320912C0330912D0347
:103B2000E1CF112309F479CF1092A70676CF209127
:103B3000020680910106281344C010919E068091D0
:103B40008B01811181C010938B0115E080919D0341
:103B500090919C03891709F498C0819FF00111246A
:103B6000E258FC4F208190E00196B1010E94A92308
:103B700080939D0321114CC1C090B303D090B40336
:103B8000E090B503F090B603A7019601C701B60116
:103B90000E947824882309F48CC089E491E00E9473
:103BA000470D80E00E94DB0D88ED91E0B5C080916B
:103BB0009F069091A006029709F04ACF0E94380E06
:103BC00047CF3AE0239FF0011124EF53FB4F3081A0
:103BD000818192812F5F2F71209302063630E9F4A4
:103BE00080919E0681110E94380E81E090E00E9433
:103BF000610781E08093500280E891E00E94F20D1D
:103C000080E090E0892B09F41DC20E94E105882321
:103C100009F418C20E94000015C220915002213000
:103C200009F017CFE0914E022E0F277030914F020E
:103C3000231731F3F0E0EE0FFF1FE25CFD4F91839D
:103C4000808320934E02DCCF11117DCF90914F02E3
:103C500080914E02981781F0E92FF0E0EE0FFF1FE0
:103C6000E25CFD4F208131819F5F977090934F02FE
:103C7000C9010E94830E67CF0E94630E80919E0649
:103C8000811161CF109250025ECF80919E0681110A
:103C900002C00E94630E0E943E029091990680919C
:103CA0009A06981709F4C1C0CE0101960E941C0221
:103CB000F4CF8FE691E00E94640646015701E89434
:103CC000B7F82FEF3FEF4FE75FE7C501B4010E9460
:103CD0007824811126C02FEF3FEF4FE75FE7C50142
:103CE000B4010E94DC211816E4F48AE391E00E94FA
:103CF0003A0D8CE691E00E94470D2DEC3CEC4CE334
:103D000051E4C701B6010E94732487FD4ACF81E0C8
:103D10000E94DB0D84E092E00E94F20D1092A70653
:103D200015CF2FEF3FEF4FE75FE4C701B6010E94C9
:103D3000732418161CF48EE391E0D9CF2FEF3FEFD8
:103D40004FE75FECC701B6010E94DC2187FDF3CF8E
:103D500020E030E0A901C701B6010E94DC2187FF05
:103D600054C06DE280EA91E00E941706C701B601D7
:103D700090582AE037ED43EA5BE30E94D8232B01F9
:103D80003C010E9444244B015C010E94E1219B0103
:103D9000AC01C301B2010E94D7232B013C014AE0D0
:103DA000C501B4010E94F40D6EE280EA91E00E9428
:103DB000170620E030E040E251E4C301B2010E9466
:103DC00042224B015C010E9444242B01712C612C86
:103DD0004AE0C301B2010E94F40DC301B2010E9486
:103DE000E1219B01AC01C501B4010E94D72320E071
:103DF00030E040E251E40E9442220E94442490E0DC
:103E000080E04AE00E94F40D74CFC701B601B1CF43
:103E1000213009F09BCE80E00E94DB0D1092A706B6
:103E200080EC91E00E94F20D91CE80919E06882355
:103E300031F00E947403019711F40E94380E8091B2
:103E40009B06811112C080919C06882371F080919D
:103E50009E06882389F00E9467046093A2067093EF
:103E6000A3068093A4069093A50662E070E080E02C
:103E700090E00E943504C4CEC090A206D090A30664
:103E8000E090A406F090A5060E9467046C197D09D5
:103E90008E099F09603177428105910530F30E94B8
:103EA000C60380919C06882301F360E570E080E002
:103EB00090E00E9435040E94C60360E087E00E9403
:103EC000980310929C06D1CF80E00E94AD0D48E38C
:103ED00053E060E070E080E00E94550D4AE352E05C
:103EE00060E070E081E00E94550D81E00E94AD0D20
:103EF0004CEF52E060E070E082E00E94550D40E33C
:103F000051E060E070E083E00E94550D44EB51E029
:103F100060E070E084E00E94550D45E153E060E010
:103F200070E085E00E94550D1092640280E00E94CE
:103F3000650A60E088E00E94D40310921F0310928B
:103F4000200384E091E090932703809326038CE77D
:103F500095E190932903809328038CE190E090935E
:103F60002B0380932A0383E290E090932D038093A8
:103F70002C0388EE93E090932F0380932E0380EA26
:103F80009FE0909331038093300380911D038093D1
:103F9000B0038093C3038AEF90E00E94F20D109269
:103FA0009B0661E087E00E94D40361E086E00E9406
:103FB000D40362E085E00E94D40360E086E00E94C2
:103FC000980310929D0660E087E00E94980310928B
:103FD0009C0610929E061092A00610929F060E94C8
:103FE00067046093A2067093A3068093A40690933F
:103FF000A50683E096E00E944B0780E480937C0056
:1040000080917A00806480937A0080917A0086FDA6
:10401000FCCF6091780070917900072E000C880B1E
:10402000990B611571058105910511F00E948E2192
:1040300080E00E94DB0D8091B0038093A60676E0BD
:10404000272E312C80918301811107C085E991E0F1
:104050000E94E80E81E08093830180EA91E00E9453
:10406000D505892B09F477C880EA91E00E94B30551
:104070008D3011F00C94BB1380EA91E00E94C705CB
:104080000A9721F480EA91E00E94B305C09095015F
:10409000D0909601C114D10451F000919901109172
:1040A0009A0176010115110511F00C94F01380911D
:1040B000990190919A01892B11F40C949B1490E032
:1040C00080E00E943503DC018C918F7D803511F0FA
:1040D0000C945E14CE0101960E94E80E01E010E0FF
:1040E0008091990190919A010817190710F00C948A
:1040F0003514C8010E943503FC01608180ED860FF4
:104100008A3010F00C942D14CE0101960E94340FC9
:104110000F5F1F4FE5CF0E946704AB01BC01809089
:104120001B0390901C0380911A0388A7EEE3F2E032
:1041300020E06401F12CE12CC8A2D9A2EAA2FBA2E2
:10414000B8A5B21711F40C9445152A3011F40C944B
:10415000451580AD882391F1C4A8D5A8E6A8F7A895
:10416000DB01CA018C199D09AE09BF09C8A0D9A0FD
:10417000EAA0FBA0C816D906EA06FB06F8F087A15C
:1041800090A5A1A5B2A5481659066A067B06B1F40A
:1041900083A5181313C089A49AA490E080E0811726
:1041A00010F00C94FD14DF01A80FB91F9C96CC9061
:1041B000D4013D914D010196C31689F32F5F72968C
:1041C000BFCF809319030C9477150093BA030C9416
:1041D0002B1589E291E0909304068093030683E017
:1041E00096E00C944B078F929F92AF92BF92CF9222
:1041F000DF92EF92FF92CF93DF93EC016881798198
:104200008A819B81611571058105910521F464E224
:1042100079ED8BE597E02DE133EF41E050E00E942E
:10422000032349015A019B01AC01A7EAB1E40E94B2
:1042300022236B017C01ACEEB4EFA50194010E9436
:104240003023C60ED71EE81EF91EF7FE06C081E019
:10425000C81AD108E10880E8F80AC882D982EA823F
:10426000FB82C701B6019F77DF91CF91FF90EF905E
:10427000DF90CF90BF90AF909F908F9008958F92D6
:104280009F92AF92BF92CF92DF92EF92FF92609196
:10429000000170910101809102019091030161156B
:1042A00071058105910521F464E279ED8BE597E0D4
:1042B0002DE133EF41E050E00E94032349015A0110
:1042C0009B01AC01A7EAB1E40E9422236B017C01AF
:1042D000ACEEB4EFA50194010E943023C60ED71EA8
:1042E000E81EF91EF7FE06C081E0C81AD108E108F1
:1042F00080E8F80AC0920001D0920101E092020128
:10430000F0920301C701B6019F77FF90EF90DF9015
:10431000CF90BF90AF909F908F90089560930001D1
:1043200070930101809302019093030108951F93FC
:10433000FC0199278827BC01E89411911032E9F318
:10434000193010F01E30C8F31B3251F01D3249F401
:10435000689406C00E94BE21610F711D811D911DD0
:10436000119110531A30B0F33EF4909580957095EA
:1043700061957F4F8F4F9F4F1F910895592F482F61
:10438000372F262F660F771F881F991F660F771FFD
:10439000881F991F620F731F841F951F660F771F59
:1043A000881F991F089591110C94AF22803219F043
:1043B00089508550C8F708950E941E2208F481E0B4
:1043C0000895E89409C097FB3EF490958095709508
:1043D00061957F4F8F4F9F4F9923A9F0F92F96E951
:1043E000BB279395F695879577956795B795F111C6
:1043F000F8CFFAF4BB0F11F460FF1BC06F5F7F4F63
:104400008F4F9F4F16C0882311F096E911C0772374
:1044100021F09EE8872F762F05C0662371F096E87D
:10442000862F70E060E02AF09A95660F771F881F4C
:10443000DAF7880F9695879597F90895990F0008F0
:10444000550FAA0BE0E8FEEF16161706E807F90766
:10445000C0F012161306E407F50798F0621B730B01
:10446000840B950B39F40A2661F0232B242B252B82
:1044700021F408950A2609F4A140A6958FEF811D25
:10448000811D08950E9455220C94C9220E94BB22CE
:1044900038F00E94C22220F0952311F00C94B22231
:1044A0000C94B82211240C94FD220E94DA2270F39D
:1044B000959FC1F3950F50E0551F629FF001729FC9
:1044C000BB27F00DB11D639FAA27F00DB11DAA1FD8
:1044D000649F6627B00DA11D661F829F2227B00D25
:1044E000A11D621F739FB00DA11D621F839FA00DB0
:1044F000611D221F749F3327A00D611D231F849F00
:10450000600D211D822F762F6A2F11249F57504056
:104510009AF0F1F088234AF0EE0FFF1FBB1F661FD1
:10452000771F881F91505040A9F79E3F510580F09A
:104530000C94B2220C94FD225F3FE4F3983ED4F336
:10454000869577956795B795F795E7959F5FC1F73E
:10455000FE2B880F911D9695879597F908959927B9
:104560008827089597F99F6780E870E060E00895D4
:104570009FEF80EC089500240A941616170618067B
:104580000906089500240A94121613061406050657
:104590000895092E0394000C11F4882352F0BB0FE8
:1045A00040F4BF2B11F460FF04C06F5F7F4F8F4F4B
:1045B0009F4F089557FD9058440F551F59F05F3F86
:1045C00071F04795880F97FB991F61F09F3F79F035
:1045D00087950895121613061406551FF2CF4695B7
:1045E000F1DF08C0161617061806991FF1CF869539
:1045F0007105610508940895E894BB27662777271D
:10460000CB0197F90895052E97FB1EF400940E94A4
:104610001A2357FD07D00E946C2307FC03D04EF4E9
:104620000C941A2350954095309521953F4F4F4F4C
:104630005F4F089590958095709561957F4F8F4F4E
:104640009F4F08950E948E23A59F900DB49F900DBB
:10465000A49F800D911D11240895B7FF0C9422236F
:104660000E942223821B930B08952F923F924F9218
:104670005F926F927F928F929F92AF92BF92CF92F2
:10468000DF92EF92FF920F931F93CF93DF93CDB7FB
:10469000DEB7CA1BDB0B0FB6F894DEBF0FBECDBF73
:1046A00009942A88398848885F846E847D848C8444
:1046B0009B84AA84B984C884DF80EE80FD800C814D
:1046C0001B81AA81B981CE0FD11D0FB6F894DEBF30
:1046D0000FBECDBFED010895A1E21A2EAA1BBB1B90
:1046E000FD010DC0AA1FBB1FEE1FFF1FA217B307BE
:1046F000E407F50720F0A21BB30BE40BF50B661FD4
:10470000771F881F991F1A9469F760957095809597
:1047100090959B01AC01BD01CF010895A29FB0010E
:10472000B39FC001A39F700D811D1124911DB29FE5
:10473000700D811D1124911D0895991B79E004C00D
:10474000991F961708F0961B881F7A95C9F78095D0
:10475000089597FB072E16F4009407D077FD09D033
:104760000E94BD2307FC05D03EF4909581959F4F94
:104770000895709561957F4F0895AA1BBB1B51E169
:1047800007C0AA1FBB1FA617B70710F0A61BB70BC1
:10479000881F991F5A95A9F780959095BC01CD0166
:1047A0000895EE0FFF1F0590F491E02D09945058E5
:1047B000BB27AA270E94EF230C94C9220E94BB2288
:1047C00038F00E94C22220F039F49F3F19F426F4F9
:1047D0000C94B8220EF4E095E7FB0C94B222E92F7A
:1047E0000E94DA2258F3BA17620773078407950705
:1047F00020F079F4A6F50C94FC220EF4E0950B2E33
:10480000BA2FA02D0B01B90190010C01CA01A00122
:104810001124FF27591B99F0593F50F4503E68F17D
:104820001A16F040A22F232F342F4427585FF3CFBE
:10483000469537952795A795F0405395C9F77EF48F
:104840001F16BA0B620B730B840BBAF09150A1F0D8
:10485000FF0FBB1F661F771F881FC2F70EC0BA0F5E
:10486000621F731F841F48F4879577956795B795E6
:10487000F7959E3F08F0B0CF9395880F08F09927E1
:10488000EE0F9795879508950E94E22288F09F5732
:1048900098F0B92F9927B751B0F0E1F0660F771F64
:1048A000881F991F1AF0BA95C9F714C0B13091F05A
:1048B0000E94FC22B1E008950C94FC22672F782F0F
:1048C0008827B85F39F0B93FCCF38695779567951F
:1048D000B395D9F73EF490958095709561957F4F8B
:1048E0008F4F9F4F08950E941E2208F48FEF089566
:1048F0000E941E22880B990B08950F931F93CF934C
:10490000DF938230910510F482E090E0E091AA06F6
:10491000F091AB0630E020E0B0E0A0E0309799F4F1
:104920002115310509F44AC0281B390B2430310503
:10493000D8F58A819B816115710589F1FB0193830B
:104940008283FE0111C04081518102811381481789
:104950005907E0F04817590799F4109761F012963B
:104960000C93129713961C933296CF01DF91CF913F
:104970001F910F9108950093AA061093AB06F4CFF0
:104980002115310551F04217530738F0A901DB0119
:104990009A01BD01DF01F801C1CFEF01F9CF90937A
:1049A000AB068093AA06CDCFFE01E20FF31F8193E1
:1049B00091932250310939832883D7CF2091A806BB
:1049C0003091A906232B41F4209106013091070173
:1049D0003093A9062093A806209104013091050187
:1049E0002115310541F42DB73EB740910801509192
:1049F0000901241B350BE091A806F091A906E217E6
:104A0000F307A0F42E1B3F0B2817390778F0AC01F1
:104A10004E5F5F4F2417350748F04E0F5F1F5093CE
:104A2000A9064093A806819391939FCFF0E0E0E020
:104A30009CCFCF93DF930097E9F0FC01329713826C
:104A40001282A091AA06B091AB06ED0130E020E001
:104A50001097A1F420813181820F931F2091A80625
:104A60003091A9062817390709F061C0F093A9060B
:104A7000E093A806DF91CF910895EA01CE17DF07F2
:104A8000E8F54A815B819E0141155105B1F7E901C5
:104A9000FB83EA8349915991C40FD51FEC17FD0799
:104AA00061F4808191810296840F951FE9019983B9
:104AB0008883828193819B838A83F0E0E0E0129671
:104AC0008D919C9113970097B9F52D913C91119779
:104AD000CD010296820F931F2091A8063091A9065E
:104AE0002817390739F6309751F51092AB06109216
:104AF000AA06B093A906A093A806BCCFD383C2830D
:104B000040815181840F951FC817D90761F44E5F0A
:104B10005F4F88819981480F591F518340838A8153
:104B20009B81938382832115310509F0B0CFF093E7
:104B3000AB06E093AA069ECFFD01DC01C0CF138235
:104B40001282D7CFB0E0A0E0E8EAF5E20C94372378
:104B50008C01009751F4CB010E947D248C01C80187
:104B6000CDB7DEB7E0E10C945323FC01E60FF71F4D
:104B70009C0122503109E217F30708F49DC0D901C6
:104B8000CD91DC911197C617D70798F0C530D105A4
:104B900030F3CE0104978617970708F3C61BD70B8F
:104BA0002297C193D1936D937C93CF010E941925D5
:104BB000D6CF5B01AC1ABD0A4C018C0E9D1EA09194
:104BC000AA06B091AB06512C412CF12CE12C109788
:104BD00031F58091A8069091A9068815990509F0EC
:104BE0005CC04616570608F058C0809104019091A9
:104BF0000501009741F48DB79EB74091080150918F
:104C00000901841B950BE817F90708F055C0F093CC
:104C1000A906E093A806F90171836083A0CF8D9166
:104C20009C91119712966C90129713967C90139703
:104C3000A815B90559F56C0142E0C40ED11CCA147F
:104C4000DB0420F1AC014A195B09DA0112961597D1
:104C500080F06282738251834083D9016D937C938B
:104C6000E114F10471F0D7011396FC93EE931297BF
:104C700076CF22968C0F9D1FF90191838083F301DB
:104C8000EFCFF093AB06E093AA0669CF481659061A
:104C900008F42C017D01D3019ACFCB010E947D2421
:104CA0007C01009749F0AE01B8010E945F26C8015F
:104CB0000E941925870153CF10E000E050CFFB017F
:104CC000DC0102C001900D9241505040D8F7089588
:104CD000FB01DC0101900D920020E1F70895FB013A
:104CE000DC014150504048F001900D920020C9F77E
:104CF00001C01D9241505040E0F7089511E0CEEE02
:104D0000D1E004C0FE010E94D1232196CF3ED107FD
:064D1000C9F7F894FFCF83
:104D1600010000000000AC06800030405030210049
:104D26003020000000000017067705A4057F06D591
:104D360005B305C70500000000B80677053409B7B6
:104D46000614072A079F060D0A00696E66006F762D
:024D56006600F5
:00000001FF
