:100000000C9464020C948C020C948C020C94F10EEF
:100010000C94F10E0C94F10E0C948C020C948C0246
:100020000C948C020C948C020C948C020C948C0218
:100030000C948C020C948C020C948C020C948C0208
:100040000C944F0E0C948C020C94BF0E0C94990ED1
:100050000C948C020C948C020C948C020C948C02E8
:100060000C948C020C948C025B504C41595D2053D3
:1000700065617462656C74205432206C6F6F70001F
:1000800052657475726E696E6720746F2050726568
:1000900076696F7573204D6F6465204661696C7574
:1000A00072652E2E2E0053657474696E672042614E
:1000B00075647261746520537563636573736675E7
:1000C0006C2100456E746572696E6720436F6E66C1
:1000D000696775726174696F6E204D6F6465205336
:1000E00075636365737366756C2100456E74657224
:1000F000696E6720436F6E66696775726174696FB8
:100100006E204D6F6465204661696C7572652E2E98
:100110002E004D435032353135204F4B2028384D7D
:10012000487A2C203130306B62707329004D435077
:100130003235313520696E6974204641494C00538F
:1001400074617274696E67206D61696E3A205765DB
:100150006C636F6D652F434349442F53656174622F
:10016000656C742F4675656C2F476F6F6462796597
:100170002F526164696F202B204B4F4D4249202B39
:10018000205175657565005B434C495D20766F6C49
:10019000756D652073657420005B434C495D207666
:1001A0006F6C756D653D005B434C495D20766F6CEF
:1001B000756D653D005B504C41595D20434349449A
:1001C0002054004C4F570048494748005B52414477
:1001D000494F5D20005B504C41595D2057656C6371
:1001E0006F6D65205431005B57454C434F4D455D65
:1001F0002077696E646F7720657870697265640036
:100200005B504C41595D20476F6F646279652054A3
:10021000005B504C41595D204C6F772D6675656CC5
:100220002072656D696E64657220543435005B50D0
:100230004C41595D2048616E646272616B65207744
:1002400061726E696E6720543530005B4B45595DB5
:10025000204C4F434B005B4B45595D20554E4C4F56
:10026000434B202D3E2077656C636F6D6520617276
:100270006D65643B20726164696F20776169747396
:1002800020646F6F72005B4B4C31355D204F4E0028
:100290005B4B4C31355D204F46463B206675656CA7
:1002A0002072656D696E642061726D65643F005BEC
:1002B0004B4C31355D20456E67696E652053544F58
:1002C00050202834352F3535202D3E2034302F3026
:1002D0003029203D3E20476F6F646279652041528E
:1002E0004D4544005B4169724261675D2050617316
:1002F00073656E676572206E6F74207365617465D7
:1003000064005B4169724261675D2050617373658F
:100310006E67657220434F4E4649524D4544202832
:10032000646F6F722D3E7365617429005B41697261
:100330004261675D2050617373656E6765722073FB
:1003400065617465640000000000240027002A0035
:100350000000000800020100000304070000000084
:100360000000000053657474696E67204D61736B03
:10037000205375636365737366756C2100536574F0
:1003800074696E67204D61736B204661696C75728C
:10039000652E2E2E00456E746572696E6720507250
:1003A0006576696F7573204D6F6465204661696C71
:1003B0007572652E2E2E00456E746572696E67200B
:1003C000436F6E66696775726174696F6E204D6FF9
:1003D0006465204661696C7572652E2E2E0053741B
:1003E000617274696E6720746F20536574204D616B
:1003F000736B210053657474696E672046696C7471
:100400006572205375636365737366756C21005361
:10041000657474696E672046696C74657220466104
:10042000696C7572652E2E2E00456E746572696E4C
:10043000672050726576696F7573204D6F64652013
:100440004661696C7572652E2E2E00456E7465725C
:1004500020436F6E66696775726174696F6E204DB7
:100460006F6465204661696C7572652E2E2E00538F
:1004700074617274696E6720746F205365742046CE
:10048000696C7465722100000000002300260029B9
:100490000000000000250028002B000404040404D0
:1004A0000404040202020202020303030303030121
:1004B00002040810204080010204081020010204F8
:1004C00008102000690F1F1E11241FBECFEFD8E0B7
:1004D000DEBFCDBF11E0A0E0B1E0EAEFF3E402C07F
:1004E00005900D92AE33B107D9F724E0AEE3B1E049
:1004F00001C01D92A03BB207E1F712E0C3E6D2E0D3
:1005000004C02197FE010E94E91FC236D107C9F736
:100510000E94D1100C94F0210C9400008CBD9DBD64
:100520000895CF93DF93CDB7DEB72A970FB6F8942F
:10053000DEBF0FBECDBF282F8091D2029091D30293
:10054000009751F13EE739833FEF3A8336E03B8332
:100550002C831D82472F50E07E836F83640F752F9D
:10056000711D6B5F7E4F260F372F311D3195219501
:100570003109388729872FEE2A87DC01ED91FC911C
:100580000280F381E02D4AE050E0BE016F5F7F4FB3
:10059000099521E00A9709F020E0822F2A960FB6EC
:1005A000F894DEBF0FBECDBFDF91CF9108952091AB
:1005B000A9013091AA018217930738F42091A5016F
:1005C0003091A6012115310529F41092AB018BEA77
:1005D00091E00895820F931F0895833081F028F4ED
:1005E000813099F08230A9F008958730A9F08830E1
:1005F000C9F08430B1F4809180008F7D03C0809178
:1006000080008F7780938000089584B58F7784BDB4
:10061000089584B58F7DFBCF8091B0008F77809354
:10062000B00008958091B0008F7DF9CFCF93DF9314
:10063000E5E5F3E08491E4EBF4E0D491E0EAF4E062
:10064000C491CC23A1F081110E94ED02EC2FF0E0C7
:10065000EE0FFF1FE957FB4FA591B491EC91ED23ED
:1006600081E090E009F480E0DF91CF91089580E08F
:1006700090E0FACF1F93CF93DF93282F30E0F9015A
:10068000E05BFC4F8491F901E155FB4FD491F901F6
:10069000E556FB4FC491CC23A9F0162F81110E947F
:1006A000ED02EC2FF0E0EE0FFF1FEF56FB4FA59190
:1006B000B4918FB7F894EC91111108C0D095DE2356
:1006C000DC938FBFDF91CF911F910895DE2BF8CF80
:1006D000CF93DF9390E0FC01E155FB4F24918556C9
:1006E0009B4FFC0184918823C9F090E0880F991FEB
:1006F000FC01EA5BFC4FA591B491FC01EF56FB4F66
:10070000C591D49161110DC09FB7F8948C9120953B
:1007100082238C938881282328839FBFDF91CF91E8
:100720000895623051F49FB7F8943C91822F8095E0
:1007300083238C93E8812E2BEFCF8FB7F894EC9125
:100740002E2B2C938FBFEACF3FB7F8948091A10155
:100750009091A201A091A301B091A40126B5A89BFC
:1007600005C02F3F19F00196A11DB11D3FBFBA2F43
:10077000A92F982F8827BC01CD01620F711D811D03
:10078000911D42E0660F771F881F991F4A95D1F788
:1007900008958F929F92AF92BF92CF92DF92EF9285
:1007A000FF924B015C010E94A4036B017C010E943B
:1007B000A4036C197D098E099F09683E7340810569
:1007C0009105A8F321E0821A9108A108B10888EEEA
:1007D000C80E83E0D81EE11CF11C81149104A10411
:1007E000B10429F7FF90EF90DF90CF90BF90AF90CA
:1007F0009F908F9008952FB7F89460919D0170910C
:100800009E0180919F019091A0012FBF08958F922A
:100810009F92AF92BF92CF92DF92EF92FF92CF93CF
:10082000DF93EC016B010E94FB034B015C01F12C97
:10083000E12C0E94FB03681979098A099B096C1550
:100840007D058E059F0560F40E9416038C179D0799
:1008500099F062E070E080E090E00E94C903E9CF87
:1008600080E0DF91CF91FF90EF90DF90CF90BF902D
:10087000AF909F908F90089581E0F3CF8F929F92D9
:10088000AF92BF92CF92DF92EF92FF920F931F939E
:10089000CF93DF93CDB7DEB72D970FB6F894DEBFB9
:1008A0000FBECDBF6C010E94FB034B015C01F12C1C
:1008B000E12C1DE001E00E94FB03681979098A0917
:1008C0009B096C157D058E059F0508F0A2C08091DF
:1008D000D2029091D302892B09F489C08091D2026F
:1008E0009091D302DC01ED91FC910084F185E02D23
:1008F0000995892B09F47BC08091D2029091D30293
:10090000DC01ED91FC910284F385E02D0995E091E5
:10091000E002E11107C08E3709F78093D6020093F9
:10092000E002DCCF91E09E0F9093E002F0E0ED5406
:10093000FD4F83A39A3090F28091DF028F3E09F041
:1009400053C02091D9028091D7029091D802890F8B
:100950009927991F820F911D4091DA02480F592F54
:10096000511D8091DB02480F511D8091DC02840FE4
:10097000952F911D9195819591093091DD02391343
:1009800033C09091DE0298132FC04091DB0250914A
:10099000DC028AE0E6EDF2E0DE01149601900D92B1
:1009A0008A95E1F7A091490381E08A0F87709091C1
:1009B0004A03891305C091E0980F977090934A03FA
:1009C00029835427452754275B834A831A9FD001E4
:1009D0001124FE013196AF51BD4F912F01900D9220
:1009E0009A95E1F7809349031092E00277CF8091C6
:1009F0004A0390914903981729F08F5F877080937D
:100A00004A03F5CF62E070E080E090E00E94C90305
:100A100052CF2D960FB6F894DEBF0FBECDBFDF913B
:100A2000CF911F910F91FF90EF90DF90CF90BF90EB
:100A3000AF909F908F9008958F3108F08EE1809352
:100A4000510390914C03992349F0682F70E086E0A0
:100A50000E9491028AE090E00C943E040895CF93A6
:100A6000DF93C1E0D0E0009729F0EC01C39710F0CC
:100A7000C2E3D0E060E086E00E943A0310924D03AA
:100A800060E086E00E943A0310924D0380914C038F
:100A900081110DC061E087E00E943A0381E08093FC
:100AA0004C0364E670E080E090E00E94C90310927D
:100AB000CE021092CD021092CC021092CB02109274
:100AC000CA021092C9028DE991E09093D0028093FE
:100AD000CF028091BF02863108F047C02DEB30E095
:100AE0003093CA022093C9022BE931E03093CC0243
:100AF0002093CB022CE231E03093CE022093CD0242
:100B00002091680094E0883048F031E08E3008F49D
:100B100030E091E001C0990F3A95EAF7922B90935B
:100B200068002DE630E0883050F02BE630E08E3063
:100B300030F02CE630E0863110F030E020E03093E9
:100B4000C7022093C602282F30E0883008F08BC0FF
:100B500091E001C0990F8A95EAF79093C8028091BD
:100B6000CF029091D0020197F1F78091CD02909140
:100B7000CE02892B49F1E0911302F091140282E038
:100B8000E33BF80709F1309739F0A389B4899C91C8
:100B90008589809589238C938091D1028E7F809363
:100BA000D102109212021092110283EB92E0909304
:100BB000140280931302E091C602F091C702808173
:100BC0009091C802892B80836AE070E080E090E019
:100BD0000E94C90383EB92E09093D3028093D202E8
:100BE00085E08093D40281E08093D50260E085E0C7
:100BF0000E9468031092E00210924A031092490387
:100C0000609151036F3108F06EE170E086E00E9460
:100C1000910282E390E00E943E04BE0182E10E94C4
:100C2000910288E090E00E943E0464E670E090E06B
:100C300080E00E940704882319F16CE370E080E0F3
:100C400090E00E94C90361E086E00E943A0381E0DF
:100C500080934D0380934E03D0935003C0934F0372
:100C6000DF91CF9108958E3040F42850310991E002
:100C700001C0990F2A95EAF770CF2E503109F7CFAE
:100C800070E060E086E10E94910284E190E00E94C1
:100C90003E04BE0182E10E94910288E090E00E9441
:100CA0003E0464E670E090E080E00E940704811159
:100CB000C4CFD6CF80914D03882361F060E570E00A
:100CC00080E090E00E94C90360E086E00E943A0361
:100CD00010924D0370E060E086E10E94910284E191
:100CE00090E00E943E0460E971E081E090E00E94A3
:100CF000070480914B03811106C060E087E00E94E9
:100D00003A0310924C0310924E031092500310922B
:100D10004F030895DF92EF92FF920F931F93CF93AB
:100D2000DF937C01D62E8A01309110023A3090F088
:100D30008CEA91E021E04AE0FC013A96DC01019066
:100D40000D924A95E1F72F5F0A963213F4CF89E0AE
:100D500080931002C091100281E08C0F80931002EA
:100D6000D0E00E94FB032AE02C9FF0012D9FF00DA4
:100D70001124E455FE4F22E02083F282E182D382E7
:100D8000158304836683778380879187DF91CF9172
:100D90001F910F91FF90EF90DF900895AF92BF9257
:100DA000CF92DF92EF92FF920F931F93CF93DF9337
:100DB0006C017B018B01040F151FEB015E01AE1866
:100DC000BF08C017D10759F06991D601ED91FC9188
:100DD0000190F081E02DC6010995892B79F7C501B5
:100DE000DF91CF911F910F91FF90EF90DF90CF9007
:100DF000BF90AF900895FC01538D448D252F30E0B6
:100E0000842F90E0821B930B541710F0CF96089517
:100E100001970895FC01918D828D981761F0A28D44
:100E2000AE0FBF2FB11D5D968C91928D9F5F9F730A
:100E3000928F90E008958FEF9FEF0895FC01918DC0
:100E4000828D981731F0828DE80FF11D858D90E02D
:100E500008958FEF9FEF0895FC01918D228D892FCA
:100E600090E0805C9F4F821B91098F7399270895B2
:100E700085E192E00E942C0721E0892B09F420E013
:100E8000822F089580E090E0892B29F00E94380796
:100E900081110C9400000895FC01A48DA80FB92FB6
:100EA000B11DA35ABF4F2C91848D90E001968F7392
:100EB0009927848FA689B7892C93A089B1898C91B1
:100EC000837080648C93938D848D981306C0028800
:100ED000F389E02D80818F7D80830895EF92FF92CA
:100EE0000F931F93CF93DF93EC0181E0888F9B8D4D
:100EF0008C8D98131AC0E889F989808185FF15C007
:100F00009FB7F894EE89FF896083E889F989808129
:100F10008370806480839FBF81E090E0DF91CF91F8
:100F20001F910F91FF90EF900895F62E0B8D10E01A
:100F30000F5F1F4F0F731127E02E8C8D8E110CC089
:100F40000FB607FCFACFE889F989808185FFF5CFD4
:100F5000CE010E944C07F1CFEB8DEC0FFD2FF11D60
:100F6000E35AFF4FF0829FB7F8940B8FEA89FB8911
:100F700080818062CFCF0F931F93CF93DF938C013B
:100F8000D0E0C0E0F801EC0FFD1F6491662341F052
:100F900085E192E00E946E07892B11F02196F2CF35
:100FA000CE01DF91CF911F910F910895CF93DF93E1
:100FB000EC01888D8823B9F0AA89BB89E889F98971
:100FC0008C9185FD03C0808186FD0DC00FB607FCA6
:100FD000F7CF8C9185FFF2CF808185FFEDCFCE01D9
:100FE0000E944C07E9CFDF91CF9108952091130221
:100FF000309114022817390771F4909111028091F1
:101000001202981741F0E0911102F0E0E15CFE4F0E
:10101000808190E008958FEF9FEF08950895EF92FB
:10102000FF920F931F93CF93DF93DC015C96ED90BB
:10103000FC905D97E114F10479F481E090E013965F
:101040009C938E93129790E080E0DF91CF911F9157
:101050000F91FF90EF9008955196ED91FC9152976A
:1010600050968C915097982F90950FB75E962C9133
:101070005E97122F127021FD6095F8942081112344
:1010800019F1282B2083E7012197F1F728E0462F5B
:1010900050E0308160FF1AC0382B3083E701219780
:1010A000F1F7BA0175956795215089F7112381F001
:1010B0008081892380830FBF5C968D919C910197DD
:1010C000F1F781E090E0C1CF2923DCCF3923E5CFD0
:1010D0009081892BEFCF20911302309114022817B1
:1010E000390761F4809112022091110290E0805C36
:1010F0009F4F821B91098F739927089590E080E09C
:101100000895209113023091140228173907B9F479
:101110009091110280911202981789F0E0911102CA
:10112000F0E0E15CFE4F80812091110230E02F5F02
:101130003F4F2F7333272093110290E008958FEFD4
:101140009FEF089590E080E0089508958EBD00001F
:101150000DB407FEFDCF8EB508951F93CF93DF9397
:10116000182F80E591E00E948E02C2E5D3E060E096
:101170008A890E943A0383E00E94A608812F0E9478
:10118000A60880E00E94A608182F61E08A890E94C4
:101190003A03812FDF91CF911F910895FF920F9312
:1011A0001F93CF93DF93F82E062F142F80E591E045
:1011B0000E948E02C2E5D3E060E08A890E943A0371
:1011C00085E00E94A6088F2D0E94A608802F0E940D
:1011D000A608812F0E94A60861E08A89DF91CF913D
:1011E0001F910F91FF900C943A03CF93DF93C82F78
:1011F0000E94FB03D62F4C2F60EE8FE00E94CE089A
:101200008EE00E94AD08807EC81749F00E94FB0363
:101210006D1B693C80F381E0DF91CF91089580E000
:10122000FBCFCF93DF93C82F8EE00E94AD08807E66
:101230008032F9F4C032E9F08BE20E94AD08D82F79
:10124000D07486FD05C040E460E48BE20E94CE08C5
:1012500040E460E48CE20E94CE0880E60E94F5083B
:10126000811111C0D11105C040E060E48BE20E9401
:10127000CE0840E060E48CE20E94CE088C2FDF9123
:10128000CF910C94F50881E0DF91CF910895FF9202
:101290000F931F93CF93DF93C82FF62E172F042F92
:1012A00080E591E00E948E0260E0809164030E94DC
:1012B0003A0382E00E94A6088C2F0E94A608CF2D38
:1012C000D12F0C0F1D2F111DC017D10721F08991AF
:1012D0000E94A608F9CF61E080916403DF91CF916D
:1012E0001F910F91FF900C943A03CF93DF9300D09E
:1012F00000D0CDB7DEB7E32FFF272C83EB8361301F
:1013000081F498E09A83198244E0BE016F5F7F4FB9
:101310000E9447090F900F900F900F90DF91CF918F
:1013200008951A82F0CF0F931F93CF93DF93082F66
:10133000162F80E591E00E948E02C2E5D3E060E0C6
:101340008A890E943A0382E00E94A608802F0E94A8
:10135000A608812F0E94A60861E08A89DF91CF91BB
:101360001F910F910C943A032F923F924F925F92EC
:101370006F927F928F929F92AF92BF92CF92DF92A5
:10138000EF92FF920F931F93CF93DF93CDB7DEB70A
:1013900062970FB6F894DEBF0FBECDBF982E9A8B22
:1013A000062F22E02F872E0183E0480E511C998AD8
:1013B00092E0960F988B1E01A9E02A0E311C6090D6
:1013C0000D0170900E0180900F01FE013C96FE878A
:1013D000ED87D201E6E01D92EA95E9F7F0E6F983A0
:1013E0000A83D201E92DFA8981918D938E2F298963
:1013F000821B8017C8F381EF96E0A0E0B0E08093F5
:10140000530390935403A0935503B0935603109243
:10141000600310925203988990935703FE0131960E
:10142000A8E5B3E081918D93E215F305D9F70E9409
:10143000A4035B016C0169867A868B867101D701F2
:101440001D917D01812F0E94AD0883FD37C01F5F74
:10145000F12C0E94A403DC01CB018A199B09AC0981
:10146000BD09F2E0FF1234C0843C9940A105B105EA
:1014700010F36EE170E080E090E00E94C9032F85D8
:101480002130C9F462960FB6F894DEBF0FBECDBF0F
:10149000DF91CF911F910F91FF90EF90DF90CF9050
:1014A000BF90AF909F908F907F906F905F904F9084
:1014B0003F902F900895F1E0FF878BCFED85FE855B
:1014C000EE16FF0609F0BBCF10E042E0F42EC1CFCC
:1014D000843C9940A105B10560F64091570368E549
:1014E00073E085E0810F0E9447098091600381309D
:1014F00029F48091570380648093570360915703C8
:1015000084E0810F0E9493098091530390915403CA
:10151000A0915503B0915603209152032130B1F5AB
:101520008C879B87CD01AA27BB27282F2370286093
:10153000382F330F330F330F307E232B2A8735E0BC
:10154000969587953A95E1F7898744E0B101812F17
:101550000E944709115048E068E0812F0E94CE08A0
:101560000E94A4036B017C01812F0E94AD08B82E5C
:101570000E94A4036C197D098E099F09B3FE79CFDF
:10158000643C79408105910578F373CF9C0193E029
:10159000369527959A95E1F729878295880F807E61
:1015A0008A871C861B86D1CFCF93DF9300D000D0D3
:1015B0001F92CDB7DEB72091270430912804A1EF08
:1015C000B6E00E94B21F6E5C7F4F8F4F9F4F24E6A4
:1015D00030E040E050E00E94901F80E3898380E289
:1015E0008A8386E08B833C832D8365E0CE01019660
:1015F0000E94B4090F900F900F900F900F90DF9101
:10160000CF910895CF93DF9300D000D01F92CDB734
:10161000DEB72091290430912A04AAE6B0E00E94A6
:10162000B21F625C7F4F8F4F9F4F2DE730E040E04D
:1016300050E00E94901F80E3898381E28A8386E0E4
:101640008B833C832D8365E0CE0101960E94B40913
:101650000F900F900F900F900F90DF91CF91089502
:10166000FF920F931F93CF93DF93C82FF62E172F60
:10167000042F80E591E00E948E0260E08091640377
:101680000E943A0383E00E94A6088C2F0E94A608BD
:10169000CF2DD12F0C0F1D2F111DC017D10729F0F1
:1016A00080E00E94A6088993F8CF61E080916403EE
:1016B000DF91CF911F910F91FF900C943A030F93FC
:1016C0001F93CF93DF9300D000D0CDB7DEB7182F94
:1016D0001092520310925303109254031092550328
:1016E0001092560344E0BE016F5F7F4F0E94300BA3
:1016F0002A81898138E0839FC0011124422F50E064
:1017000065E0559547956A95E1F7840F951F092E79
:10171000000CAA0BBB0B8093530390935403A0932C
:101720005503B093560323FF29C032E0880F991F59
:10173000AA1FBB1F3A95D1F72370820F911DA11DDF
:10174000B11DBA2FA92F982F88272B81820F911DA9
:10175000A11DB11DBA2FA92F982F88272C81820F88
:10176000911DA11DB11D8093530390935403A09329
:101770005503B093560381E0809352038FEF810F9E
:101780000E94AD08082F84E0810F0E94AD0803FF7E
:1017900016C091E090936003482F4F704093570319
:1017A00068E573E085E0810F0E94300B0F900F9089
:1017B0000F900F90DF91CF911F910F91089510928C
:1017C0006003EACF1F93CF93DF9380E591E00E94FF
:1017D0008E02C2E5D3E060E08A890E943A0380EA83
:1017E0000E94A60880E00E94A608182F61E08A895E
:1017F0000E943A03812FDF91CF911F910895CF93DB
:10180000CFB7F89480913E01811127C0E5EAF4E05A
:101810008491E9EBF4E09491E82FF0E0EE0FFF1FE4
:10182000EA5BFC4FA591B491EC91E92321F461E0CE
:101830008AE00E943A0361E08AE00E9468038CB566
:1018400080618CBD8CB580648CBD61E08DE00E94B0
:10185000680361E08BE00E94680380913E018F5F26
:1018600080933E01CFBFCF91089520914E03222354
:1018700049F020914F03309150038217930711F4E0
:101880000C945A060895CF92DF92EF92FF920F9335
:101890004617B9F1DC0112966D917C911397ED9189
:1018A000FC91C080D180E280F3804111022FFB01C6
:1018B000EC5EFE4F208130E0C901019687709927C8
:1018C000DB01AB5EBE4F4C91481306C0AC014F5FCD
:1018D0005F4F477055274C9395E0929FA001939FCF
:1018E000500D1124640F751FDB01A451BF4F0C93E1
:1018F00063517F4FDB01CD92DD92ED92FC92139705
:1019000080830F91FF90EF90DF90CF9008958F929A
:101910009F92AF92BF920F931F93CF93DF93CDB758
:10192000DEB7A1970FB6F894DEBF0FBECDBF19A2E8
:10193000423008F44AE08E010F5D1F4F842E912C37
:10194000B12CA12CA50194010E94901FE62FB90192
:10195000CA01EA3044F5E05DD801EE938D01232BF6
:10196000242B252B79F790E080E0109769F0FD019A
:1019700001900020E9F73197AF014A1B5B0BBD01D5
:1019800085E192E00E94CE06A1960FB6F894DEBFE4
:101990000FBECDBFDF91CF911F910F91BF90AF9040
:1019A0009F908F900895E95CD7CF42E050E06AE3C2
:1019B00071E085E192E00C94CE06CF93DF930E9414
:1019C000BB07EC010E94D50C8C0F9D1FDF91CF91BE
:1019D0000895CF92DF92EF92FF92CF93DF93C82FBB
:1019E0006A017B018FE694E00E94DD0C80E80E9492
:1019F0001109D82F8BE494E0D1111CC0C330B9F188
:101A000018F5C13051F1C23069F1A701960160E0CB
:101A100080E00E947509809165030E941109D82F0A
:101A200084EF93E0DD2331F089E294E00E94DD0C45
:101A30008FE094E00E94DD0C8D2FDF91CF91FF901D
:101A4000EF90DF90CF900895C430B1F0C530E9F643
:101A5000A701960160E088E1DCCFA701960160E074
:101A600084E0D7CFA701960160E088E0D2CFA7013C
:101A7000960160E080E1CDCFA701960160E084E1AE
:101A8000C8CFCF93DF93D82F8EED93E00E94DD0C6B
:101A900080E80E941109C82F87EB93E0C11119C09B
:101AA0002FEF37E040E050E060E080E2D11184E2C7
:101AB0000E947509809165030E941109C82F84E670
:101AC00093E0CC2331F085E993E00E94DD0C8DE7B3
:101AD00093E00E94DD0C8C2FDF91CF9108950C9440
:101AE000DD0C809192018823E1F080919101815079
:101AF0008230B8F080914E03882341F080914F03EB
:101B000090915003029769F00E945A0682E090E09B
:101B10000E942F0583E08093910188E690E00C9469
:101B20006F0D0895CF93DF93682F70E090E080E011
:101B30004AE00E94870CEC010E94D50C8C0F9D1F7F
:101B4000DF91CF910895FC0180819181009711F080
:101B50000C948B2008950F931F93CF93DF93EC0188
:101B600088819981009759F02A813B812617370790
:101B700030F081E0DF91CF911F910F9108958B019B
:101B80006F5F7F4F0E941421009759F099838883DB
:101B90001B830A832C813D81232B59F7FC01108282
:101BA000E8CF80E0E7CFCF93DF93EC011982188272
:101BB0001B821A821D821C8270E060E00E94AB0DC5
:101BC0002881398181110FC02115310519F0C90112
:101BD0000E948B20198218821D821C821B821A820D
:101BE000DF91CF9108951D821C826CE371E0C901E1
:101BF000DF91CF910C94DA21CF93DF93EC0170E069
:101C000060E00E94AB0D2881398181110FC0211540
:101C1000310519F0C9010E948B20198218821D829A
:101C20001C821B821A82DF91CF9108951D821C8233
:101C30006CE371E0C901DF91CF910C94DA21EF924E
:101C4000FF920F931F93CF93DF9300D0CDB7DEB7F2
:101C50008C0169831A82FC01E480F580FFEFEF1AA2
:101C6000FF0AB7010E94AB0D882381F0F8012081A3
:101C7000318184819581BE016F5F7F4F820F931FF9
:101C80000E94DA21F801F582E48281E00F900F9042
:101C9000DF91CF911F910F91FF90EF9008951F92C8
:101CA0000F920FB60F9211242F933F938F939F9310
:101CB000AF93BF9380919D0190919E01A0919F0150
:101CC000B091A00130919C0123E0230F2D3758F5EE
:101CD0000196A11DB11D20939C0180939D019093BD
:101CE0009E01A0939F01B093A0018091A1019091CA
:101CF000A201A091A301B091A4010196A11DB11D63
:101D00008093A1019093A201A093A301B093A40199
:101D1000BF91AF919F918F913F912F910F900FBEE7
:101D20000F901F90189526E8230F0296A11DB11D54
:101D3000D2CF1F920F920FB60F9211242F933F9381
:101D40004F935F936F937F938F939F93AF93BF93C3
:101D5000EF93FF9385E192E00E944C07FF91EF9192
:101D6000BF91AF919F918F917F916F915F914F91B3
:101D70003F912F910F900FBE0F901F9018951F92BB
:101D80000F920FB60F9211242F938F939F93EF937F
:101D9000FF93E0912502F09126028081E0912B02D1
:101DA000F0912C0282FD1BC0908180912E028F5FEA
:101DB0008F7320912F02821741F0E0912E02F0E004
:101DC000EB5EFD4F958F80932E02FF91EF919F91D7
:101DD0008F912F910F900FBE0F901F9018958081BB
:101DE000F4CF1F920F920FB60F9211242F933F93AF
:101DF0004F935F936F937F938F939F93AF93BF9313
:101E0000EF93FF93E0911302F0911402309749F0A1
:101E1000A685B7858585968D91FF14C09C918923F1
:101E2000A1F4FF91EF91BF91AF919F918F917F911D
:101E30006F915F914F913F912F910F900FBE0F9037
:101E40001F9018959C91892361F7A389B4899C916F
:101E50008589809589238C93868997890197F1F7E5
:101E6000608D718DA685B785558538E020E0CB0162
:101E70000197F1F7822F90E095958795282F4C9147
:101E8000452309F02068315091F7868D81FD20951A
:101E90008091120290E001968F7399273091110280
:101EA000381799F0A0911202B0E0A15CBE4F2C93BC
:101EB00080931202828D938D0197F1F7A389B489E3
:101EC0008C919589892B8C93ACCF868D8160868F80
:101ED000F1CFCF93109218021092170288EE93E080
:101EE000A0E0B0E08093190290931A02A0931B0225
:101EF000B0931C028AE191E0909316028093150240
:101F000085EC90E0909322028093210284EC90E093
:101F1000909324028093230280EC90E09093260219
:101F20008093250281EC90E0909328028093270211
:101F300082EC90E090932A028093290286EC90E054
:101F400090932C0280932B0210922E0210922F025B
:101F50001092300210923102CAE0C093640361E033
:101F60008AE00E943A0361E0809164030E94680362
:101F700082EB92E0909363038093620310921A04C1
:101F8000C0931B048CE291E090931D0480931C0489
:101F900010921E048FEF80931F0491E09093200411
:101FA000109221041092220410922304109224040F
:101FB000109225041092260424E031E03093280486
:101FC000209327042CE735E130932A042093290439
:101FD0002CE130E030932C0420932B0423E230E0FA
:101FE00030932E0420932D0428EE33E030933004F8
:101FF00020932F0420EA3FE03093320420933104F1
:102000001092330410923404109235041092360466
:1020100010923704E8E3F4E026E0DF011D922A95F0
:10202000E9F7109266041092670490936804109286
:102030007D0410927E0410929D0410929E042AEF5B
:1020400030E03093A00420939F041092A1041092DA
:10205000A2041092A3041092A4048093A504809378
:10206000A6041092A7041092A8041092A90410923A
:10207000AA041092AB04E2E5F3E086E094E015A236
:1020800072968E179F07D9F71092B6021092B5027A
:1020900088EE93E0A0E0B0E08093B7029093B8029E
:1020A000A093B902B093BA028CE291E09093B4028B
:1020B0008093B3021092CA021092C9021092CC020D
:1020C0001092CB021092CE021092CD021092D0024A
:1020D0001092CF026091D1026E7F6D7F6093D1022A
:1020E0006695617081E0682783E00E943A0361E0B1
:1020F00083E00E946803E2EBF4E0E491E093C30222
:10210000EEE9F4E0E491F0E0EE0FFF1FEF56FB4F35
:10211000859194919093C5028093C40260E084E01D
:102120000E9468038091D10281FD04C061E084E0D7
:102130000E943A0384E08093BF02E3EBF4E0E49171
:10214000E093C002EFE9F4E0E491F0E0EE0FFF1F4E
:10215000E957FB4F859194919093C2028093C102FD
:102160001092D3021092D2028FEF8093D40281E0BA
:102170008093D5021092E0021092490310924A0314
:1021800010924B0310924C0310924D0310924E0389
:102190001092500310924F038CE080935103CF9123
:1021A0000895CF93DF93CDB7DEB7A0970FB6F8941D
:1021B000DEBF0FBECDBF789484B5826084BD84B588
:1021C000816084BD85B5826085BD85B5816085BD32
:1021D00080916E00816080936E00109281008091EA
:1021E0008100826080938100809181008160809372
:1021F0008100809180008160809380008091B10097
:1022000084608093B1008091B00081608093B000C1
:1022100080917A00846080937A0080917A00826055
:1022200080937A0080917A00816080937A00809117
:102230007A00806880937A001092C100E0912502B4
:10224000F091260282E08083E0912102F091220247
:102250001082E0912302F091240280E180831092A9
:102260002D02E0912902F0912A0286E08083E0911C
:102270002702F0912802808180618083E09127020B
:10228000F0912802808188608083E0912702F0919C
:102290002802808180688083E0912702F0912802E3
:1022A00080818F7D808364E670E080E090E00E9412
:1022B000C9038FE391E00E946F0D61E089E00E9405
:1022C000680360E089E00E943A038CEC91E00E9490
:1022D000BB0783EC91E00E94DD0C61E086E00E9488
:1022E000680360E086E00E943A0361E08AE00E94B1
:1022F000680361E08AE00E943A030E94FF0B0E949B
:10230000FF0B80E591E00E948E0260E08091640303
:102310000E943A0380EC0E94A60861E08091640369
:102320000E943A0365E070E080E090E00E94C903FB
:1023300080E48093650380E80E941109882379F086
:102340008BEE90E00E94DD0C8DE291E00E946F0D1B
:1023500068EE73E080E090E00E94C903F9CF83EC5F
:1023600090E00E94DD0C61E88AE20E94930966EF2A
:1023700089E20E94930964E888E20E94930986EA50
:1023800090E00E94DD0C20E030E0A90161E080E2F5
:102390000E94750920E030E0A90161E084E20E941A
:1023A000750920E030E0A90161E080E00E94750934
:1023B00020E030E0A90160E084E00E94750920E09F
:1023C00030E0A90161E088E00E94750920E030E07A
:1023D000A90160E080E10E94750920E030E0A901D8
:1023E00061E084E10E94750920E030E0A90160E02D
:1023F00088E10E94750910E360E0812F0E94930933
:1024000060E080E1810F0E94930960E080E2810F2B
:102410000E9493091F5F1E3379F760E080E60E94F7
:10242000930960E080E70E94930963E08BE20E94D9
:1024300093096CE38CE00E94930960E08DE00E94B8
:10244000930944E664E680E60E94CE0840E660E632
:1024500080E70E94CE08809165030E9411098823BD
:1024600011F40C943B1C80E890E06CCF85E192E085
:102470000E940A078D3009F04AC085E192E00E946F
:102480001E070A9721F485E192E00E940A07C09096
:10249000A501D090A601C114D10449F00091A90171
:1024A0001091AA0176010115110509F064C080910F
:1024B000A9019091AA01892B09F406C190E080E05E
:1024C0000E94D702DC018C918F7D803509F0BFC05E
:1024D000CE0101960E94D30D01E010E08091A90188
:1024E0009091AA010817190708F088C0C8010E9436
:1024F000D702FC01608180ED860F8A3008F077C03A
:10250000CE0101960E941F0E0F5F1F4FE7CF8A304A
:1025100009F4BDCF682F85EA91E00E941F0E40911B
:10252000A9015091AA014932510510F40C94E11C03
:10253000BA01685271094617570708F4BA01809129
:10254000A5019091A601461B570B5093AA014093F9
:10255000A901680F791F0E94E121E091A501F09186
:10256000A6018091A9019091AA01E80FF91F10829C
:102570000C94E11C750157012FEFA21AB20AD70182
:102580008C91082E000C990B0E941B1F892B91F730
:10259000015011090C0D1D1DF8018081082E000C41
:1025A000990B0E941B1F892B31F00E151F0518F087
:1025B00001501109F1CF0F5F1F4FA8014E195F099C
:1025C0005093AA014093A901CE14DF0420F4B7016F
:1025D000C6010E94D121E091A501F091A601809150
:1025E000A9019091AA01E80FF91F108260CF603213
:1025F00009F48ACFCE0101960E94FC0D8D819E8147
:10260000CC24CA94DC2C7601892B59F089819A81DB
:10261000C12CD12C7601009721F00E94DF1E6B01A6
:102620007C01D701C6010197A109B109C297A10593
:10263000B10540F480914E0381110E945A06C601F3
:102640000E942F05CE0101960E94A30D3DC0863544
:10265000D9F58091A9019091AA01029729F1809161
:10266000A9019091AA010297A9F1CE0101960E94B9
:10267000D30D01E010E08091A9019091AA01081703
:10268000190708F05FC0C8010E94D702DC016C91F5
:1026900080ED860F8A3008F04EC0CE0101960E9470
:1026A0001F0E0F5F1F4FE7CF81E090E00E94D7021F
:1026B000DC018C918F3399F687EA91E00E94BB0789
:1026C000809151030E94920D85EA91E00E94FC0DD9
:1026D0000C94E11C81E090E00E94D702FC01808113
:1026E0008B32A9F480915103082F10E081E090E033
:1026F0000E94D702DC018C918B3291F40F5F1F4F47
:10270000C8010F31110594F08EE190E00FC081E017
:1027100090E00E94D702FC0180818D3219F3A5CF91
:102720000150110980E00F3F100751F70E941C056E
:1027300089E991E0C3CF603209F4B3CFCE010196AD
:102740000E94FC0D8D819E81892BC1F089819A8127
:102750000097C1F00E94DF1E6F3171058105910560
:1027600008F070CF862F0E941C0587E891E00E9438
:10277000BB07809151030E94920D64CF6FEF7FEFF2
:10278000CB01EACF60E070E0CB01E6CF015011F061
:102790000C94ED1C25E0E22E06E010E0FF24F394FB
:1027A00080919E0490919D04891334C585E0D82EB4
:1027B00092E0F92EEE24E3948091670490916604F0
:1027C000891709F45BC58D9DF0011124E25CFB4F74
:1027D000108190E001968770992780936704C12E3D
:1027E000E894C1F8812F897F19F0A8E0CA1219C6B0
:1027F00080918901882391F08091900181110CC012
:1028000061E089E00E943A038CEC91E00E94BB07F2
:1028100087EC91E00E94DD0C10928901123009F0E2
:102820008AC580919B018E2580939A0100918F012A
:10283000002311F40C94141E112309F49FC5E09297
:102840008E01809197018111B7CF809195018823E6
:1028500009F4B2CF80910001823009F4ADCF8091AC
:1028600093018111A9CFC110A7CF8091990188232D
:1028700009F4F3C50E94871E22E030E040E050E0FA
:102880000E94271F00E310E0672B682B692B11F0D3
:1028900001E310E080919101813009F0F2C550E030
:1028A00040E064E0C8010E948A061092950184CF3E
:1028B00081FF70CF81E70E945F0B40E062E00C94E3
:1028C000FE1CDC014D91CD01DB014D93BD010C944B
:1028D0003E1D80911A0492E1989FF0011124EE5A56
:1028E000FC4FC48AD58AE68AF78A108F41A352A387
:1028F00063A374A321E025A3899FA001112430E0E4
:1029000020E0211778F42830310561F0F40191912D
:102910004F01FA01E20FF31FEE5AFC4F918F2F5F28
:102920003F4FEFCF8F5F8A3010F40C94A91D1092A7
:102930001A040E94FB032B013C0190E3C91691E0AD
:10294000D906E104F10409F049C0112311F40C94F3
:10295000EC1C998580911F04981390931F04892F74
:102960008C7039F4809121048823A9F080E090FFD5
:1029700012C080911E0481110EC081E08093220458
:102980000E94FB0360932304709324048093250426
:102990009093260481E080931E048985909198018C
:1029A0009F7E382F3F7E80939801209187012F5F73
:1029B000209387012091970120939601482F4C7016
:1029C00021E009F420E020939701953409F472C1C5
:1029D000353409F07BC11092950178C1FCEFCF1618
:1029E000F2E0DF06E104F10409F069C0133010F4ED
:1029F0000C94EC1C498A5A8A6B8A7C8A1A85012FAE
:102A00000170902E12FBCC24C0F814FBDD24D0F80A
:102A100016FB112710F98B85282F2170E22E82FBDF
:102A2000FF24F0F841E150E04C0F5D1F5A834983C9
:102A300082E593E09C838B8301E020E0492D609147
:102A400038048B2D9A2D0E94430C03E022E04C2D7C
:102A5000609139048B2D9A2D0E94430C05E024E0EF
:102A60004D2D60913A048B2D9A2D0E94430C07E066
:102A700026E0412F60913B048B2D9A2D0E94430C40
:102A800009E028E04E2D60913C048B2D9A2D0E9488
:102A9000430C0BE02AE04F2D60913D048B2D9A2DC5
:102AA0000E94430C90923804C0923904D0923A04A8
:102AB00010933B04E0923C04F0923D048DC754EB2C
:102AC000C51651E0D506E104F10409F03DC0163009
:102AD00010F40C94B21D9E8581E0292F227091FF85
:102AE00080E090916804891709F476C780936804A0
:102AF00061E0211160E040917D0450E09A012F5F78
:102B00003F4F2370332780917E04821306C0C90192
:102B100001968370992780937E0435E0349FC0012D
:102B2000359F900D11248E5A9C4FFC01E95EFE4F9B
:102B30006083885E9E4FDC014D925D926D927C9227
:102B4000139720937D0448C7BAE3CB16B2E0DB06A7
:102B5000E104F10409F07EC0133008F43DC74B8551
:102B60002091A50442131AC08091A1049091A2045F
:102B7000A091A304B091A40473016201C81AD90AF8
:102B8000EA0AFB0A80919F049091A004B0E0A0E0C3
:102B9000C816D906EA06FB0608F41EC7413009F438
:102BA0004EC0443009F44DC0403409F44CC013E029
:102BB000421709F411C720919D0430E0C901019624
:102BC000B1010E94C11FFC0180919E048E1307C0B9
:102BD000CF010196B1010E94C11F80939E0455E070
:102BE000529FC001539F900D11248E5A9C4FDC01BF
:102BF000A35DBE4F1C93825D9E4FDC014D925D92A2
:102C00006D927C921397E0939D044093A5044092AB
:102C1000A1045092A2046092A3047092A404111122
:102C200014C082E08093A7044093A6044092A804B5
:102C30005092A9046092AA047092AB04CDC610E031
:102C4000BACF11E0B8CF12E0B6CF113069F71093C8
:102C5000A704EACFBAEFCB16B2E0DB06E104F10439
:102C600009F080C7123008F4B7C69A8581E0292F91
:102C7000287093FF80E090919B01891709F4ACC6FE
:102C800080939B01222399F08CE293E00E946F0DC8
:102C900080919A01882309F49FC681E0809399016D
:102CA00010929A0182E093E00E946F0D95C684EE27
:102CB00092E0FACF353409F48ECE8F7B39F481E07F
:102CC000809395018FEA92E00E946F0D80919701A9
:102CD00090919601992361F081117EC680919401B3
:102CE000882319F081E08093930180E992E0DCCFA2
:102CF000882309F471C610929301109299011092E1
:102D00009A0186E892E00E946F0D81E08093200492
:102D100063C6823079F481E08093920180919101C1
:102D2000813009F459C681E090E00E94350C0E9480
:102D3000710D52C6813009F04FC61092920182E0A7
:102D400090E00E94350C80919101833009F044C6D7
:102D50001092910141C64E31F1E05F0709F430C78E
:102D6000453E5105A1F008F072C04C3D5105A9F453
:102D70000EC0813009F043C710929401453E5105C1
:102D800031F008F04EC04C3D510509F054C091E0BF
:102D9000823009F090E090939001823009F036C2C1
:102DA00080910101909102014817590709F05AC01A
:102DB00081E090910001923009F480E0509302018B
:102DC0004093010192E090930001882309F404C626
:102DD000453A510509F4F5C108F0F9C04E325105E4
:102DE00009F4F5C108F08CC00FE110E04B3151053A
:102DF00009F444C008F061C003E010E0403151051F
:102E0000E9F108F045C005E110E04D305105B1F1A0
:102E100058F507E110E04115510581F10EE010E091
:102E20002DC0403301E0500709F4B1CF423311E027
:102E3000510709F4ACCF809101019091020148172C
:102E4000590709F0C9C581E080930001C5C5403329
:102E500021E0520709F49BCF423331E0530709F0D8
:102E60009CCF95CF81E0AACF0BE010E04E3051050A
:102E700029F00CE010E04F30510581F6809191016E
:102E8000813009F0A7C161E0C8010E948A06A4C58B
:102E90000AE010E04231510589F304E010E04231CC
:102EA000510560F309E010E04331510539F308E0C2
:102EB00010E04931510511F3B1CF07E010E0403285
:102EC0005105E1F230F44E31510589F501E210E08F
:102ED000D5CF09E210E04432510581F250F441327D
:102EE0005105A1F34332510509F098CF0AE210E0F1
:102EF000C5CF4632510531F14732510539F38ECFF6
:102F00004B35510509F463C1A8F506E210E04734DA
:102F1000510509F4B3CFC8F405E010E0473351057B
:102F200009F4ACCF38F44133510509F077CF00E212
:102F300010E0A4CF4F33510509F4F5C042345105D8
:102F400009F06CCF06E010E099CF4F34510509F439
:102F500038C138F407E210E04A34510509F48ECF45
:102F60005DCFCA0187559109039708F057CF08E153
:102F700010E084CF4B38510509F4EAC058F400E161
:102F800010E04137510509F479CF88F74F365105E4
:102F900071F344CF0DE110E04E38510509F46ECFC6
:102FA00058F44C38510509F409C14D38510509F060
:102FB00035CF0CE110E062CF4F38510509F4FBC06A
:102FC00002E110E0443A510509F458CF27CF4033CD
:102FD00071E0570709F449C008F070C04C3D510535
:102FE00009F443C078F5463C5105E8F4443C5105EA
:102FF00008F0BDCF04E110E0473A510509F43ECF97
:1030000001E110E0473A510508F438CF02E210E040
:10301000463B510509F432CF08E210E0483B510528
:1030200009F42CCFFBCE443D510509F44FCF03E208
:1030300010E0453D510509F421CF4D3C510509F003
:10304000EDCE80CF0EE110E0493091E0590709F450
:1030500015CFA8F44E3E510558F44C3E510508F0EA
:1030600045CF453E510509F0D9CE06E110E006CF27
:103070004130540709F0D2CE04E210E0FFCE4C31CB
:10308000E1E05E0759F068F4433101E0500709F4CC
:103090008FC0493111E0510709F0C0CE0CE210E0B9
:1030A000EDCE4E3121E0520709F482C00FE010E06E
:1030B0004F3231E0530709F4E1CEB0CE4B3A71E024
:1030C000570709F403CF90F5463791E05907D0F43C
:1030D0004337A1E05A0708F04ACF4B35B1E05B0710
:1030E00058F44935E1E05E0708F041CF4233F1E0A2
:1030F0005F0709F4BACF92CE4F3601E0500709F4CA
:10310000BBCF8CCE4E3711E0510709F4EFCE30F42F
:103110004A3731E0530708F02ACF80CE403871E0BB
:10312000570709F07BCE05E210E0A8CE0DE210E0D3
:10313000493E83E0580709F4A1CEB8F44136A2E035
:103140005A07C9F140F44036E2E05E0709F066CE66
:1031500009E110E093CE4236F2E05F0779F14336A1
:1031600002E0500709F425CF59CE4C3E13E0510739
:1031700059F178F40EE210E04A3E33E0530709F4C7
:103180007DCE0FE210E04B3E73E0570709F476CE98
:1031900045CE01E310E04D3E83E0580709F46ECEC2
:1031A00002E310E04E3E93E0590709F467CE36CEB5
:1031B00003E110E063CE0AE110E060CE0BE110E025
:1031C0005DCE0BE210E05ACE00E310E057CE02E0F5
:1031D00010E054CE82E090E00E94350C80914E03C6
:1031E00081110E945A06C8010E942F0582E0809337
:1031F000910185EB91E00E94BB07B80190E080E06F
:103200004AE00E94870C0E94D50CE6C3813009F089
:10321000E3C311CE8E9DF0011124E158FB4F2081B4
:1032200090E00196B8010E94C11F80939E04211175
:103230001DC0F0928F0110928E010E94FB0360541A
:103240007B428E4F9F4F60938A0170938B018093D6
:103250008C0190938D011092990110929A01F09235
:10326000890186E592E00E946F0D9ACA213009F02B
:1032700097CA109289018BE492E0F5CF80918F017B
:10328000811116C10E94710D80912004882309F4D8
:10329000A4C10E94FB036B017C018091220488235E
:1032A000F1F180911E048823D1F180912304909143
:1032B0002404A0912504B0912604B701A601481B5F
:1032C000590B6A0B7B0B8091310490913204B0E072
:1032D000A0E0481759076A077B0708F110922204FB
:1032E00081E08093330420912D0430912E0480914D
:1032F0002B0490912C042817390708F4C9012601E2
:103300003701480E591E611C711CD301C201809304
:10331000340490933504A0933604B093370480911D
:103320003304882309F459C190911E049111DBC024
:103330001092330452C1111179CA00918F010023F8
:1033400009F474CA80919501811170CA80918E012F
:10335000882309F455C080914E0381110E945A06BA
:1033600081E090E00E942F05E092910185ED91E0CF
:103370000E946F0D10928F0110928E01809168044F
:10338000811118C08091910190918F0191114DC0D0
:10339000813009F44CC080914E0381110E945A067D
:1033A00082E390E00E942F05F09291018EE292E07C
:1033B0000E946F0D809197018111FEC98091930148
:1033C000882309F437C480914E03882341F020916B
:1033D0004F03309150032130310509F42BC49091F3
:1033E0009101913061F550E040E062E08DE290E0C3
:1033F0000E948A0610929301002309F4DDC921CAB4
:1034000080908A0190908B01A0908C01B0908D01EA
:103410000E94FB03681979098A099B0997FD9BCFD4
:1034200005CA1111C9C900E0A9CF813019F650E0D1
:1034300040E063E082E390E00E948A06BBCF811106
:103440000E945A068DE290E00E942F05F0929101B1
:1034500081E192E00E946F0DCDCF1111ADC90E94A4
:10346000871E22E030E040E050E00E94271F0EE27D
:1034700010E0672B682B692B09F40CCA0FE210E0EF
:1034800009CA80914E0381110E945A06C8010E9408
:103490002F05F092910180E092E00E94BB07B801F5
:1034A00090E080E04AE00E94870C0E94D50CFDC9A4
:1034B00080918E018111E6CEC0908A01D0908B015F
:1034C000E0908C01F0908D010E94FB036C197D0946
:1034D0008E099F0997FDD6CE10928F0187EE91E05D
:1034E0000E946F0DCFCE409134045091350460910D
:1034F00036047091370497018601041B150B260BC7
:10350000370BB901A80177FD68C0833009F4BFC04B
:1035100028F58130D9F1823009F00ACF20912B04AF
:1035200030912C0480912D0490912E0482179307E2
:1035300008F4AAC00E94020B80912F0490913004DD
:10354000C80ED91EE11CF11CC0923404D09235047F
:10355000E0923604F092370483E03DC0843009F4F1
:10356000B0C0853009F0E4CE20912B0430912C04BA
:1035700080912D0490912E0463E08217930708F444
:10358000D5C080E191E00E94B409D2CE20912B04F5
:1035900030912C0480912D0490912E048217930772
:1035A00008F467C00E94D40A80912D0490912E04E3
:1035B00020912B0430912C04821B930BC80ED91E32
:1035C000E11CF11CC0923404D0923504E092360420
:1035D000F092370482E08093330480914E03882375
:1035E00031F00E941603019711F40E945A06F090E0
:1035F0004E0380918801882309F4DEC0F110DCC0FD
:103600000AE060911002662309F4A7C2ECEAF1E037
:1036100030E020E08FEF9FEF261708F08AC0522F8E
:10362000432F8F3F9807F9F01081089FD001099F21
:10363000B00D1124A455BE4F7C917117A0F0171343
:1036400010C086809780A084B18416964D905D90BE
:103650006D907C90199784189508A608B708B7FC58
:1036600002C0582F492F2F5F3F4F3A96852F942F36
:10367000D3CF0E94020B80912B0490912C042091B7
:103680002D0430912E0498CF0E94D40A55CF20915A
:103690002D0430912E0480912B0490912C04281736
:1036A000390708F4C901C80ED91EE11CF11CC092EB
:1036B0003404D0923504E0923604F092370484E06A
:1036C0008ACF20912B0430912C0480912D0490916D
:1036D0002E0463E082179307E0F083E191E00E94FB
:1036E000B40980912D0490912E0420912B043091E7
:1036F0002C04821B930BC80ED91EE11CF11CC09236
:103700003404D0923504E0923604F092370485E018
:1037100062CF80E191E00E94B40980912B049091E6
:103720002C0420912D0430912E04E3CF83E191E00D
:103730002ACF089FF001099FF00D1124E455FE4F98
:10374000C180D280138144815581782F8F5F809F03
:10375000C001112430E020E07F5F761790F4FC0177
:10376000E20FF31FE455FE4FDF011A970F2EFAE028
:10377000EF2EF02D01900D92EA94E1F7265F3F4F76
:10378000EBCF615060931002123009F462C048F52B
:10379000112309F442C0113091F180914E0381113F
:1037A0000E945A06C6010E942F05112309F45FC02A
:1037B00082E0153008F45CC0F092880162E070E0AD
:1037C00080E090E00E94C90380E090E0892B09F43A
:1037D000EDC00E943807882309F4E8C00E94000069
:1037E000E5C0133009F43EC01430B9F6809197015A
:1037F000811107CF80910001823079F602CF80914C
:103800000001823009F0FDCE80910101909102010A
:103810008417950709F0F5CEC0CF80918F018823DA
:1038200009F4EFCE80918E01882311F010E0B5CF1E
:1038300080908A0190908B01A0908C01B0908D01B6
:103840000E94FB03681979098A099B0997FDEECF4D
:10385000D8CE809197018111D4CE809193018111AE
:103860009CCFCFCE809168048111CBCE96CF81E0E2
:1038700080939101A1CF80E00E94410D48E353E085
:1038800060E070E080E00E94E90C4AE352E060E012
:1038900070E081E00E94E90C81E00E94410D4CEF54
:1038A00052E060E070E082E00E94E90C40E351E009
:1038B00060E070E083E00E94E90C44EB51E060E0DE
:1038C00070E084E00E94E90C4AEF52E060E070E0B2
:1038D00085E00E94E90C1092650380E00E941109C6
:1038E00060E088E00E94680382E191E00E946F0D31
:1038F00081E0809320041092210484E091E0909371
:103900002804809327048CE795E190932A04809300
:1039100029048CE190E090932C0480932B0483E2A3
:1039200090E090932E0480932D0488EE93E0909382
:10393000300480932F0480EA9FE0909332048093B8
:10394000310410924B0361E087E00E94680361E05C
:1039500086E00E94680362E085E00E94680360E000
:1039600086E00E943A0310924D0360E087E00E94D7
:103970003A0310924C0380E480937C0080917A009B
:10398000806480937A0080917A0086FDFCCF6091FC
:10399000780070917900072E000C880B990B611547
:1039A00071058105910511F00E94D61E80917F015D
:1039B000811107C085EA91E00E94D30D81E08093D8
:1039C0007F0185E192E00E942C07892B11F00C9475
:1039D000361246E0242E312C06E00E94E20B837062
:1039E00011F40C94CA130E94E20B80FD02C00C94E7
:1039F000581481E60E945F0B40E061E08CE20E9477
:103A0000CE0880915203882389F0809153039091CE
:103A10005403A0915503B0915603B06880935303AB
:103A200090935403A0935503B09356038091600381
:103A3000882389F08091530390915403A0915503FA
:103A4000B0915603B0648093530390935403A093B2
:103A50005503B0935603C0905303D0905403E090A5
:103A60005503F09056031091570388E593E0FE014B
:103A70003196BF01BE2EAF2E212F30E0AB014E1B81
:103A80005F0B4217530714F40C9461144E01B9E014
:103A90008B0E911CD40180E0811731F0883021F029
:103AA00091919D938F5FF8CF0E94FB03AB01BC0106
:103AB00040901C0450901D0420911B042F8BE2E5C4
:103AC000F3E020E0C201B0E0A0E08D8F9E8FAF8FC9
:103AD000B8A3BF89B21711F40C9469142A3011F4F9
:103AE0000C94691485A1882389F141A052A063A098
:103AF00074A0DB01CA0184199509A609B7094D8C88
:103B00005E8C6F8C78A0481659066A067B06F0F02A
:103B100084899589A689B789C816D906EA06FB065D
:103B2000A9F4808D181312C0240190E080E0811761
:103B300010F00C94C613DF01A80FB91F59967C90A2
:103B4000D2013D912D010196731689F32F5F729674
:103B5000C0CF80931A040C9499140E94710D109296
:103B600091012ACEA8E3CA16A3E0DA06E104F10423
:103B700009F032CF183008F42FCF8E858E3F09F030
:103B80002BCF8F858E3F09F027CF88898E3F09F094
:103B900023CF49855A858B854E32510509F4B9C822
:103BA0004B35510509F4B5C89A01255831402230EA
:103BB000310508F4AEC84331E1E05E0709F0CBC837
:103BC000823009F0D6C890919701992319F091E0BD
:103BD00090939401453E510509F4D9C828F44C3D11
:103BE000510509F0DDC8D3C84033B1E05B0709F4E3
:103BF000CEC84233E1E05E0709F0D2C8C8C8453EEE
:103C0000510509F4C4C828F44C3D510509F0E4CE2F
:103C1000BEC84033F1E05F0709F4B9C8423301E0A0
:103C2000500709F0D9CEB3C801E0112309F4A6CB9F
:103C30000C94211401110C9425140C94DC138CE2C7
:103C400091E09093B4028093B3028091130290911B
:103C50001402835B924071F4E091C602F091C702B6
:103C600090818091C80280958923808310921402EC
:103C70001092130208958F929F92AF92BF92CF92AB
:103C8000DF92EF92FF92CF93DF93EC01688179810D
:103C90008A819B81611571058105910521F464E29A
:103CA00079ED8BE597E02DE133EF41E050E00E94A4
:103CB000271F49015A019B01AC01A7EAB1E40E9408
:103CC000461F6B017C01ACEEB4EFA50194010E948C
:103CD000541FC60ED71EE81EF91EF7FE06C081E06F
:103CE000C81AD108E10880E8F80AC882D982EA82B5
:103CF000FB82C701B6019F77DF91CF91FF90EF90D4
:103D0000DF90CF90BF90AF909F908F9008958F924B
:103D10009F92AF92BF92CF92DF92EF92FF9260910B
:103D200003017091040180910501909106016115D4
:103D300071058105910521F464E279ED8BE597E049
:103D40002DE133EF41E050E00E94271F49015A0165
:103D50009B01AC01A7EAB1E40E94461F6B017C0104
:103D6000ACEEB4EFA50194010E94541FC60ED71EFD
:103D7000E81EF91EF7FE06C081E0C81AD108E10866
:103D800080E8F80AC0920301D0920401E092050194
:103D9000F0920601C701B6019F77FF90EF90DF9088
:103DA000CF90BF90AF909F908F9008956093030144
:103DB00070930401809305019093060108951F9369
:103DC000FC0199278827BC01E89411911032E9F38E
:103DD000193010F01E30C8F31B3251F01D3249F477
:103DE000689406C00E94061F610F711D811D911D00
:103DF000119110531A30B0F33EF490958095709560
:103E000061957F4F8F4F9F4F1F910895592F482FD6
:103E1000372F262F660F771F881F991F660F771F72
:103E2000881F991F620F731F841F951F660F771FCE
:103E3000881F991F089591110C94241F803219F046
:103E400089508550C8F70895992788270895052E29
:103E500097FB1EF400940E943E1F57FD07D00E945E
:103E6000901F07FC03D04EF40C943E1F50954095D4
:103E7000309521953F4F4F4F5F4F08959095809516
:103E8000709561957F4F8F4F9F4F08950E94B21F8D
:103E9000A59F900DB49F900DA49F800D911D11249E
:103EA0000895B7FF0C94461F0E94461F821B930B78
:103EB00008952F923F924F925F926F927F928F92CE
:103EC0009F92AF92BF92CF92DF92EF92FF920F93A9
:103ED0001F93CF93DF93CDB7DEB7CA1BDB0B0FB6B3
:103EE000F894DEBF0FBECDBF09942A883988488870
:103EF0005F846E847D848C849B84AA84B984C88406
:103F0000DF80EE80FD800C811B81AA81B981CE0FFC
:103F1000D11D0FB6F894DEBF0FBECDBFED010895E1
:103F2000A1E21A2EAA1BBB1BFD010DC0AA1FBB1FBD
:103F3000EE1FFF1FA217B307E407F50720F0A21B2F
:103F4000B30BE40BF50B661F771F881F991F1A949C
:103F500069F760957095809590959B01AC01BD01C6
:103F6000CF010895A29FB001B39FC001A39F700D20
:103F7000811D1124911DB29F700D811D1124911D71
:103F8000089597FB072E16F4009407D077FD09D00B
:103F90000E94D51F07FC05D03EF4909581959F4F58
:103FA0000895709561957F4F0895AA1BBB1B51E141
:103FB00007C0AA1FBB1FA617B70710F0A61BB70B99
:103FC000881F991F5A95A9F780959095BC01CD013E
:103FD0000895EE0FFF1F0590F491E02D09940F93C3
:103FE0001F93CF93DF938230910510F482E090E02D
:103FF000E091AE04F091AF0430E020E0B0E0A0E04A
:10400000309799F42115310509F44AC0281B390B62
:1040100024303105D8F58A819B816115710589F1BC
:10402000FB0193838283FE0111C040815181028193
:10403000138148175907E0F04817590799F410976A
:1040400061F012960C93129713961C933296CF013F
:10405000DF91CF911F910F9108950093AE041093BB
:10406000AF04F4CF2115310551F04217530738F052
:10407000A901DB019A01BD01DF01F801C1CFEF0108
:10408000F9CF9093AF048093AE04CDCFFE01E20F41
:10409000F31F819391932250310939832883D7CF1D
:1040A0002091AC043091AD04232B41F420910901FF
:1040B00030910A013093AD042093AC0420910701A4
:1040C000309108012115310541F42DB73EB74091DB
:1040D0000B0150910C01241B350BE091AC04F091C5
:1040E000AD04E217F307A0F42E1B3F0B2817390786
:1040F00078F0AC014E5F5F4F2417350748F04E0F44
:104100005F1F5093AD044093AC04819391939FCF74
:10411000F0E0E0E09CCFCF93DF930097E9F0FC0163
:10412000329713821282A091AE04B091AF04ED01D8
:1041300030E020E01097A1F420813181820F931F9D
:104140002091AC043091AD042817390709F061C003
:10415000F093AD04E093AC04DF91CF910895EA01B0
:10416000CE17DF07E8F54A815B819E0141155105B5
:10417000B1F7E901FB83EA8349915991C40FD51F37
:10418000EC17FD0761F4808191810296840F951FE1
:10419000E90199838883828193819B838A83F0E0FC
:1041A000E0E012968D919C9113970097B9F52D91AF
:1041B0003C911197CD010296820F931F2091AC0480
:1041C0003091AD042817390739F6309751F5109220
:1041D000AF041092AE04B093AD04A093AC04BCCF76
:1041E000D383C28340815181840F951FC817D9079B
:1041F00061F44E5F5F4F88819981480F591F518349
:1042000040838A819B81938382832115310509F044
:10421000B0CFF093AF04E093AE049ECFFD01DC017C
:10422000C0CF13821282D7CFB0E0A0E0EAE1F1E282
:104230000C945B1F8C01009751F4CB010E94EF1F7F
:104240008C01C801CDB7DEB7E0E10C94771FFC010B
:10425000E60FF71F9C0122503109E217F30708F41B
:104260009DC0D901CD91DC911197C617D70798F061
:10427000C530D10530F3CE0104978617970708F3B0
:10428000C61BD70B2297C193D1936D937C93CF011B
:104290000E948B20D6CF5B01AC1ABD0A4C018C0E5C
:1042A0009D1EA091AE04B091AF04512C412CF12C75
:1042B000E12C109731F58091AC049091AD048815F4
:1042C000990509F05CC04616570608F058C0809161
:1042D000070190910801009741F48DB79EB7409176
:1042E0000B0150910C01841B950BE817F90708F09E
:1042F00055C0F093AD04E093AC04F9017183608381
:10430000A0CF8D919C91119712966C901297139655
:104310007C901397A815B90559F56C0142E0C40EBD
:10432000D11CCA14DB0420F1AC014A195B09DA0183
:104330001296159780F06282738251834083D9016F
:104340006D937C93E114F10471F0D7011396FC9303
:10435000EE93129776CF22968C0F9D1FF9019183D1
:104360008083F301EFCFF093AF04E093AE0469CF05
:104370004816590608F42C017D01D3019ACFCB01D0
:104380000E94EF1F7C01009749F0AE01B8010E9426
:10439000D121C8010E948B20870153CF10E000E09B
:1043A00050CFFB01DC0102C001900D924150504002
:1043B000D8F70895FB01DC0101900D920020E1F790
:1043C0000895FB01DC014150504048F001900D92EE
:1043D0000020C9F701C01D9241505040E0F70895F8
:1043E00012E0C3E6D2E004C0FE010E94E91F21965C
:0A43F000C436D107C9F7F894FFCFD7
:1043FA00FFFFFF010000000000B0048000304050C1
:10440A00302100302000000000006E07CE06FB06B7
:10441A00D6072C070A071E07000000000F08CE0661
:0E442A00A2080E086B088108F6070D0A0000B4
:00000001FF
