:100000000C9490020C94B8020C94B8020C941D0F3E
:100010000C941D0F0C941D0F0C94B8020C94B80294
:100020000C94B8020C94B8020C94B8020C94B80268
:100030000C94B8020C94B8020C94B8020C94B80258
:100040000C947B0E0C94B8020C94EB0E0C94C50E21
:100050000C94B8020C94B8020C94B8020C94B80238
:100060000C94B8020C94B8025B504C41595D20537B
:1000700065617462656C74205432206C6F6F70001F
:1000800052657475726E696E6720746F2050726568
:1000900076696F7573204D6F6465204661696C7574
:1000A00072652E2E2E0053657474696E672042614E
:1000B00075647261746520537563636573736675E7
:1000C0006C2100456E746572696E6720436F6E66C1
:1000D000696775726174696F6E204D6F6465205336
:1000E00075636365737366756C2100456E74657224
:1000F000696E6720436F6E66696775726174696FB8
:100100006E204D6F6465204661696C7572652E2E98
:100110002E004D435032353135204F4B2028384D7D
:10012000487A2C203130306B62707329004D435077
:100130003235313520696E6974204641494C00538F
:1001400074617274696E67206D61696E3A205765DB
:100150006C636F6D652F434349442F53656174622F
:10016000656C742F4675656C2F476F6F6462796597
:100170002F526164696F202B204B4F4D4249202B39
:10018000205175657565005B434C495D20766F6C49
:10019000756D652073657420005B434C495D207666
:1001A0006F6C756D653D005B434C495D20766F6CEF
:1001B000756D653D005B504C41595D20434349449A
:1001C0002054004C4F570048494748005B52414477
:1001D000494F5D20005B504C41595D2057656C6371
:1001E0006F6D65205431005B57454C434F4D455D65
:1001F0002077696E646F7720657870697265640036
:100200005B504C41595D20476F6F646279652054A3
:10021000005B504C41595D204C6F772D6675656CC5
:100220002072656D696E64657220543435005B50D0
:100230004C41595D2048616E646272616B65207744
:1002400061726E696E6720543530005B4B45595DB5
:10025000204C4F434B005B4B45595D20554E4C4F56
:10026000434B202D3E2077656C636F6D6520617276
:100270006D65643B20726164696F20776169747396
:1002800020646F6F72005B4B4C31355D204F4E0028
:100290005B4B4C31355D204F46463B206675656CA7
:1002A0002072656D696E642061726D65643F005BEC
:1002B0004B4C31355D20456E67696E652053544F58
:1002C00050202834352F3535202D3E2034302F3026
:1002D0003029203D3E20476F6F646279652041528E
:1002E0004D4544005B504C41595D2053706F727412
:1002F000204F464620543533005B425554544F4EF0
:100300005D2053706F7274204D6F6465204F4646B8
:10031000005B504C41595D2053706F7274204F4EFA
:1003200020543532005B425554544F4E5D2053707B
:100330006F7274204D6F6465204F4E005B4169728F
:100340004261675D2050617373656E676572206EF0
:100350006F7420736561746564005B41697242610A
:10036000675D2050617373656E67657220434F4E01
:100370004649524D45442028646F6F722D3E736587
:10038000617429005B4169724261675D205061734D
:1003900073656E6765722073656174656400000043
:1003A0000000240027002A000000000800020100CD
:1003B000000304070000000000000000536574748F
:1003C000696E67204D61736B20537563636573734A
:1003D00066756C210053657474696E67204D617396
:1003E0006B204661696C7572652E2E2E00456E7409
:1003F0006572696E672050726576696F7573204DFE
:100400006F6465204661696C7572652E2E2E0045FD
:100410006E746572696E6720436F6E666967757288
:100420006174696F6E204D6F6465204661696C75FB
:1004300072652E2E2E005374617274696E6720747B
:100440006F20536574204D61736B21005365747484
:10045000696E672046696C746572205375636365C5
:10046000737366756C210053657474696E672046FA
:10047000696C746572204661696C7572652E2E2EEA
:1004800000456E746572696E672050726576696F9B
:100490007573204D6F6465204661696C7572652EB9
:1004A0002E2E00456E74657220436F6E6669677507
:1004B000726174696F6E204D6F6465204661696C6E
:1004C0007572652E2E2E005374617274696E6720EA
:1004D000746F205365742046696C74657221000046
:1004E000000000230026002900000000002500284D
:1004F000002B0004040404040404040202020202A7
:1005000002030303030303010204081020408001D7
:10051000020408102001020408102000950FFD1E9F
:1005200011241FBECFEFD8E0DEBFCDBF11E0A0E0A9
:10053000B1E0E6EBF5E402C005900D92AE33B107F1
:10054000D9F724E0AEE3B1E001C01D92A13BB207B0
:10055000E1F712E0CFE8D2E004C02197FE010E944B
:10056000C720CE38D107C9F70E94FD100C94CE22C7
:100570000C9400008CBD9DBD0895CF93DF93CDB743
:10058000DEB72A970FB6F894DEBF0FBECDBF282F77
:100590008091D3029091D402009751F13EE73983C4
:1005A0003FEF3A8336E03B832C831D82472F50E098
:1005B0007E836F83640F752F711D6B5F7E4F260FD7
:1005C000372F311D319521953109388729872FEE35
:1005D0002A87DC01ED91FC910280F381E02D4AE055
:1005E00050E0BE016F5F7F4F099521E00A9709F047
:1005F00020E0822F2A960FB6F894DEBF0FBECDBF43
:10060000DF91CF9108952091AA013091AB0182171B
:10061000930738F42091A6013091A70121153105E7
:1006200029F41092AC018CEA91E00895820F931F97
:100630000895833081F028F4813099F08230A9F058
:1006400008958730A9F08830C9F08430B1F48091E2
:1006500080008F7D03C0809180008F778093800021
:10066000089584B58F7784BD089584B58F7DFBCFC1
:100670008091B0008F778093B00008958091B00092
:100680008F7DF9CFCF93DF93EDEAF3E08491ECE037
:10069000F5E0D491E8EFF4E0C491CC23A1F081110E
:1006A0000E941903EC2FF0E0EE0FFF1FE152FB4F09
:1006B000A591B491EC91ED2381E090E009F480E004
:1006C000DF91CF91089580E090E0FACF1F93CF9310
:1006D000DF93282F30E0F901E855FC4F8491F901B0
:1006E000E95FFA4FD491F901ED50FB4FC491CC234F
:1006F000A9F0162F81110E941903EC2FF0E0EE0FE4
:10070000FF1FE751FB4FA591B4918FB7F894EC917F
:10071000111108C0D095DE23DC938FBFDF91CF91FC
:100720001F910895DE2BF8CFCF93DF9390E0FC016B
:10073000E95FFA4F24918D509B4FFC0184918823EF
:10074000C9F090E0880F991FFC01E256FC4FA5917B
:10075000B491FC01E751FB4FC591D49161110DC0DB
:100760009FB7F8948C91209582238C9388812823BD
:1007700028839FBFDF91CF910895623051F49FB7D6
:10078000F8943C91822F809583238C93E8812E2BC3
:10079000EFCF8FB7F894EC912E2B2C938FBFEACF2D
:1007A0003FB7F8948091A2019091A301A091A40178
:1007B000B091A50126B5A89B05C02F3F19F0019661
:1007C000A11DB11D3FBFBA2FA92F982F8827BC01AB
:1007D000CD01620F711D811D911D42E0660F771FD3
:1007E000881F991F4A95D1F708958F929F92AF92D3
:1007F000BF92CF92DF92EF92FF924B015C010E9479
:10080000D0036B017C010E94D0036C197D098E0915
:100810009F09683E734081059105A8F321E0821A83
:100820009108A108B10888EEC80E83E0D81EE11C2B
:10083000F11C81149104A104B10429F7FF90EF90F9
:10084000DF90CF90BF90AF909F908F9008952FB77B
:10085000F89460919E0170919F018091A001909108
:10086000A1012FBF08958F929F92AF92BF92CF9216
:10087000DF92EF92FF92CF93DF93EC016B010E9426
:1008800027044B015C01F12CE12C0E94270468191C
:1008900079098A099B096C157D058E059F0560F411
:1008A0000E9442038C179D0799F062E070E080E09F
:1008B00090E00E94F503E9CF80E0DF91CF91FF90B7
:1008C000EF90DF90CF90BF90AF909F908F90089562
:1008D00081E0F3CF8F929F92AF92BF92CF92DF923F
:1008E000EF92FF920F931F93CF93DF93CDB7DEB7B5
:1008F0002D970FB6F894DEBF0FBECDBF6C010E94DE
:1009000027044B015C01F12CE12C1DE001E00E9469
:100910002704681979098A099B096C157D058E05DC
:100920009F0508F0A2C08091D3029091D402892B38
:1009300009F489C08091D3029091D402DC01ED9139
:10094000FC910084F185E02D0995892B09F47BC089
:100950008091D3029091D402DC01ED91FC9102844C
:10096000F385E02D0995E091E102E11107C08E3792
:1009700009F78093D7020093E102DCCF91E09E0F4C
:100980009093E102F0E0EC54FD4F83A39A3090F293
:100990008091E0028F3E09F053C02091DA028091ED
:1009A000D8029091D902890F9927991F820F911D22
:1009B0004091DB02480F592F511D8091DC02480FF6
:1009C000511D8091DD02840F952F911D9195819588
:1009D00091093091DE02391333C09091DF029813F0
:1009E0002FC04091DC025091DD028AE0E7EDF2E099
:1009F000DE01149601900D928A95E1F7A0914A03C9
:100A000081E08A0F877090914B03891305C091E0B4
:100A1000980F977090934B032983542745275427A9
:100A20005B834A831A9FD0011124FE013196AE5197
:100A3000BD4F912F01900D929A95E1F780934A0353
:100A40001092E10277CF80914B0390914A0398175F
:100A500029F08F5F877080934B03F5CF62E070E0E1
:100A600080E090E00E94F50352CF2D960FB6F894E7
:100A7000DEBF0FBECDBFDF91CF911F910F91FF90D1
:100A8000EF90DF90CF90BF90AF909F908F900895A0
:100A90008F3108F08EE18093520390914D0399239A
:100AA00049F0682F70E086E00E94BD028AE090E085
:100AB0000C946A040895CF93DF93C1E0D0E00097CF
:100AC00029F0EC01C39710F0C2E3D0E060E086E0CB
:100AD0000E94660310924E0360E086E00E94660367
:100AE00010924E0380914D0381110DC061E087E0AB
:100AF0000E94660381E080934D0364E670E080E02D
:100B000090E00E94F5031092CF021092CE02109254
:100B1000CD021092CC021092CB021092CA028DE943
:100B200091E09093D1028093D0028091C0028631EF
:100B300008F047C02DEB30E03093CB022093CA027F
:100B40002BE931E03093CD022093CC022CE231E04E
:100B50003093CF022093CE022091680094E0883039
:100B600048F031E08E3008F430E091E001C0990F98
:100B70003A95EAF7922B909368002DE630E08830A2
:100B800050F02BE630E08E3030F02CE630E086314D
:100B900010F030E020E03093C8022093C702282FE5
:100BA00030E0883008F08BC091E001C0990F8A9541
:100BB000EAF79093C9028091D0029091D1020197F7
:100BC000F1F78091CE029091CF02892B49F1E0910B
:100BD0001402F091150282E0E43BF80709F1309726
:100BE00039F0A389B4899C918589809589238C9358
:100BF0008091D2028E7F8093D202109213021092C3
:100C0000120284EB92E09093150280931402E0911B
:100C1000C702F091C80280819091C902892B80831C
:100C20006AE070E080E090E00E94F50384EB92E0DF
:100C30009093D4028093D30285E08093D50281E023
:100C40008093D60260E085E00E9494031092E10256
:100C500010924B0310924A03609152036F3108F0D7
:100C60006EE170E086E00E94BD0282E390E00E94A7
:100C70006A04BE0182E10E94BD0288E090E00E9409
:100C80006A0464E670E090E080E00E943304882308
:100C900019F16CE370E080E090E00E94F50361E000
:100CA00086E00E94660381E080934E0380934F03A9
:100CB000D0935103C0935003DF91CF9108958E30AC
:100CC00040F42850310991E001C0990F2A95EAF7C4
:100CD00070CF2E503109F7CF70E060E086E10E94BE
:100CE000BD0284E190E00E946A04BE0182E10E949C
:100CF000BD0288E090E00E946A0464E670E090E043
:100D000080E00E9433048111C4CFD6CF80914E037E
:100D1000882361F060E570E080E090E00E94F503D8
:100D200060E086E00E94660310924E0370E060E08F
:100D300086E10E94BD0284E190E00E946A0460E9BD
:100D400071E081E090E00E94330480914C038111B6
:100D500006C060E087E00E94660310924D03109287
:100D60004F0310925103109250030895DF92EF92B7
:100D7000FF920F931F93CF93DF937C01D62E8A01AE
:100D8000309111023A3090F08DEA91E021E04AE092
:100D9000FC013A96DC0101900D924A95E1F72F5F34
:100DA0000A963213F4CF89E080931102C0911102A8
:100DB00081E08C0F80931102D0E00E9427042AE08A
:100DC0002C9FF0012D9FF00D1124E355FE4F22E0E2
:100DD0002083F282E182D382158304836683778342
:100DE00080879187DF91CF911F910F91FF90EF90B6
:100DF000DF900895AF92BF92CF92DF92EF92FF9271
:100E00000F931F93CF93DF936C017B018B01040F32
:100E1000151FEB015E01AE18BF08C017D10759F0CE
:100E20006991D601ED91FC910190F081E02DC60110
:100E30000995892B79F7C501DF91CF911F910F910A
:100E4000FF90EF90DF90CF90BF90AF900895FC019E
:100E5000538D448D252F30E0842F90E0821B930B1F
:100E6000541710F0CF96089501970895FC01918DC5
:100E7000828D981761F0A28DAE0FBF2FB11D5D96C8
:100E80008C91928D9F5F9F73928F90E008958FEF6A
:100E90009FEF0895FC01918D828D981731F0828D1E
:100EA000E80FF11D858D90E008958FEF9FEF089575
:100EB000FC01918D228D892F90E0805C9F4F821BD9
:100EC00091098F739927089586E192E00E9458074F
:100ED00021E0892B09F420E0822F089580E090E042
:100EE000892B29F00E94640781110C940000089559
:100EF000FC01A48DA80FB92FB11DA35ABF4F2C918F
:100F0000848D90E001968F739927848FA689B78985
:100F10002C93A089B1898C91837080648C93938D7C
:100F2000848D981306C00288F389E02D80818F7D1F
:100F300080830895EF92FF920F931F93CF93DF93D7
:100F4000EC0181E0888F9B8D8C8D98131AC0E88905
:100F5000F989808185FF15C09FB7F894EE89FF89D4
:100F60006083E889F98980818370806480839FBF72
:100F700081E090E0DF91CF911F910F91FF90EF9072
:100F80000895F62E0B8D10E00F5F1F4F0F73112782
:100F9000E02E8C8D8E110CC00FB607FCFACFE889BD
:100FA000F989808185FFF5CFCE010E947807F1CFC6
:100FB000EB8DEC0FFD2FF11DE35AFF4FF0829FB731
:100FC000F8940B8FEA89FB8980818062CFCF0F93E1
:100FD0001F93CF93DF938C01D0E0C0E0F801EC0FBA
:100FE000FD1F6491662341F086E192E00E949A071A
:100FF000892B11F02196F2CFCE01DF91CF911F9175
:101000000F910895CF93DF93EC01888D8823B9F079
:10101000AA89BB89E889F9898C9185FD03C0808103
:1010200086FD0DC00FB607FCF7CF8C9185FFF2CF80
:10103000808185FFEDCFCE010E947807E9CFDF9157
:10104000CF91089520911402309115022817390785
:1010500071F49091120280911302981741F0E0917F
:101060001202F0E0E15CFE4F808190E008958FEF86
:101070009FEF08950895EF92FF920F931F93CF93E0
:10108000DF93DC015C96ED90FC905D97E114F10438
:1010900079F481E090E013969C938E93129790E000
:1010A00080E0DF91CF911F910F91FF90EF90089515
:1010B0005196ED91FC91529750968C915097982FA4
:1010C00090950FB75E962C915E97122F127021FDAE
:1010D0006095F8942081112319F1282B2083E701D2
:1010E0002197F1F728E0462F50E0308160FF1AC0C9
:1010F000382B3083E7012197F1F7BA017595679591
:10110000215089F7112381F08081892380830FBFCB
:101110005C968D919C910197F1F781E090E0C1CFB1
:101120002923DCCF3923E5CF9081892BEFCF209184
:101130001402309115022817390761F480911302C7
:101140002091120290E0805C9F4F821B91098F7367
:101150009927089590E080E008952091140230913D
:10116000150228173907B9F49091120280911302E1
:10117000981789F0E0911202F0E0E15CFE4F808167
:101180002091120230E02F5F3F4F2F7333272093BF
:10119000120290E008958FEF9FEF089590E080E0B5
:1011A000089508958EBD00000DB407FEFDCF8EB5E5
:1011B00008951F93CF93DF93182F80E591E00E944D
:1011C000BA02C3E5D3E060E08A890E94660383E047
:1011D0000E94D208812F0E94D20880E00E94D2088B
:1011E000182F61E08A890E946603812FDF91CF91D9
:1011F0001F910895FF920F931F93CF93DF93F82EC3
:10120000062F142F80E591E00E94BA02C3E5D3E0D7
:1012100060E08A890E94660385E00E94D2088F2DD3
:101220000E94D208802F0E94D208812F0E94D208EB
:1012300061E08A89DF91CF911F910F91FF900C940B
:101240006603CF93DF93C82F0E942704D62F4C2F1D
:1012500060EE8FE00E94FA088EE00E94D908807E3E
:10126000C81749F00E9427046D1B693C80F381E098
:10127000DF91CF91089580E0FBCFCF93DF93C82F0C
:101280008EE00E94D908807E8032F9F4C032E9F005
:101290008BE20E94D908D82FD07486FD05C040E4A7
:1012A00060E48BE20E94FA0840E460E48CE20E9471
:1012B000FA0880E60E942109811111C0D11105C0F0
:1012C00040E060E48BE20E94FA0840E060E48CE2D7
:1012D0000E94FA088C2FDF91CF910C94210981E0B4
:1012E000DF91CF910895FF920F931F93CF93DF93D8
:1012F000C82FF62E172F042F80E591E00E94BA0226
:1013000060E0809165030E94660382E00E94D2083B
:101310008C2F0E94D208CF2DD12F0C0F1D2F111D05
:10132000C017D10721F089910E94D208F9CF61E05E
:1013300080916503DF91CF911F910F91FF900C94E5
:101340006603CF93DF9300D000D0CDB7DEB7E32F95
:10135000FF272C83EB83613081F498E09A83198214
:1013600044E0BE016F5F7F4F0E9473090F900F90A2
:101370000F900F90DF91CF9108951A82F0CF0F93C5
:101380001F93CF93DF93082F162F80E591E00E94E3
:10139000BA02C3E5D3E060E08A890E94660382E076
:1013A0000E94D208802F0E94D208812F0E94D2086A
:1013B00061E08A89DF91CF911F910F910C946603B0
:1013C0002F923F924F925F926F927F928F929F9255
:1013D000AF92BF92CF92DF92EF92FF920F931F9343
:1013E000CF93DF93CDB7DEB762970FB6F894DEBF29
:1013F0000FBECDBF982E9A8B062F22E02F872E018D
:1014000083E0480E511C998A92E0960F988B1E013A
:10141000A9E02A0E311C60900D0170900E018090A1
:101420000F01FE013C96FE87ED87D201E6E01D929A
:10143000EA95E9F7F0E6F9830A83D201E92DFA8902
:1014400081918D938E2F2989821B8017C8F381EF9C
:1014500096E0A0E0B0E08093540390935503A093EE
:101460005603B09357031092610310925303988967
:1014700090935803FE013196A9E5B3E081918D93D5
:10148000E215F305D9F70E94D0035B016C01698670
:101490007A868B867101D7011D917D01812F0E9473
:1014A000D90883FD37C01F5FF12C0E94D003DC01F7
:1014B000CB018A199B09AC09BD09F2E0FF1234C0C7
:1014C000843C9940A105B10510F36EE170E080E025
:1014D00090E00E94F5032F852130C9F462960FB683
:1014E000F894DEBF0FBECDBFDF91CF911F910F915A
:1014F000FF90EF90DF90CF90BF90AF909F908F9034
:101500007F906F905F904F903F902F900895F1E003
:10151000FF878BCFED85FE85EE16FF0609F0BBCF6A
:1015200010E042E0F42EC1CF843C9940A105B10502
:1015300060F64091580369E573E085E0810F0E94F1
:10154000730980916103813029F48091580380648C
:10155000809358036091580384E0810F0E94BF0973
:101560008091540390915503A0915603B091570375
:10157000209153032130B1F58C879B87CD01AA2799
:10158000BB27282F23702860382F330F330F330FDA
:10159000307E232B2A8735E0969587953A95E1F79B
:1015A000898744E0B101812F0E947309115048E0FE
:1015B00068E0812F0E94FA080E94D0036B017C0131
:1015C000812F0E94D908B82E0E94D0036C197D0982
:1015D0008E099F09B3FE79CF643C7940810591055E
:1015E00078F373CF9C0193E0369527959A95E1F7B0
:1015F00029878295880F807E8A871C861B86D1CF9B
:10160000CF93DF9300D000D01F92CDB7DEB72091EB
:10161000280430912904A1EFB6E00E9490206E5C6E
:101620007F4F8F4F9F4F24E630E040E050E00E9414
:101630006E2080E3898380E28A8386E08B833C830B
:101640002D8365E0CE0101960E94E0090F900F9076
:101650000F900F900F90DF91CF910895CF93DF936C
:1016600000D000D01F92CDB7DEB720912A04309170
:101670002B04AAE6B0E00E949020625C7F4F8F4F5F
:101680009F4F2DE730E040E050E00E946E2080E365
:10169000898381E28A8386E08B833C832D8365E0A6
:1016A000CE0101960E94E0090F900F900F900F90CD
:1016B0000F90DF91CF910895FF920F931F93CF93D7
:1016C000DF93C82FF62E172F042F80E591E00E949C
:1016D000BA0260E0809165030E94660383E00E9485
:1016E000D2088C2F0E94D208CF2DD12F0C0F1D2F86
:1016F000111DC017D10729F080E00E94D2088993FC
:10170000F8CF61E080916503DF91CF911F910F9138
:10171000FF900C9466030F931F93CF93DF9300D039
:1017200000D0CDB7DEB7182F109253031092540398
:1017300010925503109256031092570344E0BE01D5
:101740006F5F7F4F0E945C0B2A81898138E0839F05
:10175000C0011124422F50E065E0559547956A95E8
:10176000E1F7840F951F092E000CAA0BBB0B809389
:10177000540390935503A0935603B093570323FF4C
:1017800029C032E0880F991FAA1FBB1F3A95D1F7D5
:101790002370820F911DA11DB11DBA2FA92F982F63
:1017A00088272B81820F911DA11DB11DBA2FA92F52
:1017B000982F88272C81820F911DA11DB11D809328
:1017C000540390935503A0935603B093570381E0BD
:1017D000809353038FEF810F0E94D908082F84E074
:1017E000810F0E94D90803FF16C091E09093610316
:1017F000482F4F704093580369E573E085E0810FEF
:101800000E945C0B0F900F900F900F90DF91CF9183
:101810001F910F91089510926103EACF1F93CF9308
:10182000DF9380E591E00E94BA02C3E5D3E060E077
:101830008A890E94660380EA0E94D20880E00E94A2
:10184000D208182F61E08A890E946603812FDF91F8
:10185000CF911F910895CF93CFB7F89480913E0117
:10186000811127C0EDEFF4E08491E1E1F5E094917E
:10187000E82FF0E0EE0FFF1FE256FC4FA591B49168
:10188000EC91E92321F461E08AE00E94660361E0C3
:101890008AE00E9494038CB580618CBD8CB5806415
:1018A0008CBD61E08DE00E94940361E08BE00E94BA
:1018B000940380913E018F5F80933E01CFBFCF9113
:1018C000089520914F03222349F020915003309135
:1018D00051038217930711F40C9486060895CF9252
:1018E000DF92EF92FF920F934617B9F1DC01129647
:1018F0006D917C911397ED91FC91C080D180E28035
:10190000F3804111022FFB01EC5EFE4F208130E09D
:10191000C901019687709927DB01AB5EBE4F4C91E0
:10192000481306C0AC014F5F5F4F477055274C937B
:1019300095E0929FA001939F500D1124640F751F95
:10194000DB01A451BF4F0C9363517F4FDB01CD925C
:10195000DD92ED92FC92139780830F91FF90EF90B0
:10196000DF90CF9008958F929F92AF92BF920F9386
:101970001F93CF93DF93CDB7DEB7A1970FB6F8943F
:10198000DEBF0FBECDBF19A2423008F44AE08E017F
:101990000F5D1F4F842E912CB12CA12CA501940119
:1019A0000E946E20E62FB901CA01EA3044F5E05DDD
:1019B000D801EE938D01232B242B252B79F790E072
:1019C00080E0109769F0FD0101900020E9F7319760
:1019D000AF014A1B5B0BBD0186E192E00E94FA0653
:1019E000A1960FB6F894DEBF0FBECDBFDF91CF91A9
:1019F0001F910F91BF90AF909F908F900895E95CD9
:101A0000D7CF42E050E06AE371E086E192E00C94C7
:101A1000FA06CF93DF930E94E707EC010E94010DC5
:101A20008C0F9D1FDF91CF910895CF92DF92EF929F
:101A3000FF92CF93DF93C82F6A017B0187EC94E07C
:101A40000E94090D80E80E943D09D82F83EA94E0A6
:101A5000D1111CC0C330B9F118F5C13051F1C230F9
:101A600069F1A701960160E080E00E94A1098091E0
:101A700066030E943D09D82F8CE494E0DD2331F009
:101A800081E894E00E94090D87E694E00E94090D28
:101A90008D2FDF91CF91FF90EF90DF90CF90089541
:101AA000C430B1F0C530E9F6A701960160E088E1E5
:101AB000DCCFA701960160E084E0D7CFA7019601B3
:101AC00060E088E0D2CFA701960160E080E1CDCF51
:101AD000A701960160E084E1C8CFCF93DF93D82FB0
:101AE00086E394E00E94090D80E80E943D09C82F1A
:101AF0008FE094E0C11119C02FEF37E040E050E0D3
:101B000060E080E2D11184E20E94A1098091660325
:101B10000E943D09C82F8CEB93E0CC2331F08DEE71
:101B200093E00E94090D85ED93E00E94090D8C2F32
:101B3000DF91CF9108950C94090D80919101882334
:101B4000E1F08091970181508230B8F080914F038D
:101B5000882341F08091500390915103029769F0DE
:101B60000E94860682E090E00E945B0583E08093FD
:101B7000970188E690E00C949B0D0895CF93DF9336
:101B8000682F70E090E080E04AE00E94B30CEC0126
:101B90000E94010D8C0F9D1FDF91CF910895FC01D4
:101BA00080819181009711F00C94692108950F9321
:101BB0001F93CF93DF93EC0188819981009759F0AF
:101BC0002A813B812617370730F081E0DF91CF91E2
:101BD0001F910F9108958B016F5F7F4F0E94F2213B
:101BE000009759F0998388831B830A832C813D8158
:101BF000232B59F7FC011082E8CF80E0E7CFCF9389
:101C0000DF93EC01198218821B821A821D821C82CA
:101C100070E060E00E94D70D2881398181110FC0EA
:101C20002115310519F0C9010E9469211982188214
:101C30001D821C821B821A82DF91CF9108951D8222
:101C40001C826CE371E0C901DF91CF910C94B82242
:101C5000CF93DF93EC0170E060E00E94D70D288104
:101C6000398181110FC02115310519F0C9010E9478
:101C70006921198218821D821C821B821A82DF91BF
:101C8000CF9108951D821C826CE371E0C901DF9140
:101C9000CF910C94B822EF92FF920F931F93CF93A2
:101CA000DF9300D0CDB7DEB78C0169831A82FC01C7
:101CB000E480F580FFEFEF1AFF0AB7010E94D70D0D
:101CC000882381F0F8012081318184819581BE01D2
:101CD0006F5F7F4F820F931F0E94B822F801F58239
:101CE000E48281E00F900F90DF91CF911F910F91CF
:101CF000FF90EF9008951F920F920FB60F9211244C
:101D00002F933F938F939F93AF93BF9380919E01A7
:101D100090919F01A091A001B091A10130919D01EE
:101D200023E0230F2D3758F50196A11DB11D2093F7
:101D30009D0180939E0190939F01A093A001B09379
:101D4000A1018091A2019091A301A091A401B09161
:101D5000A5010196A11DB11D8093A2019093A3013D
:101D6000A093A401B093A501BF91AF919F918F91D2
:101D70003F912F910F900FBE0F901F90189526E85E
:101D8000230F0296A11DB11DD2CF1F920F920FB645
:101D90000F9211242F933F934F935F936F937F93F1
:101DA0008F939F93AF93BF93EF93FF9386E192E05E
:101DB0000E947807FF91EF91BF91AF919F918F9112
:101DC0007F916F915F914F913F912F910F900FBE37
:101DD0000F901F9018951F920F920FB60F9211241B
:101DE0002F938F939F93EF93FF93E0912602F091AF
:101DF00027028081E0912C02F0912D0282FD1BC010
:101E0000908180912F028F5F8F7320913002821713
:101E100041F0E0912F02F0E0EA5EFD4F958F809354
:101E20002F02FF91EF919F918F912F910F900FBEF5
:101E30000F901F9018958081F4CF1F920F920FB6CC
:101E40000F9211242F933F934F935F936F937F9340
:101E50008F939F93AF93BF93EF93FF93E0911402FF
:101E6000F0911502309749F0A685B7858585968D46
:101E700091FF14C09C918923A1F4FF91EF91BF9130
:101E8000AF919F918F917F916F915F914F913F9112
:101E90002F910F900FBE0F901F9018959C91892342
:101EA00061F7A389B4899C918589809589238C9356
:101EB000868997890197F1F7608D718DA685B78521
:101EC000558538E020E0CB010197F1F7822F90E0B3
:101ED00095958795282F4C91452309F0206831501E
:101EE00091F7868D81FD20958091130290E00196F7
:101EF0008F73992730911202381799F0A09113022D
:101F0000B0E0A15CBE4F2C9380931302828D938D21
:101F10000197F1F7A389B4898C919589892B8C93CA
:101F2000ACCF868D8160868FF1CFCF93109219024E
:101F30001092180288EE93E0A0E0B0E080931A02BD
:101F400090931B02A0931C02B0931D028AE191E0C2
:101F5000909317028093160285EC90E090932302F1
:101F60008093220284EC90E09093250280932402D7
:101F700080EC90E0909327028093260281EC90E021
:101F8000909329028093280282EC90E090932B0298
:101F900080932A0286EC90E090932D0280932C028D
:101FA00010922F02109230021092310210923202DF
:101FB000CAE0C093650361E08AE00E94660361E0C5
:101FC000809165030E94940383EB92E090936403F5
:101FD0008093630310921B04C0931C048CE291E075
:101FE00090931E0480931D0410921F048FEF809322
:101FF000200491E090932104109222041092230473
:1020000010922404109225041092260410922704A2
:1020100024E031E030932904209328042CE735E1B3
:1020200030932B0420932A042CE130E030932D04CC
:1020300020932C0423E230E030932F0420932E04CD
:1020400028EE33E0309331042093300420EA3FE05F
:1020500030933304209332041092340410923504E8
:10206000109236041092370410923804E9E3F4E039
:1020700026E0DF011D922A95E9F71092670410927D
:1020800068049093690410927E0410927F04109269
:102090009E0410929F042AEF30E03093A104209315
:1020A000A0041092A2041092A3041092A40410920F
:1020B000A5048093A6048093A7041092A80410920C
:1020C000A9041092AA041092AB041092AC04E3E5A8
:1020D000F3E087E094E015A272968E179F07D9F778
:1020E0001092B7021092B60288EE93E0A0E0B0E042
:1020F0008093B8029093B902A093BA02B093BB0246
:102100008CE291E09093B5028093B4021092CB02DE
:102110001092CA021092CD021092CC021092CF02FD
:102120001092CE021092D1021092D0026091D2028F
:102130006E7F6D7F6093D2026695617081E0682743
:1021400083E00E94660361E083E00E949403EAE07A
:10215000F5E0E491E093C402E6EFF4E0E491F0E00E
:10216000EE0FFF1FE751FB4F859194919093C602AC
:102170008093C50260E084E00E9494038091D202C3
:1021800081FD04C061E084E00E94660384E08093E6
:10219000C002EBE0F5E0E491E093C102E7EFF4E088
:1021A000E491F0E0EE0FFF1FE152FB4F8591949117
:1021B0009093C3028093C2021092D4021092D30271
:1021C0008FEF8093D50281E08093D6021092E102D6
:1021D00010924A0310924B0310924C0310924D033D
:1021E00010924E0310924F0310925103109250031D
:1021F0008CE080935203CF910895CF93DF93CDB7B6
:10220000DEB7AB970FB6F894DEBF0FBECDBF7894A4
:1022100084B5826084BD84B5816084BD85B58260EB
:1022200085BD85B5816085BD80916E00816080939C
:102230006E00109281008091810082608093810005
:102240008091810081608093810080918000816015
:10225000809380008091B10084608093B100809170
:10226000B00081608093B00080917A008460809398
:102270007A0080917A00826080937A0080917A005F
:10228000816080937A0080917A00806880937A00E0
:102290001092C100E0912602F091270282E0808333
:1022A000E0912202F09123021082E0912402F09149
:1022B000250280E1808310922E02E0912A02F091A3
:1022C0002B0286E08083E0912802F0912902808130
:1022D00080618083E0912802F091290280818860EA
:1022E0008083E0912802F0912902808180688083B8
:1022F000E0912802F091290280818F7D808364E63D
:1023000070E080E090E00E94F5038FE391E00E948E
:102310009B0D61E089E00E94940360E089E00E94E7
:1023200066038CEC91E00E94E70783EC91E00E9449
:10233000090D61E086E00E94940360E086E00E945F
:10234000660361E08AE00E94940361E08AE00E94F3
:1023500066030E942B0C0E942B0C80E591E00E94EA
:10236000BA0260E0809165030E94660380EC0E94DF
:10237000D20861E0809165030E94660365E070E029
:1023800080E090E00E94F50380E48093660380E89B
:102390000E943D09882379F08BEE90E00E94090DA0
:1023A0008DE291E00E949B0D68EE73E080E090E08A
:1023B0000E94F503F9CF83EC90E00E94090D61E8DB
:1023C0008AE20E94BF0966EF89E20E94BF0964E8C1
:1023D00088E20E94BF0986EA90E00E94090D20E091
:1023E00030E0A90161E080E20E94A10920E030E034
:1023F000A90161E084E20E94A10920E030E0A90186
:1024000061E080E00E94A10920E030E0A90160E0E5
:1024100084E00E94A10920E030E0A90161E088E0A9
:102420000E94A10920E030E0A90160E080E10E9463
:10243000A10920E030E0A90161E084E10E94A10946
:1024400020E030E0A90160E088E10E94A10910E3EA
:1024500060E0812F0E94BF0960E080E1810F0E944F
:10246000BF0960E080E2810F0E94BF091F5F1E3339
:1024700079F760E080E60E94BF0960E080E70E9493
:10248000BF0963E08BE20E94BF096CE38CE00E940D
:10249000BF0960E08DE00E94BF0944E664E680E683
:1024A0000E94FA0840E660E680E70E94FA08809100
:1024B00066030E943D09882311F40C941A1D80E8DC
:1024C00090E06CCF86E192E00E9436078D3009F0F3
:1024D0004AC086E192E00E944A070A9721F486E109
:1024E00092E00E943607C090A601D090A701C114C7
:1024F000D10449F00091AA011091AB0176010115B8
:10250000110509F064C08091AA019091AB01892B5B
:1025100009F406C190E080E00E940303DC018C9185
:102520008F7D803509F0BFC0CE0101960E94FF0D5E
:1025300001E010E08091AA019091AB010817190702
:1025400008F088C0C8010E940303FC01608180ED8F
:10255000860F8A3008F077C0CE0101960E944B0E9C
:102560000F5F1F4FE7CF8A3009F4BDCF682F86EA8F
:1025700091E00E944B0E4091AA015091AB0149326B
:10258000510510F40C94C01DBA0168527109461728
:10259000570708F4BA018091A6019091A701461B44
:1025A000570B5093AB014093AA01680F791F0E940B
:1025B000BF22E091A601F091A7018091AA0190911C
:1025C000AB01E80FF91F10820C94C01D7501570173
:1025D0002FEFA21AB20AD7018C91082E000C990B8A
:1025E0000E94F91F892B91F7015011090C0D1D1D37
:1025F000F8018081082E000C990B0E94F91F892B8D
:1026000031F00E151F0518F001501109F1CF0F5FC1
:102610001F4FA8014E195F095093AB014093AA01C7
:10262000CE14DF0420F4B701C6010E94AF22E0916E
:10263000A601F091A7018091AA019091AB01E80F4A
:10264000F91F108260CF603209F48ACFCE01019663
:102650000E94280E8D819E81CC24CA94DC2C7601A8
:10266000892B59F089819A81C12CD12C7601009750
:1026700021F00E94BD1F6B017C01D701C6010197AB
:10268000A109B109C297A105B10540F480914F039A
:1026900081110E948606C6010E945B05CE0101964B
:1026A0000E94CF0D3DC08635D9F58091AA01909149
:1026B000AB01029729F18091AA019091AB01029799
:1026C000A9F1CE0101960E94FF0D01E010E080917A
:1026D000AA019091AB010817190708F05FC0C80163
:1026E0000E940303DC016C9180ED860F8A3008F0B4
:1026F0004EC0CE0101960E944B0E0F5F1F4FE7CFD9
:1027000081E090E00E940303DC018C918F3399F605
:1027100087EA91E00E94E707809152030E94BE0D74
:1027200086EA91E00E94280E0C94C01D81E090E0A2
:102730000E940303FC0180818B32A9F48091520333
:10274000082F10E081E090E00E940303DC018C91EF
:102750008B3291F40F5F1F4FC8010F31110594F0B8
:102760008EE190E00FC081E090E00E940303FC0145
:1027700080818D3219F3A5CF0150110980E00F3F00
:10278000100751F70E94480589E991E0C3CF6032F4
:1027900009F4B3CFCE0101960E94280E8D819E814F
:1027A000892BC1F089819A810097C1F00E94BD1FD9
:1027B0006F3171058105910508F070CF862F0E9459
:1027C000480587E891E00E94E707809152030E9444
:1027D000BE0D64CF6FEF7FEFCB01EACF60E070E01A
:1027E000CB01E6CF015011F00C94CC1D25E0F22E68
:1027F00006E010E0EE24E39480919F0490919E0403
:102800008913A0C585E0D82E92E0F92EEE24E3943A
:102810008091680490916704891709F4D2C590E00B
:10282000D89E9001D99E300D1124215C3B4FF901B7
:10283000DE0153964D2D01900D924A95E1F7D90195
:102840001C9101968770992780936804812F8D7F52
:10285000912F997F11F08830D9F6809189018823D2
:1028600091F08091900181110CC061E089E00E949B
:1028700066038CEC91E00E94E70787EC91E00E94F0
:10288000090D10928901123009F0F8C580919C0160
:102890008E2580939B0180918F01882309F494C633
:1028A000112309F40EC6E0928E01B2CF81FF9ECFB4
:1028B00081E70E948B0B40E062E00C94DD1DDC019F
:1028C0004D91CD01DB014D93BD010C941D1E8091F6
:1028D0001B0492E1989FF0011124ED5AFC4F448AA9
:1028E000558A668A778A108F41A352A363A374A383
:1028F00021E025A3899FA001112430E020E02117C9
:1029000088F42830310571F0E9A5FAA59191FAA76C
:10291000E9A7FA01E20FF31FED5AFC4F918F2F5FE9
:102920003F4FEDCF8F5F8A3010F40C948A1E1092C7
:102930001B040E9427046B017C0100E3401601E0A8
:1029400050066104710409F049C0112311F40C947C
:10295000CB1D9B8580912004981390932004892F90
:102960008C7039F4809122048823A9F080E090FFD4
:1029700012C080911F0481110EC081E08093230456
:102980000E942704609324047093250480932604F6
:102990009093270481E080931F048B85909196018A
:1029A0009F7E382F3F7E80939601209187012F5F75
:1029B000209387012091980120939501482F4C7016
:1029C00021E009F420E020939801953409F4E4C152
:1029D000353409F0EDC110929401EAC1FCEF4F16B5
:1029E000F2E05F066104710409F0B5C0133008F429
:1029F00064C0CD8EDE8EEF8EF8A28C85082F01701C
:102A0000802E82FB992490F884FBCC24C0F886FBAE
:102A1000FF24F0F88D85282F2170D22E82FBEE2422
:102A2000E0F84DE150E04C0F5D1F5A83498383E588
:102A300093E09C838B8301E020E0482D6091390472
:102A40008B2D9A2D0E946F0C03E022E0492D60919E
:102A50003A048B2D9A2D0E946F0C05E024E04C2D3A
:102A600060913B048B2D9A2D0E946F0C07E026E0AD
:102A70004F2D60913C048B2D9A2D0E946F0C09E024
:102A800028E04D2D60913D048B2D9A2D0E946F0CF6
:102A90000BE02AE04E2D60913E048B2D9A2D0E9472
:102AA0006F0C8092390490923A04C0923B04F092E9
:102AB0003C04D0923D04E0923E0428E3421623E019
:102AC00052066104710411F00C94CB1D183010F4FF
:102AD0000C94CB1D88898E3F11F00C94CB1D8989F5
:102AE0008E3F11F00C94CB1D8A898E3F11F00C940F
:102AF000CB1D4B855C858D854E32510509F47BC11C
:102B00004B35510509F477C19A01255831402230DF
:102B1000310508F470C1433101E0500709F08DC15F
:102B2000823009F09CC190919801992319F091E0AD
:102B300090939301403331E0530709F4A2C110F0A0
:102B40000C94931E4C3D510509F49BC1453E510523
:102B500009F0A0C196C154EB451651E05506610439
:102B60007104E1F5163008F4A8CF988981E0292F87
:102B7000227091FF80E090916904891709F49DCF3C
:102B80008093690461E0211160E040917E0450E08F
:102B90009A012F5F3F4F2370332780917F04821368
:102BA00006C0C90101968370992780937F0435E0A0
:102BB000349FC001359F900D11248D5A9C4FFC010C
:102BC000E95EFE4F6083885E9E4FDC01CD92DD9210
:102BD000ED92FC92139720937E046FCFBAE34B16CD
:102BE000B2E05B066104710409F07DC0133008F4A3
:102BF00064CF2D853091A60423131AC08091A204BE
:102C00009091A304A091A404B091A504B701A601DA
:102C1000481B590B6A0B7B0B8091A0049091A10477
:102C2000B0E0A0E0481759076A077B0708F445CFD2
:102C3000213009F44DC0243009F44CC0203409F48B
:102C40004BC0231709F439CF33E0E0919E04F0E044
:102C5000CF010196B1010E949F205C0180919F04E9
:102C60008A1107C0C5010196B1010E949F2080937F
:102C70009F0445E04E9FC0014F9F900D11248D5A37
:102C80009C4FFC01E35DFE4F3083825D9E4FFC0153
:102C9000C082D182E282F382A0929E042093A60495
:102CA000C092A204D092A304E092A404F092A504DE
:102CB000311114C082E08093A8042093A704C0922D
:102CC000A904D092AA04E092AB04F092AC04F5CE31
:102CD00030E0BBCF31E0B9CF32E0B7CF313069F768
:102CE0003093A804EACFFAEF4F16F2E05F066104D2
:102CF000710411F00C94B81E123008F44CC79C8576
:102D000081E0292F287093FF80E090919C01891722
:102D100009F441C780939C01222399F084E893E051
:102D20000E949B0D80919B01882309F434C781E0A8
:102D300080939A0110929B018AE593E00E949B0D7B
:102D40002AC78CE393E0FACF89EF92E00E949B0DB3
:102D500080919801882309F41EC7809197018130E2
:102D600009F419C780914F03882341F080915003E3
:102D700090915103029711F40E94860680914F03AF
:102D8000811109C785E390E00E945B0582E0809392
:102D9000970184EE92E0D2CF353409F41CCE8F7BBC
:102DA00039F481E0809394018FEA92E00E949B0DB8
:102DB0008091980190919501992361F08111EBC662
:102DC00080919301882319F081E08093920180E93A
:102DD00092E0B4CF882309F4DEC6109292011092DB
:102DE0009A0110929B0186E892E00E949B0D81E07F
:102DF00080932104D0C6823079F481E080939101E0
:102E000080919701813009F4C6C681E090E00E946C
:102E1000610C0E949D0DBFC6813009F0BCC61092A6
:102E2000910182E090E00E94610C809197018330D3
:102E300009F0B1C610929701AEC64E3111E05107AC
:102E400009F46ECE4033B1E05B07D9F008F07DC0E5
:102E50004C3D5105B1F0453E5105C9F412C08130D9
:102E600009F06CC710929301403321E0520749F0FA
:102E700008F055C04C3D510521F0453E510509F083
:102E800058C091E0823009F090E090939001823038
:102E900009F054C28091010190910201481759072D
:102EA00009F05EC081E090910001923009F480E069
:102EB000509302014093010192E090930001882316
:102EC00009F469C601E110E0463A510509F454C01D
:102ED00008F00AC14133510509F40EC208F09BC045
:102EE0004D31510508F067C00FE110E04B3151053D
:102EF00008F042C003E010E040315105E9F108F06C
:102F000045C005E110E04D305105B1F158F507E13C
:102F100010E04115510581F10EE010E02DC0423363
:102F200091E0590709F4ADCF4F39A1E05A0709F4F0
:102F3000A8CF80910101909102014817590709F02B
:102F40002AC681E08093000126C64233F1E05F0784
:102F500009F497CF4F3901E0500709F098CF91CF8E
:102F600081E0A6CF0BE010E04E30510529F00CE0D7
:102F700010E04F30510581F680919701813009F0C2
:102F8000C1C161E0C8010E94B60605C60AE010E0B2
:102F90004231510589F304E010E04231510560F3FC
:102FA00009E010E04331510539F308E010E0493100
:102FB000510511F3B1CF4132510509F4CCC080F471
:102FC0004E31510509F4C7C008F496C14F3151057F
:102FD00009F492C107E010E04032510569F29CCF3C
:102FE0004632510509F476C158F44332510509F4CB
:102FF000D2C009E210E04432510509F4BDCF8CCFB4
:103000004732510509F4A7C04E32510509F084CF6B
:1030100002E010E0B1CF4F36510509F4FDC0B0F524
:1030200006E210E04734510509F4A6CFB8F44F3357
:10303000510509F404C138F405E010E047335105A7
:1030400009F49ACF69CF4234510509F443C103E32F
:1030500010E04334510509F48FCF5ECF4A35510556
:1030600088F44735510508F0D7C007E210E04A342C
:10307000510509F481CF4F34510509F04DCF0BE2D2
:1030800010E07ACF4B35510519F246CF4C38510537
:1030900009F42CC178F44B38510508F021C14237AE
:1030A000510508F0B9C000E110E04137510509F4BD
:1030B00063CF32CF4F38510509F415C158F44D385C
:1030C000510509F416C10DE110E04E38510509F41F
:1030D00053CF22CF02E110E0443A510509F44CCF1E
:1030E000453A510561F218CF4B3511E0510708F010
:1030F00078C0493521E0520708F08EC0453E5105A1
:10310000A9F1B8F5463C5105B8F4443C510508F026
:1031100083C002E210E0463B510509F42DCF08E2DE
:1031200010E0483B510509F427CF473A510509F013
:10313000F3CE04E110E020CF03E210E0453D51055D
:1031400009F41ACF58F44D3C510509F4C3C0443D6D
:10315000510509F0E1CE01E210E00ECF483D5105E6
:1031600009F4CAC04C3D510509F0D6CE06E110E085
:1031700003CF433131E0530709F4AFC0B8F4413015
:1031800091E0590709F4BBC048F4CA018C5E91096B
:10319000029708F0C1CE0AE210E0EECE0EE110E098
:1031A0004930B1E05B0709F4E7CEB6CE4E31E1E03D
:1031B0005E0709F492C060F4493101E0500729F03C
:1031C0004C3111E0510709F0A7CE0CE210E0D4CE4B
:1031D000403321E0520751F2423331E0530731F2DC
:1031E0009BCE403682E0580709F47AC0B0F54E37DE
:1031F000A1E05A07A0F44A37B1E05B0768F44F3604
:10320000E1E05E0709F47BC008F486CECA0183576B
:103210009140039708F080CE08E110E0ADCE4F3921
:1032200001E0500709F4A2CF68F44E3721E05207BD
:1032300009F4B1CF403831E0530709F06DCE05E213
:1032400010E09ACE4B3A81E0580709F484CF483316
:1032500092E0590709F47FCF5FCE0DE210E0493EBE
:10326000A3E05A0709F488CE78F44236E2E05E071C
:10327000E9F1C8F1433602E05007D9F1413C13E0CF
:10328000510709F468CF48CE00E310E04C3E23E03C
:10329000520709F471CE78F40EE210E04A3E83E062
:1032A000580709F469CE0FE210E04B3E93E059074E
:1032B00009F462CE31CE01E310E04D3EA3E05A079F
:1032C00009F45ACE02E310E04E3EB3E05B0709F486
:1032D00053CE22CE06E010E04FCE03E110E04CCEFC
:1032E00009E110E049CE0AE110E046CE0BE110E022
:1032F00043CE0CE110E040CE00E210E03DCE04E20F
:1033000010E03ACE82E090E00E94610C80914F0381
:1033100081110E948606C8010E945B0582E08093AD
:10332000970185EB91E00E94E707B80190E080E00B
:103330004AE00E94B30C0E94010D2DC4813009F0B7
:103340002AC4F7CD90E0F89E9001F99E300D11242B
:1033500020583B4FF901DE0158964F2D01900D92F8
:103360004A95E1F7F90120810196B8010E949F205A
:1033700080939F0421111DC0E0928F0110928E0155
:103380000E94270460547B428E4F9F4F60938A01B6
:1033900070938B0180938C0190938D0110929A0110
:1033A00010929B01E092890186E592E00E949B0DBC
:1033B00023CA213009F020CA109289018BE492E0DF
:1033C000F5CF80918F01811144C10E949D0D8091A4
:1033D0002104882309F4D2C10E9427046B017C01D7
:1033E000809123048823F1F180911F048823D1F177
:1033F0008091240490912504A0912604B091270483
:10340000B701A601481B590B6A0B7B0B8091320454
:1034100090913304B0E0A0E0481759076A077B0792
:1034200008F11092230481E08093340420912E044B
:1034300030912F0480912C0490912D042817390786
:1034400008F4C90197018601080F191F211D311DBC
:10345000D901C8018093350490933604A0933704B2
:10346000B093380480913404882309F487C1909183
:103470001F04911109C11092340480C111110BCAAB
:1034800080918F01882309F406CA809194018111EB
:1034900002CA80918E01882309F485C080914F0370
:1034A00081110E94860681E090E00E945B05E09217
:1034B000970185ED91E00E949B0D10928F01109273
:1034C0008E0180916904811118C0809197019091BB
:1034D0008F0191117CC0813009F47CC080914F0331
:1034E00081110E94860682E390E00E945B05F092C3
:1034F00097018EE292E00E949B0D809198018111CC
:103500001DC0809192018823C9F080914F038823C8
:1035100039F020915003309151032130310571F081
:1035200090919701913009F05DC050E040E062E079
:103530008DE290E00E94B60610929201809198016F
:10354000811166C980919401882309F461C9809131
:103550000001823009F45CC980919201811158C93F
:1035600080919A01882309F44BC00E94651F22E0D4
:1035700030E040E050E00E94052000E310E0672BBF
:10358000682B692B11F001E310E0809197018130E5
:1035900009F048C050E040E064E0C8010E94B6066F
:1035A0001092940135C980908A0190908B01A0906F
:1035B0008C01B0908D010E942704681979098A094D
:1035C0009B0997FD6BCF67C9111122C97ACF813052
:1035D00009F093CF50E040E063E082E390E00E9486
:1035E000B6068BCF81110E9486068DE290E00E9484
:1035F0005B05F092970181E192E00E949B0D9CCFC8
:103600000E94651F22E030E040E050E00E9405206B
:103610000EE210E0672B682B692B09F4B6CF0FE29E
:1036200010E0B3CF80914F0381110E948606C8013C
:103630000E945B05F092970180E092E00E94E7070C
:10364000B80190E080E04AE00E94B30C0E94010DB6
:10365000A7CF80918E018111B8CEC0908A01D09001
:103660008B01E0908C01F0908D010E9427046C1971
:103670007D098E099F0997FDA8CE10928F0187EED4
:1036800091E00E949B0DA1CE4091350450913604EB
:10369000609137047091380497018601041B150B63
:1036A000260B370BB901A80177FD68C0833009F4F8
:1036B000BFC028F58130D9F1823009F0DCCE2091ED
:1036C0002C0430912D0480912E0490912F048217A8
:1036D000930708F4AAC00E942E0B809130049091A9
:1036E0003104C80ED91EE11CF11CC0923504D092E1
:1036F0003604E0923704F092380483E03DC0843011
:1037000009F4B0C0853009F0B6CE20912C04309178
:103710002D0480912E0490912F0463E0821793076B
:1037200008F4D5C080E191E00E94E009A4CE209188
:103730002C0430912D0480912E0490912F04821737
:10374000930708F467C00E94000B80912E049091AB
:103750002F0420912C0430912D04821B930BC80E52
:10376000D91EE11CF11CC0923504D0923604E092BF
:103770003704F092380482E08093340480914F0340
:10378000882331F00E944203019711F40E948606BB
:10379000E0904F0380918801882309F4ECC0E11088
:1037A000EAC00AE060911102662309F4B7C2EDEAAB
:1037B000F1E030E020E08FEF9FEF261708F08AC09D
:1037C000122F732F8F3F9807F9F05081089FD00177
:1037D000099FB00D1124A355BE4F4C914517A0F081
:1037E000541310C086809780A084B18416964D90A3
:1037F0005D906D907C90199784189508A608B7087D
:10380000B7FC02C0182F792F2F5F3F4F3A96812FB8
:10381000972FD3CF0E942E0B80912C0490912D04D2
:1038200020912E0430912F0498CF0E94000B55CF89
:1038300020912E0430912F0480912C0490912D041E
:103840002817390708F4C901C80ED91EE11CF11C5C
:10385000C0923504D0923604E0923704F0923804D6
:1038600084E08ACF20912C0430912D0480912E0485
:1038700090912F0463E082179307E0F083E191E0D9
:103880000E94E00980912E0490912F0420912C0435
:1038900030912D04821B930BC80ED91EE11CF11C24
:1038A000C0923504D0923604E0923704F092380486
:1038B00085E062CF80E191E00E94E00980912C04D4
:1038C00090912D0420912E0430912F04E3CF83E1B9
:1038D00091E02ACF089F9001099F300D11242355B4
:1038E0003E4FF901DE011196902F01900D929A95AD
:1038F000E1F7D90111966D907C90129713961C9167
:10390000139714962D913C91782F8F5F809FC00163
:10391000112450E040E07F5F761790F4FC01E40F43
:10392000F51FE355FE4FDF011A970F2EFAE0CF2E59
:10393000F02D01900D92CA94E1F7465F5F4FEBCFF7
:10394000615060931102123009F462C048F51123EE
:1039500009F442C0113091F180914F0381110E940E
:103960008606C3010E945B05112309F45FC082E053
:10397000153008F45CC0E092880162E070E080E0FD
:1039800090E00E94F50380E090E0892B09F4EDC0FF
:103990000E946407882309F4E8C00E940000E5C083
:1039A000133009F43EC01430B9F6809198018111AA
:1039B000F9CE80910001823079F6F4CE8091000139
:1039C000823009F0EFCE80910101909102018217BF
:1039D000930709F0E7CEC0CF80918F01882309F4C7
:1039E000E1CE80918E01882311F010E0B5CF809058
:1039F0008A0190908B01A0908C01B0908D010E9463
:103A00002704681979098A099B0997FDEECFCACE68
:103A1000809198018111C6CE8091920181119CCF35
:103A2000C1CE809169048111BDCE96CF81E0809393
:103A30009701A1CF80E00E946D0D48E353E060E064
:103A400070E080E00E94150D4AE352E060E070E013
:103A500081E00E94150D81E00E946D0D4CEF52E057
:103A600060E070E082E00E94150D40E351E060E00C
:103A700070E083E00E94150D44EB51E060E070E0DF
:103A800084E00E94150D45E153E060E070E085E0C0
:103A90000E94150D1092660380E00E943D0960E0CF
:103AA00088E00E94940382E191E00E949B0D81E0F6
:103AB000809321041092220484E091E090932904E1
:103AC000809328048CE795E190932B0480932A043B
:103AD0008CE190E090932D0480932C0483E290E09D
:103AE00090932F0480932E0488EE93E090933104FA
:103AF0008093300480EA9FE09093330480933204F3
:103B000010924C0361E087E00E94940361E086E03C
:103B10000E94940362E085E00E94940360E086E0E6
:103B20000E94660310924E0360E087E00E946603E5
:103B300010924D0380E480937C0080917A00806431
:103B400080937A0080917A0086FDFCCF60917800A6
:103B500070917900072E000C880B990B6115710587
:103B60008105910511F00E94B41F80917F018111A0
:103B700007C086EA91E00E94FF0D81E080937F01FB
:103B800086E192E00E945807892B11F00C94621292
:103B900046E0242E312C06E00E940E0C837011F4B6
:103BA0000C94F6130E940E0C80FD02C00C94561467
:103BB00081E60E948B0B40E061E08CE20E94FA08F3
:103BC00080915303882389F0809154039091550389
:103BD000A0915603B0915703B0688093540390931B
:103BE0005503A0935603B093570380916103882334
:103BF00089F08091540390915503A0915603B091A0
:103C00005703B0648093540390935503A0935603D5
:103C1000B09357034090540350905503609056035F
:103C2000709057031091580389E593E0FE01319697
:103C3000BF01BE2EAF2E212F30E0AB014E1B5F0B1C
:103C40004217530714F40C945F149E01255F3F4FF5
:103C50003AA729A7D90180E0811731F0883021F0F7
:103C600091919D938F5FF8CF0E942704AB01BC0117
:103C700080901D0490901E04B0911C04BBA7E3E546
:103C8000F3E020E06401F12CE12CC9A2DAA2EBA25E
:103C9000FCA2BBA5B21711F40C9467142A3011F4DE
:103CA0000C94671485A1882391F1C1A0D2A0E3A050
:103CB000F4A0DB01CA018C199D09AE09BF09C9A096
:103CC000DAA0EBA0FCA0C816D906EA06FB06F8F0BD
:103CD00084899589A689B789481659066A067B069C
:103CE000B1F4808D181313C089A49AA490E080E0E9
:103CF000811710F00C94F213DF01A80FB91F599629
:103D0000CC90D4013D914D010196C31689F32F5FEC
:103D10007296BFCF80931B040C9499140E949D0D42
:103D20001092970128CE4233A1E05A0709F4A9C89E
:103D30004F39B1E05B0709F0ADC8A3C84033E1E0FB
:103D40005E0709F49EC848F44C3D510509F499C832
:103D5000453E510509F01FCF94C8423301E050079A
:103D600009F48FC84F3911E0510709F014CF89C801
:103D700025E1421623E052066104710411F00C940F
:103D80005D15123008F407CF9C8581E0923F09F061
:103D900080E020919901281709F4FDCE80939901C4
:103DA000923F11F00C94A41685E293E00E949B0DC3
:103DB00080919801882309F4EECE8091970181309B
:103DC00009F4E9CE80914F03882341F0809150039C
:103DD00090915103029711F40E94860680914F033F
:103DE0008111D9CE84E390E00E945B0582E080934C
:103DF000970181E193E00C949E168CE291E0909300
:103E0000B5028093B4028091140290911502845BF4
:103E1000924071F4E091C702F091C80290818091C4
:103E2000C902809589238083109215021092140292
:103E300008958F929F92AF92BF92CF92DF92EF92AE
:103E4000FF92CF93DF93EC01688179818A819B8116
:103E5000611571058105910521F464E279ED8BE529
:103E600097E02DE133EF41E050E00E940520490149
:103E70005A019B01AC01A7EAB1E40E9424206B0126
:103E80007C01ACEEB4EFA50194010E943220C60E75
:103E9000D71EE81EF91EF7FE06C081E0C81AD10839
:103EA000E10880E8F80AC882D982EA82FB82C70169
:103EB000B6019F77DF91CF91FF90EF90DF90CF9089
:103EC000BF90AF909F908F9008958F929F92AF92E6
:103ED000BF92CF92DF92EF92FF92609103017091B7
:103EE000040180910501909106016115710581051C
:103EF000910521F464E279ED8BE597E02DE133EF54
:103F000041E050E00E94052049015A019B01AC01AB
:103F1000A7EAB1E40E9424206B017C01ACEEB4EF6F
:103F2000A50194010E943220C60ED71EE81EF91E7C
:103F3000F7FE06C081E0C81AD108E10880E8F80A57
:103F4000C0920301D0920401E0920501F0920601B3
:103F5000C701B6019F77FF90EF90DF90CF90BF90A1
:103F6000AF909F908F900895609303017093040128
:103F7000809305019093060108951F93FC019927F2
:103F80008827BC01E89411911032E9F3193010F040
:103F90001E30C8F31B3251F01D3249F4689406C03C
:103FA0000E94E41F610F711D811D911D119110531D
:103FB0001A30B0F33EF490958095709561957F4FDF
:103FC0008F4F9F4F1F910895592F482F372F262F1E
:103FD000660F771F881F991F660F771F881F991F0D
:103FE000620F731F841F951F660F771F881F991F0D
:103FF000089591110C940220803219F08950855057
:10400000C8F70895992788270895052E97FB1EF471
:1040100000940E941C2057FD07D00E946E2007FCD0
:1040200003D04EF40C941C2050954095309521956A
:104030003F4F4F4F5F4F08959095809570956195D4
:104040007F4F8F4F9F4F08950E949020A59F900D06
:10405000B49F900DA49F800D911D11240895B7FF6A
:104060000C9424200E942420821B930B08952F92ED
:104070003F924F925F926F927F928F929F92AF92F8
:10408000BF92CF92DF92EF92FF920F931F93CF9345
:10409000DF93CDB7DEB7CA1BDB0B0FB6F894DEBFDC
:1040A0000FBECDBF09942A88398848885F846E8402
:1040B0007D848C849B84AA84B984C884DF80EE804C
:1040C000FD800C811B81AA81B981CE0FD11D0FB655
:1040D000F894DEBF0FBECDBFED010895A1E21A2E08
:1040E000AA1BBB1BFD010DC0AA1FBB1FEE1FFF1F9C
:1040F000A217B307E407F50720F0A21BB30BE40BEC
:10410000F50B661F771F881F991F1A9469F7609532
:104110007095809590959B01AC01BD01CF010895EC
:10412000A29FB001B39FC001A39F700D811D1124F8
:10413000911DB29F700D811D1124911D089597FB53
:10414000072E16F4009407D077FD09D00E94B32003
:1041500007FC05D03EF4909581959F4F089570958A
:1041600061957F4F0895AA1BBB1B51E107C0AA1F91
:10417000BB1FA617B70710F0A61BB70B881F991F08
:104180005A95A9F780959095BC01CD010895EE0F41
:10419000FF1F0590F491E02D09940F931F93CF9387
:1041A000DF938230910510F482E090E0E091AF045B
:1041B000F091B00430E020E0B0E0A0E0309799F456
:1041C0002115310509F44AC0281B390B243031056B
:1041D000D8F58A819B816115710589F1FB01938373
:1041E0008283FE0111C040815181028113814817F1
:1041F0005907E0F04817590799F4109761F01296A3
:104200000C93129713961C933296CF01DF91CF91A6
:104210001F910F9108950093AF041093B004F4CF51
:104220002115310551F04217530738F0A901DB0180
:104230009A01BD01DF01F801C1CFEF01F9CF9093E1
:10424000B0048093AF04CDCFFE01E20FF31F819342
:1042500091932250310939832883D7CF2091AD041F
:104260003091AE04232B41F42091090130910A01D1
:104270003093AE042093AD042091070130910801E2
:104280002115310541F42DB73EB740910B015091F6
:104290000C01241B350BE091AD04F091AE04E21744
:1042A000F307A0F42E1B3F0B2817390778F0AC0159
:1042B0004E5F5F4F2417350748F04E0F5F1F509336
:1042C000AE044093AD04819391939FCFF0E0E0E082
:1042D0009CCFCF93DF930097E9F0FC0132971382D4
:1042E0001282A091AF04B091B004ED0130E020E063
:1042F0001097A1F420813181820F931F2091AD048A
:104300003091AE042817390709F061C0F093AE046C
:10431000E093AD04DF91CF910895EA01CE17DF0756
:10432000E8F54A815B819E0141155105B1F7E9012C
:10433000FB83EA8349915991C40FD51FEC17FD0700
:1043400061F4808191810296840F951FE901998320
:104350008883828193819B838A83F0E0E0E01296D8
:104360008D919C9113970097B9F52D913C911197E0
:10437000CD010296820F931F2091AD043091AE04BF
:104380002817390739F6309751F51092B00410927A
:10439000AF04B093AE04A093AD04BCCFD383C2836B
:1043A00040815181840F951FC817D90761F44E5F72
:1043B0005F4F88819981480F591F518340838A81BB
:1043C0009B81938382832115310509F0B0CFF0934F
:1043D000B004E093AF049ECFFD01DC01C0CF138297
:1043E0001282D7CFB0E0A0E0E8EFF1E20C943920E0
:1043F0008C01009751F4CB010E94CD208C01C801A3
:10440000CDB7DEB7E0E10C945520FC01E60FF71FB5
:104410009C0122503109E217F30708F49DC0D9012D
:10442000CD91DC911197C617D70798F0C530D1050B
:1044300030F3CE0104978617970708F3C61BD70BF6
:104440002297C193D1936D937C93CF010E946921F0
:10445000D6CF5B01AC1ABD0A4C018C0E9D1EA091FB
:10446000AF04B091B004512C412CF12CE12C1097E9
:1044700031F58091AD049091AE048815990509F04D
:104480005CC04616570608F058C08091070190910D
:104490000801009741F48DB79EB740910B015091F0
:1044A0000C01841B950BE817F90708F055C0F09331
:1044B000AE04E093AD04F90171836083A0CF8D91C8
:1044C0009C91119712966C90129713967C9013976B
:1044D000A815B90559F56C0142E0C40ED11CCA14E7
:1044E000DB0420F1AC014A195B09DA011296159739
:1044F00080F06282738251834083D9016D937C93F3
:10450000E114F10471F0D7011396FC93EE93129726
:1045100076CF22968C0F9D1FF90191838083F30142
:10452000EFCFF093B004E093AF0469CF481659067B
:1045300008F42C017D01D3019ACFCB010E94CD203C
:104540007C01009749F0AE01B8010E94AF22C8017A
:104550000E946921870153CF10E000E050CFFB019A
:10456000DC0102C001900D9241505040D8F70895EF
:10457000FB01DC0101900D920020E1F70895FB01A1
:10458000DC014150504048F001900D920020C9F7E5
:1045900001C01D9241505040E0F7089512E0CFE86D
:1045A000D2E004C0FE010E94C7202196C039D10785
:0645B000C9F7F894FFCFEB
:1045B600FFFFFF010000000000B104800030405002
:1045C600302100302000000000009A07FA06270775
:1045D6000208580736074A07000000003B08FA069B
:0E45E600CE083A089708AD0822080D0A00001A
:00000001FF
