:100000000C94A2020C94CA020C94CA020C94510FD4
:100010000C94510F0C94510F0C94CA020C94CA0208
:100020000C94CA020C94CA020C94CA020C94CA0220
:100030000C94CA020C94CA020C94CA020C94CA0210
:100040000C94AF0E0C94CA020C941F0F0C94F90E72
:100050000C94CA020C94CA020C94CA020C94CA02F0
:100060000C94CA020C94CA024C4F570048494748A6
:10007000005B524144494F5D20005B504C41595D4B
:10008000205365617462656C74205432206C6F6F0C
:10009000700052657475726E696E6720746F2050BF
:1000A000726576696F7573204D6F6465204661696E
:1000B0006C7572652E2E2E0053657474696E672000
:1000C000426175647261746520537563636573730F
:1000D00066756C2100456E746572696E6720436FAA
:1000E0006E66696775726174696F6E204D6F6465C5
:1000F000205375636365737366756C2100456E7478
:100100006572696E6720436F6E66696775726174A8
:10011000696F6E204D6F6465204661696C7572650C
:100120002E2E2E004D435032353135204F4B202896
:10013000384D487A2C203130306B62707329004D75
:1001400043503235313520696E6974204641494C3F
:10015000005374617274696E67206D61696E3A2034
:1001600057656C636F6D652F434349442F53656139
:100170007462656C742F4675656C2F476F6F64628F
:1001800079652F526164696F202B204B4F4D424996
:10019000202B205175657565005B434C495D2076C9
:1001A0006F6C756D652073657420005B434C495D11
:1001B00020766F6C756D653D005B434C495D207624
:1001C0006F6C756D653D005B504C41595D2043433C
:1001D00049442054005B504C41595D2057656C6385
:1001E0006F6D65205431005B57454C434F4D455D65
:1001F0002077696E646F7720657870697265640036
:100200005B504C41595D20476F6F646279652054A3
:10021000005B504C41595D204C6F772D6675656CC5
:100220002072656D696E64657220543435005B50D0
:100230004C41595D2048616E646272616B65207744
:1002400061726E696E6720543530005B4B45595DB5
:10025000204C4F434B202D3E20726164696F204F2C
:100260004646005B4B45595D20554E4C4F434B2055
:100270002D3E20726164696F204F4E3B2077656C84
:10028000636F6D652061726D6564005B4B4C313549
:100290005D204F4E005B4B4C31355D204F46463B59
:1002A000206675656C2072656D696E642061726D83
:1002B00065643F005B524144494F5D20486F6C6468
:1002C000204F4E206166746572204B4C3135204FB3
:1002D0004646005B4B4C31355D20456E67696E6567
:1002E0002053544F50202834352F3535202D3E20B3
:1002F00034302F303029203D3E20476F6F646279C3
:10030000652041524D4544005B504C41595D20539E
:10031000706F7274204F464620543533005B42554F
:1003200054544F4E5D2053706F7274204D6F64654E
:10033000204F4646005B504C41595D2053706F7210
:1003400074204F4E20543532005B425554544F4E6A
:100350005D2053706F7274204D6F6465204F4E00A6
:100360005B4169724261675D2050617373656E67BE
:100370006572206E6F7420736561746564005B4103
:1003800069724261675D2050617373656E67657263
:1003900020434F4E4649524D45442028646F6F72AA
:1003A0002D3E7365617429005B4169724261675D2E
:1003B0002050617373656E67657220736561746543
:1003C000640000000000240027002A00000000084C
:1003D000000201000003040700000000000000000C
:1003E00053657474696E67204D61736B2053756338
:1003F0006365737366756C210053657474696E6709
:10040000204D61736B204661696C7572652E2E2ECE
:1004100000456E746572696E672050726576696F0B
:100420007573204D6F6465204661696C7572652E29
:100430002E2E00456E746572696E6720436F6E667E
:10044000696775726174696F6E204D6F64652046CF
:1004500061696C7572652E2E2E0053746172746919
:100460006E6720746F20536574204D61736B21009B
:1004700053657474696E672046696C7465722053A5
:1004800075636365737366756C2100536574746975
:100490006E672046696C746572204661696C75727E
:1004A000652E2E2E00456E746572696E672050723F
:1004B0006576696F7573204D6F6465204661696C60
:1004C0007572652E2E2E00456E74657220436F6E18
:1004D00066696775726174696F6E204D6F6465201F
:1004E0004661696C7572652E2E2E005374617274AC
:1004F000696E6720746F205365742046696C74655B
:1005000072210000000000230026002900000000E6
:1005100000250028002B0004040404040404040241
:100520000202020202030303030303010204081090
:10053000204080010204081020010204081020005D
:10054000C90F041F11241FBECFEFD8E0DEBFCDBFFF
:1005500011E0A0E0B1E0E4ECF5E402C005900D92FA
:10056000AE33B107D9F724E0AEE3B1E001C01D928C
:10057000A43BB207E1F712E0C1EAD2E004C0219740
:10058000FE010E94CE20C03AD107C9F70E9439115E
:100590000C94D5220C9400008CBD9DBD0895CF9382
:1005A000DF93CDB7DEB72A970FB6F894DEBF0FBE44
:1005B000CDBF282F8091D2029091D302009751F1A4
:1005C0003EE739833FEF3A8336E03B832C831D823D
:1005D000472F50E07E836F83640F752F711D6B5F13
:1005E0007E4F260F372F311D3195219531093887E0
:1005F00029872FEE2A87DC01ED91FC910280F3819F
:10060000E02D4AE050E0BE016F5F7F4F099521E089
:100610000A9709F020E0822F2A960FB6F894DEBFE1
:100620000FBECDBFDF91CF9108952091A9013091E8
:10063000AA018217930738F42091A5013091A601F1
:100640002115310529F41092AB018BEA91E0089550
:10065000820F931F0895833081F028F4813099F040
:100660008230A9F008958730A9F08830C9F084302D
:10067000B1F4809180008F7D03C0809180008F77DE
:1006800080938000089584B58F7784BD089584B5E4
:100690008F7DFBCF8091B0008F778093B00008955D
:1006A0008091B0008F7DF9CFCF93DF93E1EDF3E040
:1006B0008491E0E3F5E0D491ECE1F5E0C491CC2342
:1006C000A1F081110E942B03EC2FF0E0EE0FFF1F31
:1006D000ED5FFA4FA591B491EC91ED2381E090E0AC
:1006E00009F480E0DF91CF91089580E090E0FACFA7
:1006F0001F93CF93DF93282F30E0F901E453FC4F91
:100700008491F901E55DFA4FD491F901E95EFA4F60
:10071000C491CC23A9F0162F81110E942B03EC2F3A
:10072000F0E0EE0FFF1FE35FFA4FA591B4918FB792
:10073000F894EC91111108C0D095DE23DC938FBFA3
:10074000DF91CF911F910895DE2BF8CFCF93DF93E8
:1007500090E0FC01E55DFA4F2491895E9A4FFC011F
:1007600084918823C9F090E0880F991FFC01EE5313
:10077000FC4FA591B491FC01E35FFA4FC591D49170
:1007800061110DC09FB7F8948C91209582238C93B2
:100790008881282328839FBFDF91CF9108956230FD
:1007A00051F49FB7F8943C91822F809583238C93CA
:1007B000E8812E2BEFCF8FB7F894EC912E2B2C9352
:1007C0008FBFEACF3FB7F8948091A1019091A20129
:1007D000A091A301B091A40126B5A89B05C02F3F0D
:1007E00019F00196A11DB11D3FBFBA2FA92F982F57
:1007F0008827BC01CD01620F711D811D911D42E052
:10080000660F771F881F991F4A95D1F708958F9219
:100810009F92AF92BF92CF92DF92EF92FF924B01E5
:100820005C010E94E2036B017C010E94E2036C19EF
:100830007D098E099F09683E734081059105A8F3E3
:1008400021E0821A9108A108B10888EEC80E83E061
:10085000D81EE11CF11C81149104A104B10429F7F4
:10086000FF90EF90DF90CF90BF90AF909F908F90D0
:1008700008952FB7F89460919D0170919E01809129
:100880009F019091A0012FBF08958F929F92AF92E8
:10089000BF92CF92DF92EF92FF92CF93DF93EC0162
:1008A0006B010E9439044B015C01F12CE12C0E9488
:1008B0003904681979098A099B096C157D058E052B
:1008C0009F0560F40E9454038C179D0799F062E025
:1008D00070E080E090E00E940704E9CF80E0DF91C3
:1008E000CF91FF90EF90DF90CF90BF90AF909F900F
:1008F0008F90089581E0F3CF8F929F92AF92BF9235
:10090000CF92DF92EF92FF920F931F93CF93DF93DB
:10091000CDB7DEB72D970FB6F894DEBF0FBECDBFB3
:100920006C010E9439044B015C01F12CE12C1DE0AB
:1009300001E00E943904681979098A099B096C153C
:100940007D058E059F0508F0A2C08091D20290918E
:10095000D302892B09F489C08091D2029091D302ED
:10096000DC01ED91FC910084F185E02D0995892B46
:1009700009F47BC08091D2029091D302DC01ED9109
:10098000FC910284F385E02D0995E091E002E111EC
:1009900007C08E3709F78093D6020093E002DCCFC0
:1009A00091E09E0F9093E002F0E0ED54FD4F83A3A1
:1009B0009A3090F28091DF028F3E09F053C020916F
:1009C000D9028091D7029091D802890F9927991F57
:1009D000820F911D4091DA02480F592F511D8091CD
:1009E000DB02480F511D8091DC02840F952F911D71
:1009F0009195819591093091DD02391333C0909121
:100A0000DE0298132FC04091DB025091DC028AE095
:100A1000E6EDF2E0DE01149601900D928A95E1F781
:100A2000A091490381E08A0F877090914A0389134E
:100A300005C091E0980F977090934A03298354273B
:100A4000452754275B834A831A9FD0011124FE0156
:100A50003196AF51BD4F912F01900D929A95E1F7CC
:100A6000809349031092E00277CF80914A039091DE
:100A70004903981729F08F5F877080934A03F5CF59
:100A800062E070E080E090E00E94070452CF2D9673
:100A90000FB6F894DEBF0FBECDBFDF91CF911F918F
:100AA0000F91FF90EF90DF90CF90BF90AF909F900D
:100AB0008F9008958F3108F08EE1809351039091CB
:100AC0004C03992349F0682F70E086E00E94CF0222
:100AD0008AE090E00C947C040895CF93DF93C1E00A
:100AE000D0E0009729F0EC01C39710F0C2E3D0E00A
:100AF00060E086E00E94780310924D0380914C03E1
:100B0000811117C061E087E00E94780381E0809343
:100B10004C0364E670E080E090E00E9407040E94CD
:100B2000390460935203709353038093540390935A
:100B300055031092CE021092CD021092CC02109268
:100B4000CB021092CA021092C9028DE991E09093F3
:100B5000D0028093CF028091BF02863108F047C057
:100B60002DEB30E03093CA022093C9022BE931E02B
:100B70003093CC022093CB022CE231E03093CE02B2
:100B80002093CD022091680094E0883048F031E055
:100B90008E3008F430E091E001C0990F3A95EAF701
:100BA000922B909368002DE630E0883050F02BE6D1
:100BB00030E08E3030F02CE630E0863110F030E05E
:100BC00020E03093C7022093C602282F30E08830FF
:100BD00008F096C091E001C0990F8A95EAF79093CA
:100BE000C8028091CF029091D0020197F1F78091D5
:100BF000CD029091CE02892B49F1E0911302F09140
:100C0000140282E0E33BF80709F1309739F0A38939
:100C1000B4899C918589809589238C938091D10298
:100C20008E7F8093D102109212021092110283EBF8
:100C300092E09093140280931302E091C602F09127
:100C4000C70280819091C802892B80836AE070E09E
:100C500080E090E00E94070483EB92E09093D3023F
:100C60008093D20285E08093D40281E08093D50204
:100C700060E085E00E94A6031092E00210924A0311
:100C800010924903609151036F3108F06EE170E0FA
:100C900086E00E94CF0282E390E00E947C04BE01C5
:100CA00082E10E94CF0288E090E00E947C0464E62A
:100CB00070E090E080E00E944504882371F16CE3CD
:100CC00070E080E090E00E94070461E086E00E940E
:100CD000780381E080934D0380934E03D0935003BB
:100CE000C0934F030E9439046093520370935303DF
:100CF000809354039093550381E0DF91CF91089541
:100D00008E3040F42850310991E001C0990F2A95A6
:100D1000EAF765CF2E503109F7CF70E060E086E149
:100D20000E94CF0284E190E00E947C04BE0182E137
:100D30000E94CF0288E090E00E947C0464E670E0AC
:100D400090E080E00E9445048111B9CFD6CF809118
:100D50004D03882361F060E570E080E090E00E9440
:100D6000070460E086E00E94780310924D0370E073
:100D700060E086E10E94CF0284E190E00E947C0462
:100D800060E971E081E090E00E94450410924E031A
:100D90001092500310924F030E9439046093520343
:100DA0007093530380935403909355030895DF92F7
:100DB000EF92FF920F931F93CF93DF937C01D62E78
:100DC0008A01309110023A3090F08CEA91E021E0F3
:100DD0004AE0FC013A96DC0101900D924A95E1F758
:100DE0002F5F0A963213F4CF89E080931002C091EE
:100DF000100281E08C0F80931002D0E00E94390431
:100E00002AE02C9FF0012D9FF00D1124E455FE4F98
:100E100022E02083F282E182D382158304836683F9
:100E2000778380879187DF91CF911F910F91FF90FA
:100E3000EF90DF900895AF92BF92CF92DF92EF9242
:100E4000FF920F931F93CF93DF936C017B018B0174
:100E5000040F151FEB015E01AE18BF08C017D107C4
:100E600059F06991D601ED91FC910190F081E02D4E
:100E7000C6010995892B79F7C501DF91CF911F91A3
:100E80000F91FF90EF90DF90CF90BF90AF900895BB
:100E9000FC01538D448D252F30E0842F90E0821B80
:100EA000930B541710F0CF96089501970895FC0105
:100EB000918D828D981761F0A28DAE0FBF2FB11D5D
:100EC0005D968C91928D9F5F9F73928F90E00895B5
:100ED0008FEF9FEF0895FC01918D828D981731F06F
:100EE000828DE80FF11D858D90E008958FEF9FEFC3
:100EF0000895FC01918D228D892F90E0805C9F4F99
:100F0000821B91098F739927089585E192E00E94D1
:100F1000790721E0892B09F420E0822F089580E0F1
:100F200090E0892B29F00E94850781110C94000024
:100F30000895FC01A48DA80FB92FB11DA35ABF4F6E
:100F40002C91848D90E001968F739927848FA689C8
:100F5000B7892C93A089B1898C91837080648C931C
:100F6000938D848D981306C00288F389E02D8081CB
:100F70008F7D80830895EF92FF920F931F93CF93FD
:100F8000DF93EC0181E0888F9B8D8C8D98131AC0C4
:100F9000E889F989808185FF15C09FB7F894EE89AB
:100FA000FF896083E889F989808183708064808308
:100FB0009FBF81E090E0DF91CF911F910F91FF9053
:100FC000EF900895F62E0B8D10E00F5F1F4F0F73FB
:100FD0001127E02E8C8D8E110CC00FB607FCFACFB6
:100FE000E889F989808185FFF5CFCE010E949907B4
:100FF000F1CFEB8DEC0FFD2FF11DE35AFF4FF08287
:101000009FB7F8940B8FEA89FB8980818062CFCFEC
:101010000F931F93CF93DF938C01D0E0C0E0F801D2
:10102000EC0FFD1F6491662341F085E192E00E9480
:10103000BB07892B11F02196F2CFCE01DF91CF9122
:101040001F910F910895CF93DF93EC01888D882332
:10105000B9F0AA89BB89E889F9898C9185FD03C01B
:10106000808186FD0DC00FB607FCF7CF8C9185FF00
:10107000F2CF808185FFEDCFCE010E949907E9CFA5
:10108000DF91CF9108952091130230911402281717
:10109000390771F49091110280911202981741F072
:1010A000E0911102F0E0E15CFE4F808190E0089554
:1010B0008FEF9FEF08950895EF92FF920F931F9384
:1010C000CF93DF93DC015C96ED90FC905D97E1148B
:1010D000F10479F481E090E013969C938E9312973B
:1010E00090E080E0DF91CF911F910F91FF90EF9002
:1010F00008955196ED91FC91529750968C9150978E
:10110000982F90950FB75E962C915E97122F1270C4
:1011100021FD6095F8942081112319F1282B20835B
:10112000E7012197F1F728E0462F50E0308160FF7A
:101130001AC0382B3083E7012197F1F7BA01759572
:101140006795215089F7112381F08081892380835D
:101150000FBF5C968D919C910197F1F781E090E033
:10116000C1CF2923DCCF3923E5CF9081892BEFCF65
:1011700020911302309114022817390761F48091ED
:1011800012022091110290E0805C9F4F821B910916
:101190008F739927089590E080E0089520911302BD
:1011A0003091140228173907B9F4909111028091F7
:1011B0001202981789F0E0911102F0E0E15CFE4F15
:1011C00080812091110230E02F5F3F4F2F73332732
:1011D0002093110290E008958FEF9FEF089590E023
:1011E00080E0089508958EBD00000DB407FEFDCF88
:1011F0008EB508951F93CF93DF93182F80E591E06C
:101200000E94CC02C6E5D3E060E08A890E947803A0
:1012100083E00E94F308812F0E94F30880E00E947F
:10122000F308182F61E08A890E947803812FDF91EB
:10123000CF911F910895FF920F931F93CF93DF9348
:10124000F82E062F142F80E591E00E94CC02C6E50F
:10125000D3E060E08A890E94780385E00E94F30869
:101260008F2D0E94F308802F0E94F308812F0E9487
:10127000F30861E08A89DF91CF911F910F91FF9070
:101280000C947803CF93DF93C82F0E943904D62F94
:101290004C2F60EE8FE00E941B098EE00E94FA083E
:1012A000807EC81749F00E9439046D1B693C80F3A9
:1012B00081E0DF91CF91089580E0FBCFCF93DF9362
:1012C000C82F8EE00E94FA08807E8032F9F4C03286
:1012D000E9F08BE20E94FA08D82FD07486FD05C091
:1012E00040E460E48BE20E941B0940E460E48CE28D
:1012F0000E941B0980E60E944209811111C0D11190
:1013000005C040E060E48BE20E941B0940E060E41D
:101310008CE20E941B098C2FDF91CF910C94420923
:1013200081E0DF91CF910895FF920F931F93CF93A8
:10133000DF93C82FF62E172F042F80E591E00E942F
:10134000CC0260E0809168030E94780382E00E94F2
:10135000F3088C2F0E94F308CF2DD12F0C0F1D2FD7
:10136000111DC017D10721F089910E94F308F9CF10
:1013700061E080916803DF91CF911F910F91FF9001
:101380000C947803CF93DF9300D000D0CDB7DEB7B5
:10139000E32FFF272C83EB83613081F498E09A835D
:1013A000198244E0BE016F5F7F4F0E9494090F9045
:1013B0000F900F900F90DF91CF9108951A82F0CF88
:1013C0000F931F93CF93DF93082F162F80E591E0A3
:1013D0000E94CC02C6E5D3E060E08A890E947803CF
:1013E00082E00E94F308802F0E94F308812F0E9460
:1013F000F30861E08A89DF91CF911F910F910C94DE
:1014000078032F923F924F925F926F927F928F92CA
:101410009F92AF92BF92CF92DF92EF92FF920F9383
:101420001F93CF93DF93CDB7DEB762970FB6F894D3
:10143000DEBF0FBECDBF982E9A8B062F22E02F87DE
:101440002E0183E0480E511C998A92E0960F988BEA
:101450001E01A9E02A0E311C60900D0170900E0152
:1014600080900F01FE013C96FE87ED87D201E6E0F9
:101470001D92EA95E9F7F0E6F9830A83D201E92D96
:10148000FA8981918D938E2F2989821B8017C8F349
:1014900081EF96E0A0E0B0E080935703909358036B
:1014A000A0935903B0935A03109264031092560309
:1014B000988990935B03FE013196ACE5B3E081918E
:1014C0008D93E215F305D9F70E94E2035B016C01ED
:1014D00069867A868B867101D7011D917D01812FE6
:1014E0000E94FA0883FD37C01F5FF12C0E94E203BF
:1014F000DC01CB018A199B09AC09BD09F2E0FF129E
:1015000034C0843C9940A105B10510F36EE170E050
:1015100080E090E00E9407042F852130C9F4629694
:101520000FB6F894DEBF0FBECDBFDF91CF911F91F4
:101530000F91FF90EF90DF90CF90BF90AF909F9072
:101540008F907F906F905F904F903F902F90089575
:10155000F1E0FF878BCFED85FE85EE16FF0609F0E3
:10156000BBCF10E042E0F42EC1CF843C9940A105EE
:10157000B10560F640915B036CE573E085E0810F97
:101580000E94940980916403813029F480915B0367
:10159000806480935B0360915B0384E0810F0E9411
:1015A000E0098091570390915803A0915903B0919D
:1015B0005A03209156032130B1F58C879B87CD01CA
:1015C000AA27BB27282F23702860382F330F330F0B
:1015D000330F307E232B2A8735E0969587953A95F1
:1015E000E1F7898744E0B101812F0E9494091150ED
:1015F00048E068E0812F0E941B090E94E2036B0112
:101600007C01812F0E94FA08B82E0E94E2036C1917
:101610007D098E099F09B3FE79CF643C794081052D
:10162000910578F373CF9C0193E0369527959A95B1
:10163000E1F729878295880F807E8A871C861B8622
:10164000D1CFCF93DF9300D000D01F92CDB7DEB7BC
:1016500020912B0430912C04A1EFB6E00E9497203A
:101660006E5C7F4F8F4F9F4F24E630E040E050E0AC
:101670000E94752080E3898380E28A8386E08B83E1
:101680003C832D8365E0CE0101960E94010A0F90F4
:101690000F900F900F900F90DF91CF910895CF93FF
:1016A000DF9300D000D01F92CDB7DEB720912D047C
:1016B00030912E04AAE6B0E00E949720625C7F4F32
:1016C0008F4F9F4F2DE730E040E050E00E947520A3
:1016D00080E3898381E28A8386E08B833C832D8348
:1016E00065E0CE0101960E94010A0F900F900F90C5
:1016F0000F900F90DF91CF910895FF920F931F935A
:10170000CF93DF93C82FF62E172F042F80E591E09B
:101710000E94CC0260E0809168030E94780383E01D
:101720000E94F3088C2F0E94F308CF2DD12F0C0FAD
:101730001D2F111DC017D10729F080E00E94F3086A
:101740008993F8CF61E080916803DF91CF911F9179
:101750000F91FF900C9478030F931F93CF93DF9317
:1017600000D000D0CDB7DEB7182F109256031092DC
:101770005703109258031092590310925A0344E0F1
:10178000BE016F5F7F4F0E947D0B2A81898138E007
:10179000839FC0011124422F50E065E05595479585
:1017A0006A95E1F7840F951F092E000CAA0BBB0B5D
:1017B0008093570390935803A0935903B0935A030F
:1017C00023FF29C032E0880F991FAA1FBB1F3A953B
:1017D000D1F72370820F911DA11DB11DBA2FA92F22
:1017E000982F88272B81820F911DA11DB11DBA2F23
:1017F000A92F982F88272C81820F911DA11DB11D23
:101800008093570390935803A0935903B0935A03BE
:1018100081E0809356038FEF810F0E94FA08082F12
:1018200084E0810F0E94FA0803FF16C091E09093B4
:101830006403482F4F7040935B036CE573E085E0D1
:10184000810F0E947D0B0F900F900F900F90DF91F2
:10185000CF911F910F91089510926403EACF1F93C7
:10186000CF93DF9380E591E00E94CC02C6E5D3E000
:1018700060E08A890E94780380EA0E94F30880E091
:101880000E94F308182F61E08A890E947803812F53
:10189000DF91CF911F910895CF93CFB7F8948091A6
:1018A0003E01811127C0E1E2F5E08491E5E3F5E036
:1018B0009491E82FF0E0EE0FFF1FEE53FC4FA5913F
:1018C000B491EC91E92321F461E08AE00E9478036D
:1018D00061E08AE00E94A6038CB580618CBD8CB566
:1018E00080648CBD61E08DE00E94A60361E08BE026
:1018F0000E94A60380913E018F5F80933E01CFBF7F
:10190000CF91089520914E03222349F020914F0357
:10191000309150038217930711F40C94A706089591
:10192000CF92DF92EF92FF920F934617B9F1DC014D
:1019300012966D917C911397ED91FC91C080D180AE
:10194000E280F3804111022FFB01EC5EFE4F20810B
:1019500030E0C901019687709927DB01AB5EBE4F6D
:101960004C91481306C0AC014F5F5F4F477055273D
:101970004C9395E0929FA001939F500D1124640F0A
:10198000751FDB01A451BF4F0C9363517F4FDB01E7
:10199000CD92DD92ED92FC92139780830F91FF9090
:1019A000EF90DF90CF9008958F929F92AF92BF9269
:1019B0000F931F93CF93DF93CDB7DEB7A1970FB6E9
:1019C000F894DEBF0FBECDBF19A2423008F44AE042
:1019D0008E010F5D1F4F842E912CB12CA12CA501DF
:1019E00094010E947520E62FB901CA01EA3044F53E
:1019F000E05DD801EE938D01232B242B252B79F765
:101A000090E080E0109769F0FD0101900020E9F777
:101A10003197AF014A1B5B0BBD0185E192E00E944B
:101A20001B07A1960FB6F894DEBF0FBECDBFDF91A6
:101A3000CF911F910F91BF90AF909F908F9008957D
:101A4000E95CD7CF42E050E06AE371E085E192E0E3
:101A50000C941B07CF93DF930E940808EC010E94AF
:101A6000220D8C0F9D1FDF91CF910895CF92DF92B1
:101A7000EF92FF92CF93DF93C82F6A017B018BEE29
:101A800094E00E942A0D80E80E945E09D82F87EC1E
:101A900094E0D1111CC0C330B9F118F5C13051F137
:101AA000C23069F1A701960160E080E00E94C2099E
:101AB000809169030E945E09D82F80E794E0DD23BE
:101AC00031F085EA94E00E942A0D8BE894E00E94B0
:101AD0002A0D8D2FDF91CF91FF90EF90DF90CF9067
:101AE0000895C430B1F0C530E9F6A701960160E071
:101AF00088E1DCCFA701960160E084E0D7CFA701A1
:101B0000960160E088E0D2CFA701960160E080E115
:101B1000CDCFA701960160E084E1C8CFCF93DF93DA
:101B2000D82F8AE594E00E942A0D80E80E945E0981
:101B3000C82F83E394E0C11119C02FEF37E040E0D4
:101B400050E060E080E2D11184E20E94C2098091FD
:101B500069030E945E09C82F80EE93E0CC2331F028
:101B600081E194E00E942A0D89EF93E00E942A0D02
:101B70008C2FDF91CF910895CF93C82F682F89E0E4
:101B80000E94780381E790E00E94080888E690E0D0
:101B9000CC2311F08CE690E0CF910C942A0D0C949C
:101BA0002A0D809190018823E1F080919601815067
:101BB0008230B8F080914E03882341F080914F032A
:101BC00090915003029769F00E94A70682E090E08E
:101BD0000E946D0583E0809396018AE790E00C9463
:101BE000CF0D0895CF93DF93682F70E090E080E0F1
:101BF0004AE00E94D40CEC010E94220D8C0F9D1F24
:101C0000DF91CF910895FC0180819181009711F0BF
:101C10000C94702108950F931F93CF93DF93EC01E1
:101C200088819981009759F02A813B8126173707CF
:101C300030F081E0DF91CF911F910F9108958B01DA
:101C40006F5F7F4F0E94F921009759F09983888335
:101C50001B830A832C813D81232B59F7FC011082C1
:101C6000E8CF80E0E7CFCF93DF93EC0119821882B1
:101C70001B821A821D821C8270E060E00E940B0EA3
:101C80002881398181110FC02115310519F0C90151
:101C90000E947021198218821D821C821B821A8266
:101CA000DF91CF9108951D821C826CE371E0C90120
:101CB000DF91CF910C94BF22CF93DF93EC0170E0C2
:101CC00060E00E940B0E2881398181110FC021151F
:101CD000310519F0C9010E947021198218821D82F4
:101CE0001C821B821A82DF91CF9108951D821C8273
:101CF0006CE371E0C901DF91CF910C94BF22EF92A8
:101D0000FF920F931F93CF93DF9300D0CDB7DEB731
:101D10008C0169831A82FC01E480F580FFEFEF1AE1
:101D2000FF0AB7010E940B0E882381F0F801208181
:101D3000318184819581BE016F5F7F4F820F931F38
:101D40000E94BF22F801F582E48281E00F900F909B
:101D5000DF91CF911F910F91FF90EF9008951F9207
:101D60000F920FB60F9211242F933F938F939F934F
:101D7000AF93BF9380919D0190919E01A0919F018F
:101D8000B091A00130919C0123E0230F2D3758F52D
:101D90000196A11DB11D20939C0180939D019093FC
:101DA0009E01A0939F01B093A0018091A101909109
:101DB000A201A091A301B091A4010196A11DB11DA2
:101DC0008093A1019093A201A093A301B093A401D9
:101DD000BF91AF919F918F913F912F910F900FBE27
:101DE0000F901F90189526E8230F0296A11DB11D94
:101DF000D2CF1F920F920FB60F9211242F933F93C1
:101E00004F935F936F937F938F939F93AF93BF9302
:101E1000EF93FF9385E192E00E949907FF91EF9184
:101E2000BF91AF919F918F917F916F915F914F91F2
:101E30003F912F910F900FBE0F901F9018951F92FA
:101E40000F920FB60F9211242F938F939F93EF93BE
:101E5000FF93E0912502F09126028081E0912B0210
:101E6000F0912C0282FD1BC0908180912E028F5F29
:101E70008F7320912F02821741F0E0912E02F0E043
:101E8000EB5EFD4F958F80932E02FF91EF919F9116
:101E90008F912F910F900FBE0F901F9018958081FA
:101EA000F4CF1F920F920FB60F9211242F933F93EE
:101EB0004F935F936F937F938F939F93AF93BF9352
:101EC000EF93FF93E0911302F0911402309749F0E1
:101ED000A685B7858585968D91FF14C09C91892331
:101EE000A1F4FF91EF91BF91AF919F918F917F915D
:101EF0006F915F914F913F912F910F900FBE0F9077
:101F00001F9018959C91892361F7A389B4899C91AE
:101F10008589809589238C93868997890197F1F724
:101F2000608D718DA685B785558538E020E0CB01A1
:101F30000197F1F7822F90E095958795282F4C9186
:101F4000452309F02068315091F7868D81FD209559
:101F50008091120290E001968F73992730911102BF
:101F6000381799F0A0911202B0E0A15CBE4F2C93FB
:101F700080931202828D938D0197F1F7A389B48922
:101F80008C919589892B8C93ACCF868D8160868FBF
:101F9000F1CFCF93109218021092170288EE93E0BF
:101FA000A0E0B0E08093190290931A02A0931B0264
:101FB000B0931C028AE191E090931602809315027F
:101FC00085EC90E0909322028093210284EC90E0D3
:101FD000909324028093230280EC90E09093260259
:101FE0008093250281EC90E0909328028093270251
:101FF00082EC90E090932A028093290286EC90E094
:1020000090932C0280932B0210922E0210922F029A
:102010001092300210923102CAE0C093680361E06E
:102020008AE00E94780361E0809168030E94A60321
:1020300082EB92E0909367038093660310921E04F4
:10204000C0931F048CE291E09093210480932004BC
:10205000109222048FEF8093230491E09093240444
:10206000109225041092260410922704109228043E
:102070001092290410922A0424E031E030932C04B9
:1020800020932B042CE735E130932E0420932D046C
:102090002CE130E03093300420932F0423E230E031
:1020A000309332042093310428EE33E0309334042B
:1020B0002093330420EA3FE0309336042093350424
:1020C00010923704109238041092390410923A0496
:1020D00010923B04ECE3F4E026E0DF011D922A9528
:1020E000E9F710926A0410926B0490936C041092BA
:1020F0008104109282041092A1041092A2042AEF8B
:1021000030E03093A4042093A3041092A50410920D
:10211000A6041092A7041092A8048093A9048093A7
:10212000AA041092AB041092AC041092AD04109269
:10213000AE041092AF04E6E5F3E08AE094E015A265
:1021400072968E179F07D9F71092B6021092B502B9
:1021500088EE93E0A0E0B0E08093B7029093B802DD
:10216000A093B902B093BA028CE291E09093B402CA
:102170008093B3021092CA021092C9021092CC024C
:102180001092CB021092CE021092CD021092D00289
:102190001092CF026091D1026E7F6D7F6093D10269
:1021A0006695617081E0682783E00E94780361E0B2
:1021B00083E00E94A603EEE2F5E0E491E093C3021F
:1021C000EAE1F5E0E491F0E0EE0FFF1FE35FFA4F84
:1021D000859194919093C5028093C40260E084E05D
:1021E0000E94A6038091D10281FD04C061E084E0D9
:1021F0000E94780384E08093BF02EFE2F5E0E4916F
:10220000E093C002EBE1F5E0E491F0E0EE0FFF1F98
:10221000ED5FFA4F859194919093C2028093C10231
:102220001092D3021092D2028FEF8093D40281E0F9
:102230008093D5021092E0021092490310924A0353
:1022400010924B0310924C0310924D0310924E03C8
:102250001092500310924F038CE080935103109220
:102260005203109253031092540310925503CF91CE
:102270000895CF93DF93CDB7DEB7AB970FB6F89441
:10228000DEBF0FBECDBF789484B5826084BD84B5B7
:10229000816084BD85B5826085BD85B5816085BD61
:1022A00080916E00816080936E0010928100809119
:1022B00081008260809381008091810081608093A1
:1022C0008100809180008160809380008091B100C6
:1022D00084608093B1008091B00081608093B000F1
:1022E00080917A00846080937A0080917A00826085
:1022F00080937A0080917A00816080937A00809147
:102300007A00806880937A001092C100E0912502E3
:10231000F091260282E08083E0912102F091220276
:102320001082E0912302F091240280E180831092D8
:102330002D02E0912902F0912A0286E08083E0914B
:102340002702F0912802808180618083E09127023A
:10235000F0912802808188608083E0912702F091CB
:102360002802808180688083E0912702F091280212
:1023700080818F7D808364E670E080E090E00E9441
:10238000070481E591E00E94CF0D61E089E00E94A1
:10239000A60380E00E94BC0D61E086E00E94A603D7
:1023A00060E086E00E94780361E08AE00E94A60374
:1023B00061E08AE00E9478030E944C0C0E944C0C61
:1023C00080E591E00E94CC0260E0809168030E9469
:1023D000780380EC0E94F30861E0809168030E941A
:1023E000780365E070E080E090E00E94070480E4FC
:1023F0008093690380E80E945E09882379F08DEF5D
:1024000090E00E942A0D8FE391E00E94CF0D68EECC
:1024100073E080E090E00E940704F9CF85ED90E042
:102420000E942A0D61E88AE20E94E00966EF89E2D3
:102430000E94E00964E888E20E94E00988EB90E0ED
:102440000E942A0D20E030E0A90161E080E20E94B4
:10245000C20920E030E0A90161E084E20E94C209E3
:1024600020E030E0A90161E080E00E94C20920E0A4
:1024700030E0A90160E084E00E94C20920E030E081
:10248000A90161E088E00E94C20920E030E0A901D2
:1024900060E080E10E94C20920E030E0A90161E033
:1024A00084E10E94C20920E030E0A90160E088E1F7
:1024B0000E94C20910E360E0812F0E94E00960E001
:1024C00080E1810F0E94E00960E080E2810F0E94BC
:1024D000E0091F5F1E3379F760E080E60E94E009A3
:1024E00060E080E70E94E00963E08BE20E94E0097F
:1024F0006CE38CE00E94E00960E08DE00E94E0095E
:1025000044E664E680E60E941B0940E660E680E758
:102510000E941B09809169030E945E09882311F4BF
:102520000C943D1D82E990E06CCF85E192E00E9421
:1025300057078D3009F04AC085E192E00E946B0791
:102540000A9721F485E192E00E945707C090A50107
:10255000D090A601C114D10449F00091A9011091B5
:10256000AA0176010115110509F064C08091A90145
:102570009091AA01892B09F406C190E080E00E94A5
:102580001503DC018C918F7D803509F0BFC0CE0131
:1025900001960E94330E01E010E08091A901909114
:1025A000AA010817190708F088C0C8010E9415037E
:1025B000FC01608180ED860F8A3008F077C0CE0183
:1025C00001960E947F0E0F5F1F4FE7CF8A3009F4FC
:1025D000BDCF682F85EA91E00E947F0E4091A9014E
:1025E0005091AA014932510510F40C94ED1DBA0125
:1025F000685271094617570708F4BA018091A5017E
:102600009091A601461B570B5093AA014093A90134
:10261000680F791F0E94C622E091A501F091A601E2
:102620008091A9019091AA01E80FF91F10820C94E2
:10263000ED1D750157012FEFA21AB20AD7018C9137
:10264000082E000C990B0E940020892B91F7015055
:1026500011090C0D1D1DF8018081082E000C990B2D
:102660000E940020892B31F00E151F0518F0015033
:102670001109F1CF0F5F1F4FA8014E195F09509349
:10268000AA014093A901CE14DF0420F4B701C601CA
:102690000E94B622E091A501F091A6018091A901C6
:1026A0009091AA01E80FF91F108260CF603209F4FF
:1026B0008ACFCE0101960E945C0E8D819E81CC2432
:1026C000CA94DC2C7601892B59F089819A81C12C1E
:1026D000D12C7601009721F00E94C41F6B017C0170
:1026E000D701C6010197A109B109C297A105B1059A
:1026F00040F480914E0381110E94A706C6010E94FA
:102700006D05CE0101960E94030E3DC08635D9F5B8
:102710008091A9019091AA01029729F18091A901C4
:102720009091AA010297A9F1CE0101960E94330E61
:1027300001E010E08091A9019091AA010817190702
:1027400008F05FC0C8010E941503DC016C9180EDA8
:10275000860F8A3008F04EC0CE0101960E947F0E8F
:102760000F5F1F4FE7CF81E090E00E941503DC016F
:102770008C918F3399F689EB91E00E940808809143
:1027800051030E94F20D85EA91E00E945C0E0C94C8
:10279000ED1D81E090E00E941503FC0180818B32E9
:1027A000A9F480915103082F10E081E090E00E948D
:1027B0001503DC018C918B3291F40F5F1F4FC80120
:1027C0000F31110594F08EE190E00FC081E090E0B0
:1027D0000E941503FC0180818D3219F3A5CF0150B1
:1027E000110980E00F3F100751F70E945A058BEA4C
:1027F00091E0C3CF603209F4B3CFCE0101960E94BD
:102800005C0E8D819E81892BC1F089819A81009710
:10281000C1F00E94C41F6F3171058105910508F058
:1028200070CF862F0E945A0589E991E00E9408081E
:10283000809151030E94F20D64CF6FEF7FEFCB01C7
:10284000EACF60E070E0CB01E6CF015011F00C94CC
:10285000F91D25E0F22E06E010E0EE24E3948091CD
:10286000A2049091A104891356C585E0D82E92E068
:10287000F92EEE24E39480916B0490916A048917F9
:1028800009F48EC590E0D89E9001D99E300D112498
:102890002E5B3B4FF901DE0153964D2D01900D92B9
:1028A0004A95E1F7F9011081019687709927809385
:1028B0006B04812F8D7F912F997F11F08830D9F68D
:1028C00080918901811110928901123009F0C5C5EA
:1028D00080919B018E2580939A0180918F0188239E
:1028E00009F461C6112309F4DBC5E0928E01C3CF60
:1028F00081FFAFCF81E70E94AC0B40E062E00C9417
:102900000A1EDC014D91CD01DB014D93BD010C94FC
:102910004A1E80911E0492E1989FF0011124EA5A08
:10292000FC4F448A558A668A778A108F41A352A346
:1029300063A374A321E025A3899FA001112430E0A3
:1029400020E0211788F42830310571F0E9A5FAA5B7
:102950009191FAA7E9A7FA01E20FF31FEA5AFC4F97
:10296000918F2F5F3F4FEDCF8F5F8A3010F40C9423
:10297000B71E10921E040E9439046B017C0100E313
:10298000401601E050066104710409F049C01123AA
:1029900011F40C94F81D9B85809123049813909357
:1029A0002304892F8C7039F4809125048823A9F0A1
:1029B00080E090FF12C08091220481110EC081E05E
:1029C000809326040E94390460932704709328049E
:1029D0008093290490932A0481E0809322048B85BC
:1029E000909195019F7E382F3F7E80939501209195
:1029F00087012F5F209387012091970120939401F5
:102A0000482F4C7021E009F420E020939701953481
:102A100009F41DC2353409F026C21092930123C275
:102A2000FCEF4F16F2E05F066104710409F0EEC09E
:102A3000133008F464C0CD8EDE8EEF8EF8A28C8544
:102A4000082F0170802E82FB992490F884FBCC24FF
:102A5000C0F886FBFF24F0F88D85282F2170D22E38
:102A600082FBEE24E0F84DE150E04C0F5D1F5A83ED
:102A7000498386E593E09C838B8301E020E0482D29
:102A800060913C048B2D9A2D0E94900C03E022E073
:102A9000492D60913D048B2D9A2D0E94900C05E0EC
:102AA00024E04C2D60913E048B2D9A2D0E94900CB9
:102AB00007E026E04F2D60913F048B2D9A2D0E9458
:102AC000900C09E028E04D2D609140048B2D9A2D4B
:102AD0000E94900C0BE02AE04E2D609141048B2D5A
:102AE0009A2D0E94900C80923C0490923D04C092DA
:102AF0003E04F0923F04D0924004E092410428E367
:102B0000421623E052066104710411F00C94F81D82
:102B1000183010F40C94F81D88898E3F11F00C9435
:102B2000F81D89898E3F11F00C94F81D8A898E3F1B
:102B300011F00C94F81D4B855C858D854E32510546
:102B400009F4BBC14B35510509F4B7C19A012558A9
:102B500031402230310508F4B0C1433101E0500763
:102B600009F0CDC1823009F0D6C180919701882348
:102B700019F081E08093920180910101909102010E
:102B80004817590709F0D8C181E0909100019230AF
:102B900009F480E0509302014093010192E0909388
:102BA0000001882311F40C94F81D01E110E0463A6D
:102BB000510509F4CEC108F084C24133510509F42E
:102BC00088C308F015C24D31510508F0E1C10FE18D
:102BD00010E04B31510508F0BCC103E010E040317A
:102BE000510509F4B6C108F0BEC105E110E04D3051
:102BF000510509F4AEC108F0A1C107E110E041158B
:102C0000510509F4A6C10EE010E0A3C154EB45162E
:102C100051E0550661047104E1F5163008F46FCFF8
:102C2000988981E0292F227091FF80E090916C04B7
:102C3000891709F464CF80936C0461E0211160E08E
:102C40004091810450E09A012F5F3F4F237033275A
:102C500080918204821306C0C9010196837099276E
:102C60008093820435E0349FC001359F900D11247C
:102C70008A5A9C4FFC01E95EFE4F6083885E9E4F3E
:102C8000DC01CD92DD92ED92FC92139720938104AA
:102C900036CFBAE34B16B2E05B066104710409F06B
:102CA0007DC0133008F42BCF2D853091A904231358
:102CB0001AC08091A5049091A604A091A704B09198
:102CC000A804B701A601481B590B6A0B7B0B809126
:102CD000A3049091A404B0E0A0E0481759076A0744
:102CE0007B0708F40CCF213009F44DC0243009F4DF
:102CF0004CC0203409F44BC0231709F400CF33E053
:102D0000E091A104F0E0CF010196B1010E94A6205C
:102D10005C018091A2048A1107C0C5010196B1012E
:102D20000E94A6208093A20445E04E9FC0014F9FC1
:102D3000900D11248A5A9C4FFC01E35DFE4F3083B5
:102D4000825D9E4FFC01C082D182E282F382A0921A
:102D5000A1042093A904C092A504D092A604E092F5
:102D6000A704F092A804311114C082E08093AB0450
:102D70002093AA04C092AC04D092AD04E092AE04B9
:102D8000F092AF04BCCE30E0BBCF31E0B9CF32E03F
:102D9000B7CF313069F73093AB04EACFFAEF4F1673
:102DA000F2E05F066104710411F00C94C01E123051
:102DB00008F41EC79C8581E0292F287093FF80E0CE
:102DC00090919B01891709F413C780939B012223DB
:102DD00099F088EA93E00E94CF0D80919A018823B0
:102DE00009F406C781E08093990110929A018EE759
:102DF00093E00E94CF0DFCC680E693E0FACF8DE110
:102E000093E00E94CF0D80919701882309F4F0C6CA
:102E100080919601813009F4EBC680914E0388239E
:102E200041F080914F0390915003029711F40E945A
:102E3000A70680914E038111DBC685E390E00E94D6
:102E40006D0582E08093960188E093E0D2CF35341F
:102E500009F4E3CD8F7B39F481E08093930183ED16
:102E600092E00E94CF0D8091970190919401992357
:102E700099F08111BDC681E00E94BC0D84EB92E007
:102E80000E94CF0D80919201882319F081E08093F8
:102E9000910185E992E0ADCF882309F4A9C610928B
:102EA00091011092990110929A018BE892E00E9490
:102EB000CF0D81E0809324049BC6823079F481E0B9
:102EC0008093900180919601813009F491C681E050
:102ED00090E00E94820C0E94D10D8AC6813009F0D8
:102EE00087C61092900182E090E00E94820C80914F
:102EF0009601833009F07CC61092960179C64E3156
:102F000011E0510709F42ECE823009F435CE81301C
:102F100009F06EC605C0813009F06AC610929201B0
:102F200080910101909102014817590709F060C68C
:102F300081E0809300015CC681E02CCE0BE010E0C4
:102F40004E30510531F00CE010E04F30510509F0E2
:102F50005ACE80919601813009F0C1C161E0C8016B
:102F60000E94D70645C60AE010E04231510589F3B8
:102F700004E010E04231510560F309E010E0433114
:102F8000510539F308E010E04931510511F33BCE0A
:102F90004132510509F4CCC080F44E31510509F499
:102FA000C7C008F496C14F31510509F492C107E03A
:102FB00010E04032510569F226CE4632510509F43F
:102FC00076C158F44332510509F4D2C009E210E049
:102FD0004432510509F4BDCF16CE4732510509F4EC
:102FE000A7C04E32510509F00ECE02E010E0B1CF7D
:102FF0004F36510509F4FDC0B0F506E210E0473444
:10300000510509F4A6CFB8F44F33510509F404C1B2
:1030100038F405E010E04733510509F49ACFF3CDB9
:103020004234510509F443C103E310E04334510530
:1030300009F48FCFE8CD4A35510588F4473551055D
:1030400008F0D7C007E210E04A34510509F481CFF7
:103050004F34510509F0D7CD0BE210E07ACF4B3554
:10306000510519F2D0CD4C38510509F42CC178F432
:103070004B38510508F021C14237510508F0B9C05D
:1030800000E110E04137510509F463CFBCCD4F3862
:10309000510509F415C158F44D38510509F416C10C
:1030A0000DE110E04E38510509F453CFACCD02E1EB
:1030B00010E0443A510509F44CCF453A510561F20C
:1030C000A2CD4B3521E0520708F078C0493531E0F8
:1030D000530708F08EC0453E5105A9F1B8F5463CAE
:1030E0005105B8F4443C510508F083C002E210E0F9
:1030F000463B510509F42DCF08E210E0483B51054D
:1031000009F427CF473A510509F07DCD04E110E0DD
:1031100020CF03E210E0453D510509F41ACF58F4E1
:103120004D3C510509F4C3C0443D510509F06BCD38
:1031300001E210E00ECF483D510509F4CAC04C3DF4
:10314000510509F060CD06E110E003CF433181E085
:10315000580709F4AFC0B8F44130A1E05A0709F4A8
:10316000BBC048F4CA018C5E9109029708F04BCDB0
:103170000AE210E0EECE0EE110E04930E1E05E0739
:1031800009F4E7CE40CD4E31F1E05F0709F492C07B
:1031900060F4493111E0510729F04C3121E0520728
:1031A00009F031CD0CE210E0D4CE403331E05307CA
:1031B00051F2423381E0580731F225CD403692E09A
:1031C000590709F47AC0B0F54E37B1E05B07A0F4B7
:1031D0004A37E1E05E0768F44F36F1E05F0709F433
:1031E0007BC008F410CDCA0183579140039708F0C3
:1031F0000ACD08E110E0ADCE4F3911E0510709F4D6
:10320000A2CF68F44E3731E0530709F4B1CF40380C
:1032100081E0580709F0F7CC05E210E09ACE4B3A6E
:1032200091E0590709F484CF4833A2E05A0709F422
:103230007FCFE9CC0DE210E0493EB3E05B0709F433
:1032400088CE78F44236F2E05F07E9F1C8F1433600
:1032500012E05107D9F1413C23E0520709F468CF4D
:10326000D2CC00E310E04C3E33E0530709F471CEBA
:1032700078F40EE210E04A3E93E0590709F469CE73
:103280000FE210E04B3EA3E05A0709F462CEBBCC3C
:1032900001E310E04D3EB3E05B0709F45ACE02E3D0
:1032A00010E04E3EE3E05E0709F453CEACCC06E0FE
:1032B00010E04FCE03E110E04CCE09E110E049CE22
:1032C0000AE110E046CE0BE110E043CE0CE110E045
:1032D00040CE00E210E03DCE04E210E03ACE82E0C3
:1032E00090E00E94820C80914E0381110E94A706FB
:1032F000C8010E946D0582E08093960187EC91E001
:103300000E940808B80190E080E04AE00E94D40CD6
:103310000E94220D6DC490E0F89E9001F99E300D40
:1033200011242D573B4FF901DE0158964F2D019086
:103330000D924A95E1F7D9012C910196B8010E94AE
:10334000A6208093A204211120C0E0928F01109248
:103350008E010E94390460547B428E4F9F4F6093D0
:103360008A0170938B0180938C0190938D01109250
:10337000990110929A011092890181E00E94BC0D7E
:1033800083E692E00E94CF0D6ACA213009F067CA35
:1033900080E00E94BC0D109289018BE492E0F2CF94
:1033A00080918F01811144C10E94D10D809124042C
:1033B000882309F4D2C10E9439046B017C018091F9
:1033C00026048823F1F1809122048823D1F1809191
:1033D000270490912804A0912904B0912A04B701F0
:1033E000A601481B590B6A0B7B0B80913504909109
:1033F0003604B0E0A0E0481759076A077B0708F1D8
:103400001092260481E0809337042091310430919A
:10341000320480912F04909130042817390708F462
:10342000C90197018601080F191F211D311DD901FE
:10343000C8018093380490933904A0933A04B09360
:103440003B0480913704882309F487C190912204BA
:10345000911109C11092370480C111113ECA8091A7
:103460008F01882309F439CA80919301811135CAEB
:1034700080918E01882309F485C080914E038111CB
:103480000E94A70681E090E00E946D05E0929601FF
:1034900085ED91E00E94CF0D10928F0110928E0168
:1034A00080916C04811118C08091960190918F01D8
:1034B00091117CC0813009F47CC080914E03811150
:1034C0000E94A70682E390E00E946D05F0929601AB
:1034D0008EE292E00E94CF0D8091970181111DC074
:1034E000809191018823C9F080914E03882339F09F
:1034F00020914F03309150032130310571F09091AC
:103500009601913009F05DC050E040E062E08DE24C
:1035100090E00E94D706109291018091970181114D
:10352000AAC980919301882309F4A5C9809100015B
:10353000823009F4A0C98091910181119CC98091C8
:103540009901882309F44BC00E946C1F22E030E0EF
:1035500040E050E00E940C2000E310E0672B682B55
:10356000692B11F001E310E080919601813009F0A0
:1035700048C050E040E064E0C8010E94D7061092C5
:10358000930179C980908A0190908B01A0908C0161
:10359000B0908D010E943904681979098A099B0944
:1035A00097FD6BCF9AC9111166C97ACF813009F0A6
:1035B00093CF50E040E063E082E390E00E94D706C2
:1035C0008BCF81110E94A7068DE290E00E946D05CD
:1035D000F092960181E192E00E94CF0D9CCF0E9473
:1035E0006C1F22E030E040E050E00E940C200EE230
:1035F00010E0672B682B692B09F4B6CF0FE210E0BF
:10360000B3CF80914E0381110E94A706C8010E948A
:103610006D05F092960180E092E00E940808B801E2
:1036200090E080E04AE00E94D40C0E94220DA7CFD7
:1036300080918E018111B8CEC0908A01D0908B010B
:10364000E0908C01F0908D010E9439046C197D0985
:103650008E099F0997FDA8CE10928F0187EE91E009
:103660000E94CF0DA1CE4091380450913904609151
:103670003A0470913B0497018601041B150B260B3D
:10368000370BB901A80177FD68C0833009F4D6C0B3
:1036900028F58130D9F1823009F0DCCE20912F0459
:1036A0003091300480913104909132048217930755
:1036B00008F4C1C00E944F0B8091330490913404F0
:1036C000C80ED91EE11CF11CC0923804D0923904F6
:1036D000E0923A04F0923B0483E03DC0843009F468
:1036E000C7C0853009F0B6CE20912F043091300448
:1036F000809131049091320463E08217930708F4BB
:10370000ECC080E191E00E94010AA4CE20912F0438
:1037100030913004809131049091320482179307E4
:1037200008F47EC00E94210B8091310490913204F4
:1037300020912F0430913004821B930BC80ED91EA8
:10374000E11CF11CC0923804D0923904E0923A0492
:10375000F0923B0482E08093370480914E038823EB
:1037600031F00E945403019711F40E94A706809142
:103770004B03811113C080914C03882379F0809111
:103780004E03882309F4ACC00E94390460935203AD
:10379000709353038093540390935503E0904E032A
:1037A00080918801882309F409C1E11007C10AE06A
:1037B00060911002662309F4DEC2ECEAF1E030E029
:1037C00020E08FEF9FEF261708F0A7C0122F732F6E
:1037D0008F3F9807F9F05081089FD001099FB00DE5
:1037E0001124A455BE4F4C914517A0F0541310C09E
:1037F00086809780A084B18416964D905D906D90E0
:103800007C90199784189508A608B708B7FC02C0E1
:10381000182F792F2F5F3F4F3A96812F972FD3CFB5
:103820000E944F0B80912F0490913004209131041D
:103830003091320481CF0E94210B3ECF2091310480
:103840003091320480912F04909130042817390769
:1038500008F4C901C80ED91EE11CF11CC09238043D
:10386000D0923904E0923A04F0923B0484E073CFA2
:1038700020912F04309130048091310490913204D2
:1038800063E082179307E0F083E191E00E94010A70
:10389000809131049091320420912F0430913004B2
:1038A000821B930BC80ED91EE11CF11CC092380478
:1038B000D0923904E0923A04F0923B0485E04BCF79
:1038C00080E191E00E94010A80912F0490913004E0
:1038D0002091310430913204E3CF83E191E013CFA2
:1038E000C0905203D0905303E0905403F0905503DE
:1038F0000E9439046C197D098E099F096031774255
:103900008105910508F44ACF60E087E00E947803C2
:1039100010924C0310924D0341CF089F9001099FD4
:10392000300D112424553E4FF901DE011196902FE0
:1039300001900D929A95E1F7D90111966D907C90C6
:10394000129713961C91139714962D913C91782FF2
:103950008F5F809FC001112450E040E07F5F7617A9
:1039600090F4FC01E40FF51FE455FE4FDF011A97B8
:103970000F2EFAE0CF2EF02D01900D92CA94E1F7B0
:10398000465F5F4FEBCF615060931002123009F435
:1039900062C048F5112309F442C0113091F18091C1
:1039A0004E0381110E94A706C3010E946D051123D9
:1039B00009F45FC082E0153008F45CC0E092880131
:1039C00062E070E080E090E00E94070480E090E018
:1039D000892B09F4F7C00E948507882309F4F2C0F7
:1039E0000E940000EFC0133009F43EC01430B9F655
:1039F000809197018111DCCE80910001823079F6AF
:103A0000D7CE80910001823009F0D2CE80910101A1
:103A1000909102018217930709F0CACEC0CF80911E
:103A20008F01882309F4C4CE80918E01882311F080
:103A300010E0B5CF80908A0190908B01A0908C010E
:103A4000B0908D010E943904681979098A099B098F
:103A500097FDEECFADCE809197018111A9CE8091D7
:103A6000910181119CCFA4CE80916C048111A0CED4
:103A700096CF81E080939601A1CF80E00E948E0DC9
:103A800048E353E060E070E080E00E94360D4AE3D6
:103A900052E060E070E081E00E94360D81E00E941B
:103AA0008E0D4CEF52E060E070E082E00E94360D37
:103AB00040E351E060E070E083E00E94360D44EBAB
:103AC00051E060E070E084E00E94360D45E153E093
:103AD00060E070E085E00E94360D1092690380E09E
:103AE0000E945E0960E088E00E94A60384E291E003
:103AF0000E94CF0D81E0809324041092250484E07D
:103B000091E090932C0480932B048CE795E19093A3
:103B10002E0480932D048CE190E0909330048093E8
:103B20002F0483E290E0909332048093310488EE76
:103B300093E0909334048093330480EA9FE0909361
:103B400036048093350410924B0361E087E00E94B5
:103B5000A60361E086E00E94A60362E085E00E9481
:103B6000A60360E086E00E94780360E087E00E94A0
:103B7000780310924D0310924C030E943904609315
:103B8000520370935303809354039093550380E43E
:103B900080937C0080917A00806480937A00809189
:103BA0007A0086FDFCCF6091780070917900072E35
:103BB000000C880B990B611571058105910511F0B9
:103BC0000E94BB1F80917F01811107C085EA91E0AF
:103BD0000E94330E81E080937F0185E192E00E9494
:103BE0007907892B11F00C94951246E0242E312C84
:103BF00006E00E942F0C837011F40C9429140E948B
:103C00002F0C80FD02C00C94781481E60E94AC0B4E
:103C100040E061E08CE20E941B09809156038823FA
:103C200089F08091570390915803A0915903B09166
:103C30005A03B0688093570390935803A093590395
:103C4000B0935A0380916403882389F080915703CD
:103C500090915803A0915903B0915A03B064809396
:103C6000570390935803A0935903B0935A0340907D
:103C70005703509058036090590370905A03109165
:103C80005B038CE593E0FE013196BF01BE2EAF2EA3
:103C9000212F30E0AB014E1B5F0B4217530714F48A
:103CA0000C9481149E01255F3F4F3AA729A7D901A3
:103CB00080E0811731F0883021F091919D938F5FE2
:103CC000F8CF0E943904AB01BC0180902004909091
:103CD0002104B0911F04BBA7E6E5F3E020E06401F6
:103CE000F12CE12CC9A2DAA2EBA2FCA2BBA5B2176F
:103CF00011F40C9489142A3011F40C94891485A1C0
:103D0000882391F1C1A0D2A0E3A0F4A0DB01CA01F5
:103D10008C199D09AE09BF09C9A0DAA0EBA0FCA0CF
:103D2000C816D906EA06FB06F8F084899589A689A3
:103D3000B789481659066A067B06B1F4808D1813B8
:103D400013C089A49AA490E080E0811710F00C942D
:103D50002514DF01A80FB91F5996CC90D4013D91CD
:103D60004D010196C31689F32F5F7296BFCF8093E2
:103D70001E040C94BB140E94D10D109296011ECE0D
:103D800035E1431633E053066104710411F00C94DD
:103D90007F15123008F42CCF9C8581E0923F09F00A
:103DA00080E020919801281709F422CF8093980190
:103DB000923F09F024C889E493E00E94CF0D8091DE
:103DC0009701882309F414CF80919601813009F47A
:103DD0000FCF80914E03882341F080914F03909143
:103DE0005003029711F40E94A70680914E0381119F
:103DF000FFCE84E390E00E946D0582E080939601FF
:103E000085E393E00C94F9168CE291E09093B40270
:103E10008093B3028091130290911402835B9240CD
:103E200071F4E091C602F091C70290818091C802BE
:103E300080958923808310921402109213020895B2
:103E40008F929F92AF92BF92CF92DF92EF92FF92AA
:103E5000CF93DF93EC01688179818A819B81611521
:103E600071058105910521F464E279ED8BE597E018
:103E70002DE133EF41E050E00E940C2049015A014E
:103E80009B01AC01A7EAB1E40E942B206B017C01ED
:103E9000ACEEB4EFA50194010E943920C60ED71EE6
:103EA000E81EF91EF7FE06C081E0C81AD108E10835
:103EB00080E8F80AC882D982EA82FB82C701B6018B
:103EC0009F77DF91CF91FF90EF90DF90CF90BF90E1
:103ED000AF909F908F9008958F929F92AF92BF92D4
:103EE000CF92DF92EF92FF926091030170910401F3
:103EF000809105019091060161157105810591057B
:103F000021F464E279ED8BE597E02DE133EF41E0B8
:103F100050E00E940C2049015A019B01AC01A7EA24
:103F2000B1E40E942B206B017C01ACEEB4EFA50143
:103F300094010E943920C60ED71EE81EF91EF7FE16
:103F400006C081E0C81AD108E10880E8F80AC092EA
:103F50000301D0920401E0920501F0920601C7012D
:103F6000B6019F77FF90EF90DF90CF90BF90AF901A
:103F70009F908F9008956093030170930401809344
:103F800005019093060108951F93FC019927882746
:103F9000BC01E89411911032E9F3193010F01E3091
:103FA000C8F31B3251F01D3249F4689406C00E94D8
:103FB000EB1F610F711D811D911D119110531A305E
:103FC000B0F33EF490958095709561957F4F8F4F3B
:103FD0009F4F1F910895592F482F372F262F660F77
:103FE000771F881F991F660F771F881F991F620F01
:103FF000731F841F951F660F771F881F991F0895D1
:1040000091110C940920803219F089508550C8F71D
:104010000895992788270895052E97FB1EF400948C
:104020000E94232057FD07D00E94752007FC03D073
:104030004EF40C94232050954095309521953F4F98
:104040004F4F5F4F089590958095709561957F4F84
:104050008F4F9F4F08950E949720A59F900DB49F6A
:10406000900DA49F800D911D11240895B7FF0C940D
:104070002B200E942B20821B930B08952F923F929E
:104080004F925F926F927F928F929F92AF92BF9268
:10409000CF92DF92EF92FF920F931F93CF93DF9314
:1040A000CDB7DEB7CA1BDB0B0FB6F894DEBF0FBE71
:1040B000CDBF09942A88398848885F846E847D84BE
:1040C0008C849B84AA84B984C884DF80EE80FD80C0
:1040D0000C811B81AA81B981CE0FD11D0FB6F89436
:1040E000DEBF0FBECDBFED010895A1E21A2EAA1BBF
:1040F000BB1BFD010DC0AA1FBB1FEE1FFF1FA21798
:10410000B307E407F50720F0A21BB30BE40BF50B94
:10411000661F771F881F991F1A9469F7609570951D
:10412000809590959B01AC01BD01CF010895A29FA0
:10413000B001B39FC001A39F700D811D1124911D7B
:10414000B29F700D811D1124911D089597FB072EBC
:1041500016F4009407D077FD09D00E94BA2007FC1E
:1041600005D03EF4909581959F4F08957095619587
:104170007F4F0895AA1BBB1B51E107C0AA1FBB1F9D
:10418000A617B70710F0A61BB70B881F991F5A95E3
:10419000A9F780959095BC01CD010895EE0FFF1F02
:1041A0000590F491E02D09940F931F93CF93DF9323
:1041B0008230910510F482E090E0E091B204F09139
:1041C000B30430E020E0B0E0A0E0309799F421158E
:1041D000310509F44AC0281B390B24303105D8F5C4
:1041E0008A819B816115710589F1FB01938382832B
:1041F000FE0111C040815181028113814817590786
:10420000E0F04817590799F4109761F012960C9353
:10421000129713961C933296CF01DF91CF911F9185
:104220000F9108950093B2041093B304F4CF2115B5
:10423000310551F04217530738F0A901DB019A010B
:10424000BD01DF01F801C1CFEF01F9CF9093B304B5
:104250008093B204CDCFFE01E20FF31F81939193BF
:104260002250310939832883D7CF2091B00430916F
:10427000B104232B41F42091090130910A013093BC
:10428000B1042093B0042091070130910801211559
:10429000310541F42DB73EB740910B0150910C010F
:1042A000241B350BE091B004F091B104E217F30741
:1042B000A0F42E1B3F0B2817390778F0AC014E5F96
:1042C0005F4F2417350748F04E0F5F1F5093B1041E
:1042D0004093B004819391939FCFF0E0E0E09CCFB6
:1042E000CF93DF930097E9F0FC013297138212829B
:1042F000A091B204B091B304ED0130E020E010973A
:10430000A1F420813181820F931F2091B00430915C
:10431000B1042817390709F061C0F093B104E093A4
:10432000B004DF91CF910895EA01CE17DF07E8F5D9
:104330004A815B819E0141155105B1F7E901FB837B
:10434000EA8349915991C40FD51FEC17FD0761F419
:10435000808191810296840F951FE901998388835A
:10436000828193819B838A83F0E0E0E012968D91B5
:104370009C9113970097B9F52D913C911197CD0120
:104380000296820F931F2091B0043091B104281738
:10439000390739F6309751F51092B3041092B204F0
:1043A000B093B104A093B004BCCFD383C283408147
:1043B0005181840F951FC817D90761F44E5F5F4F75
:1043C00088819981480F591F518340838A819B813D
:1043D000938382832115310509F0B0CFF093B304A4
:1043E000E093B2049ECFFD01DC01C0CF13821282A4
:1043F000D7CFB0E0A0E0EFEFF1E20C9440208C01C9
:10440000009751F4CB010E94D4208C01C801CDB794
:10441000DEB7E0E10C945C20FC01E60FF71F9C0185
:1044200022503109E217F30708F49DC0D901CD915C
:10443000DC911197C617D70798F0C530D10530F336
:10444000CE0104978617970708F3C61BD70B229750
:10445000C193D1936D937C93CF010E947021D6CFED
:104460005B01AC1ABD0A4C018C0E9D1EA091B204DA
:10447000B091B304512C412CF12CE12C109731F563
:104480008091B0049091B1048815990509F05CC041
:104490004616570608F058C0809107019091080110
:1044A000009741F48DB79EB740910B0150910C01DC
:1044B000841B950BE817F90708F055C0F093B10479
:1044C000E093B004F90171836083A0CF8D919C913A
:1044D000119712966C90129713967C901397A815CB
:1044E000B90559F56C0142E0C40ED11CCA14DB04B5
:1044F00020F1AC014A195B09DA011296159780F098
:104500006282738251834083D9016D937C93E1145D
:10451000F10471F0D7011396FC93EE93129776CFC6
:1045200022968C0F9D1FF90191838083F301EFCFB9
:10453000F093B304E093B20469CF4816590608F427
:104540002C017D01D3019ACFCB010E94D4207C01A4
:10455000009749F0AE01B8010E94B622C8010E943E
:104560007021870153CF10E000E050CFFB01DC0148
:1045700002C001900D9241505040D8F70895FB01C0
:10458000DC0101900D920020E1F70895FB01DC01B0
:104590004150504048F001900D920020C9F701C0F1
:1045A0001D9241505040E0F7089512E0C1EAD2E078
:1045B00004C0FE010E94CE202196C23AD107C9F75D
:0445C000F894FFCF9D
:1045C400FFFFFF010000000000B4048000304050F1
:1045D40030210030200000000000BB071B07480703
:1045E4002308790757076B07000000005C081B07C6
:0E45F400EF085B08B808CE0843080D0A000067
:00000001FF
